{
  "fileName": "Dispenser.sol",
  "contractName": "Dispenser",
  "source": "// SPDX-License-Identifier: MIT\n\npragma solidity ^0.6.0;\n\nimport \"./DispensedToken.sol\";\nimport \"@openzeppelin/contracts/access/Ownable.sol\";\nimport \"@openzeppelin/contracts/math/SafeMath.sol\";\n\ncontract Dispenser is Ownable{\n\n    using SafeMath for uint256;\n    // deployment time, used for calculate current period and clims which limits to apply\n    uint public startTime;\n    // threshold after which there is no monetary policy and all founds are going to be released to beneficiary\n    uint public stopThresholdLimit;\n    // beneficiary addresss is the onlyone who can be receipt of transfers from this contract\n    bool public finalized;\n    // beneficiaries are addresss that can claimfunds if they has been added by owner, accepted by themselves, and didn't renounce to be beneficiaries\n    mapping(address => Beneficiary) public beneficiaries;\n    struct Beneficiary {\n        bool isAdded;\n        bool isAccepted;\n    }\n\n    // DispensedToken is an ERC20Capped token, which total supply is managed by this contract\n    DispensedToken public dispensedToken;\n    // Bidimentional array to store raimaing allowed withdrawals per months\n    uint[12][] public limits;\n\n    // Dispenser period duration is calculated based in populateBySatoshiMonetaryPolicy and stopThresholdLimit\n    // represents how many years this contract is going to be available for claiming funds if no explicit finalization is trigered before by contract owner\n    // could be deprecated and replaced by limtis.length\n    uint public dispenserPeriodDuration;\n\n    // Allowance accumulator is used just for check Monetary Policy Consistency during Dispenser creation, meaning that it is used to ensure\n    // that DSP cap is bigger than acumulated limits availables for claiming during the entire dispensing period in the worst-case.\n    // If the stopThresholdLimit is too small and/or the period is to large, it could be the case in wich the contract still\n    // allows claiming funds but there are no balance available of DSP in Dispenser, even when it's still not finilazed.\n    uint private allowanceAcumulator;\n\n    // events\n    event beneficiaryInvited(address indexed invitedBeneficiary);\n    event beneficiaryRemoved(address indexed deletedBeneficiary);\n    event benficiaryRightsAccepted (address indexed newBeneficiary);\n    event benficiaryRightsRenounced (address indexed newBeneficiary);\n\n    event dispenserPeriodFinilized (address beneficiary, uint reamainingAmount);\n    event dispenserPeriodFinilizedByOwner (uint remainingAmount);\n    event fundsClaimed(uint amount);\n\n    constructor(uint _dspCap, uint _stopThresholdLimit) public{\n        dispensedToken = new DispensedToken(_dspCap);\n        startTime = now;\n        stopThresholdLimit = _stopThresholdLimit; // could be parametrized\n        finalized = false;\n        populateLimits();\n        addBeneficiary(msg.sender);\n        acceptBeneficiaryRights();\n    }\n\n    function populateLimits () private {\n        // months dinamic limits are just hardcoded, as it doesn't change in original problem domain.\n        populateSingleYear(1000);\n        populateSingleYear(2500);\n        populateSingleYear(5000);\n        populateSingleYear(10000);\n        // from year five we charge periods of 4 years dividin limits by 2on each period, like \"bitcoin monetary policy\"\n        populateBySatoshiMonetaryPolicy(5000);\n       // dispenserPeriodDuration = limits.length;\n    }\n\n    function populateBySatoshiMonetaryPolicy(uint _initialamount) private {\n        uint allowed = _initialamount;\n        do {\n            for (uint i = 0; i < 4; i++) {\n                populateSingleYear(allowed);\n            }\n            allowed = allowed.div(2);// /2;\n        } while (allowed > stopThresholdLimit);\n    }\n\n    // here the convertion is just to fit number of decimals defined Dispensed token\n    // the function asummes the argument received represents an integer amount of DSP\n    function populateSingleYear (uint _limit) private consistentMonetaryPolicy {\n        uint limit = _limit.mul((uint(10)) ** dispensedToken.decimals());\n        \n        uint[12] memory months;\n\n        for (uint i = 0; i < 12; i++) {\n                //index year in year-1 because the first year is represented in 0 index array\n                months[i] = limit;\n                allowanceAcumulator = allowanceAcumulator.add(limit);\n            }\n        limits.push(months);\n        dispenserPeriodDuration = limits.length;\n    }\n\n     /**\n     * returns how many years and months has been pased betweeen the startpoint and a given timesttamp\n     * uses SafeMath to avoid overflows\n     */\n    function getYearAndMonths (uint _time) public view returns (uint _year,uint _month){\n        // this is the number of years between two timestamps in seconds, assuming years have 360 days for simplification\n         //((((_time - startTime ) / 60 ) / 60 ) / 24 ) / 360;\n        uint yea = ((((_time.sub(startTime)).div(60)).div(60)).div(24)).div(360);\n        // this is how many months\n        //((((( _time - startTime ) / 60 ) / 60 ) / 24 ) / 30 ) - yea*12;\n        uint all_monts = ((((_time.sub(startTime)).div(60)).div(60)).div(24)).div(30);\n        uint mon = all_monts.sub(yea.mul(12));\n        return (yea,mon);\n    }\n\n    //this function is being created just for cheking array state\n    function getCurrentMonthUnclaimedFund() public view returns (uint remainingAllowed){\n        (uint y, uint m) = getYearAndMonths(now);\n        return limits[y][m];\n    }\n\n    function getMonthUnclaimedFund(uint y, uint m) public view returns (uint _remining_funds) {\n        require (m <= 12, 'month not allowed more than 12');\n        require (0 <= m, 'month can not be negative');\n        require (y <= dispenserPeriodDuration, 'year out of dispensing period');\n        require (0 <= y, 'year can not be negative');\n        return (limits[y.sub(1)][m.sub(1)]);\n    }\n\n    function claimFunds (uint _amount) public notFinalized {\n        require(isAcceptedBeneficiary(msg.sender), 'Only accepted beneficiary addredss are allowed to claim founds');\n        (uint y, uint m) = getYearAndMonths(now);\n        if ( y >= dispenserPeriodDuration ){\n            finalize ();\n            return;\n        }\n        uint amount = _amount.mul((uint(10)) ** dispensedToken.decimals());\n        require(amount <= limits[y][m], 'You are trying to withdraw more than remaining allowed this month');\n        address beneficiary = msg.sender;\n        dispensedToken.transfer(beneficiary, amount);\n        limits[y][m] = limits[y][m].sub(amount);\n        emit fundsClaimed(_amount);\n    }\n\n    // When dispensed period os finilized all reamining funds in the contract will be transfered to the Owner of the contract.\n    function finalizeDispensedPeriod () public onlyOwner notFinalized {\n        uint remainingAmount = dispensedToken.balanceOf(address(this));\n        dispensedToken.transfer(owner(),remainingAmount);\n        finalized = true;\n        emit dispenserPeriodFinilizedByOwner (remainingAmount);\n    }\n    function finalize () private notFinalized {\n        uint remainingAmount = dispensedToken.balanceOf(address(this));\n        dispensedToken.transfer(msg.sender,remainingAmount);\n        finalized = true;\n        emit dispenserPeriodFinilized (msg.sender,remainingAmount);\n    }\n\n    function getLastMonthLimit () public view returns (uint _lastYear, uint _lastLimit) {\n        uint lastYear = limits.length;\n        uint lastLimit = limits[lastYear-1][11];\n        return (lastYear,lastLimit);\n    }\n\n    modifier notFinalized() {\n        require(!finalized, \"This contract is not dispensing any more, dispensed period has ended\");\n        _;\n    }\n\n    // The acumulation of all funds available for claims MUST be less or equal than capped supply of DSP.\n    // The requirement is to have enought cap and balance of DSP to dispense after year dispenserPeriodDuration\n    modifier consistentMonetaryPolicy(){\n        _;\n        require (allowanceAcumulator <= dispensedToken.cap(), 'Monetary Policy overflows');\n    }\n\n    /**\n     * only owner operations regarding beneficiaries: add and remove\n     */\n    function addBeneficiary (address _newBeneficiary) public onlyOwner returns (bool success){\n        require(_newBeneficiary != address(0), \"Beneficiary can not be the zero address\");\n        beneficiaries[_newBeneficiary].isAdded = true;\n        emit beneficiaryInvited(_newBeneficiary);\n        return true;\n    }\n    function removeBeneficiary (address _deletedBeneficiary) public onlyOwner returns (bool success){\n        require(_deletedBeneficiary != address(0), \"Beneficiary can not be the zero address\");\n        beneficiaries[_deletedBeneficiary].isAdded = false;\n        emit beneficiaryRemoved(_deletedBeneficiary);\n        return true;\n    }\n\n     /**\n     * Beneficiaries can accept or renounce their rigth to claim funds, just if they has been previusly added by owner\n     */\n    function acceptBeneficiaryRights () public returns (bool _success){\n        require(isAddedBeneficiary(msg.sender), \"Only previously added beneficiaries can accept beneficiary rights\");\n        beneficiaries[msg.sender].isAccepted = true;\n        emit benficiaryRightsAccepted(msg.sender);\n        return true;\n    }\n    function renounceBeneficiaryRights() public returns (bool _success) {\n        require(isAcceptedBeneficiary(msg.sender), 'Only an accepted beneficiaries can renounce beneficiary rights');\n        beneficiaries[msg.sender].isAccepted = false;\n        emit benficiaryRightsRenounced(msg.sender);\n        return true;\n    }\n\n    //  any addres can check if beneficiaries has been added by owner\n    function isAddedBeneficiary(address _beneficiary) public view returns (bool _isadded){\n        return beneficiaries[_beneficiary].isAdded;\n    }\n    function isAcceptedBeneficiary(address _beneficiary) public view returns (bool _isaccepted){\n        return (beneficiaries[_beneficiary].isAdded && beneficiaries[_beneficiary].isAccepted);\n    }\n\n}\n\n\n",
  "sourcePath": "contracts/Dispenser.sol",
  "abi": [
    {
      "inputs": [
        {
          "internalType": "uint256",
          "name": "_dspCap",
          "type": "uint256"
        },
        {
          "internalType": "uint256",
          "name": "_stopThresholdLimit",
          "type": "uint256"
        }
      ],
      "stateMutability": "nonpayable",
      "type": "constructor"
    },
    {
      "anonymous": false,
      "inputs": [
        {
          "indexed": true,
          "internalType": "address",
          "name": "previousOwner",
          "type": "address"
        },
        {
          "indexed": true,
          "internalType": "address",
          "name": "newOwner",
          "type": "address"
        }
      ],
      "name": "OwnershipTransferred",
      "type": "event"
    },
    {
      "anonymous": false,
      "inputs": [
        {
          "indexed": true,
          "internalType": "address",
          "name": "invitedBeneficiary",
          "type": "address"
        }
      ],
      "name": "beneficiaryInvited",
      "type": "event"
    },
    {
      "anonymous": false,
      "inputs": [
        {
          "indexed": true,
          "internalType": "address",
          "name": "deletedBeneficiary",
          "type": "address"
        }
      ],
      "name": "beneficiaryRemoved",
      "type": "event"
    },
    {
      "anonymous": false,
      "inputs": [
        {
          "indexed": true,
          "internalType": "address",
          "name": "newBeneficiary",
          "type": "address"
        }
      ],
      "name": "benficiaryRightsAccepted",
      "type": "event"
    },
    {
      "anonymous": false,
      "inputs": [
        {
          "indexed": true,
          "internalType": "address",
          "name": "newBeneficiary",
          "type": "address"
        }
      ],
      "name": "benficiaryRightsRenounced",
      "type": "event"
    },
    {
      "anonymous": false,
      "inputs": [
        {
          "indexed": false,
          "internalType": "address",
          "name": "beneficiary",
          "type": "address"
        },
        {
          "indexed": false,
          "internalType": "uint256",
          "name": "reamainingAmount",
          "type": "uint256"
        }
      ],
      "name": "dispenserPeriodFinilized",
      "type": "event"
    },
    {
      "anonymous": false,
      "inputs": [
        {
          "indexed": false,
          "internalType": "uint256",
          "name": "remainingAmount",
          "type": "uint256"
        }
      ],
      "name": "dispenserPeriodFinilizedByOwner",
      "type": "event"
    },
    {
      "anonymous": false,
      "inputs": [
        {
          "indexed": false,
          "internalType": "uint256",
          "name": "amount",
          "type": "uint256"
        }
      ],
      "name": "fundsClaimed",
      "type": "event"
    },
    {
      "inputs": [],
      "name": "acceptBeneficiaryRights",
      "outputs": [
        {
          "internalType": "bool",
          "name": "_success",
          "type": "bool"
        }
      ],
      "stateMutability": "nonpayable",
      "type": "function"
    },
    {
      "inputs": [
        {
          "internalType": "address",
          "name": "_newBeneficiary",
          "type": "address"
        }
      ],
      "name": "addBeneficiary",
      "outputs": [
        {
          "internalType": "bool",
          "name": "success",
          "type": "bool"
        }
      ],
      "stateMutability": "nonpayable",
      "type": "function"
    },
    {
      "inputs": [
        {
          "internalType": "address",
          "name": "",
          "type": "address"
        }
      ],
      "name": "beneficiaries",
      "outputs": [
        {
          "internalType": "bool",
          "name": "isAdded",
          "type": "bool"
        },
        {
          "internalType": "bool",
          "name": "isAccepted",
          "type": "bool"
        }
      ],
      "stateMutability": "view",
      "type": "function"
    },
    {
      "inputs": [
        {
          "internalType": "uint256",
          "name": "_amount",
          "type": "uint256"
        }
      ],
      "name": "claimFunds",
      "outputs": [],
      "stateMutability": "nonpayable",
      "type": "function"
    },
    {
      "inputs": [],
      "name": "dispensedToken",
      "outputs": [
        {
          "internalType": "contract DispensedToken",
          "name": "",
          "type": "address"
        }
      ],
      "stateMutability": "view",
      "type": "function"
    },
    {
      "inputs": [],
      "name": "dispenserPeriodDuration",
      "outputs": [
        {
          "internalType": "uint256",
          "name": "",
          "type": "uint256"
        }
      ],
      "stateMutability": "view",
      "type": "function"
    },
    {
      "inputs": [],
      "name": "finalizeDispensedPeriod",
      "outputs": [],
      "stateMutability": "nonpayable",
      "type": "function"
    },
    {
      "inputs": [],
      "name": "finalized",
      "outputs": [
        {
          "internalType": "bool",
          "name": "",
          "type": "bool"
        }
      ],
      "stateMutability": "view",
      "type": "function"
    },
    {
      "inputs": [],
      "name": "getCurrentMonthUnclaimedFund",
      "outputs": [
        {
          "internalType": "uint256",
          "name": "remainingAllowed",
          "type": "uint256"
        }
      ],
      "stateMutability": "view",
      "type": "function"
    },
    {
      "inputs": [],
      "name": "getLastMonthLimit",
      "outputs": [
        {
          "internalType": "uint256",
          "name": "_lastYear",
          "type": "uint256"
        },
        {
          "internalType": "uint256",
          "name": "_lastLimit",
          "type": "uint256"
        }
      ],
      "stateMutability": "view",
      "type": "function"
    },
    {
      "inputs": [
        {
          "internalType": "uint256",
          "name": "y",
          "type": "uint256"
        },
        {
          "internalType": "uint256",
          "name": "m",
          "type": "uint256"
        }
      ],
      "name": "getMonthUnclaimedFund",
      "outputs": [
        {
          "internalType": "uint256",
          "name": "_remining_funds",
          "type": "uint256"
        }
      ],
      "stateMutability": "view",
      "type": "function"
    },
    {
      "inputs": [
        {
          "internalType": "uint256",
          "name": "_time",
          "type": "uint256"
        }
      ],
      "name": "getYearAndMonths",
      "outputs": [
        {
          "internalType": "uint256",
          "name": "_year",
          "type": "uint256"
        },
        {
          "internalType": "uint256",
          "name": "_month",
          "type": "uint256"
        }
      ],
      "stateMutability": "view",
      "type": "function"
    },
    {
      "inputs": [
        {
          "internalType": "address",
          "name": "_beneficiary",
          "type": "address"
        }
      ],
      "name": "isAcceptedBeneficiary",
      "outputs": [
        {
          "internalType": "bool",
          "name": "_isaccepted",
          "type": "bool"
        }
      ],
      "stateMutability": "view",
      "type": "function"
    },
    {
      "inputs": [
        {
          "internalType": "address",
          "name": "_beneficiary",
          "type": "address"
        }
      ],
      "name": "isAddedBeneficiary",
      "outputs": [
        {
          "internalType": "bool",
          "name": "_isadded",
          "type": "bool"
        }
      ],
      "stateMutability": "view",
      "type": "function"
    },
    {
      "inputs": [
        {
          "internalType": "uint256",
          "name": "",
          "type": "uint256"
        },
        {
          "internalType": "uint256",
          "name": "",
          "type": "uint256"
        }
      ],
      "name": "limits",
      "outputs": [
        {
          "internalType": "uint256",
          "name": "",
          "type": "uint256"
        }
      ],
      "stateMutability": "view",
      "type": "function"
    },
    {
      "inputs": [],
      "name": "owner",
      "outputs": [
        {
          "internalType": "address",
          "name": "",
          "type": "address"
        }
      ],
      "stateMutability": "view",
      "type": "function"
    },
    {
      "inputs": [
        {
          "internalType": "address",
          "name": "_deletedBeneficiary",
          "type": "address"
        }
      ],
      "name": "removeBeneficiary",
      "outputs": [
        {
          "internalType": "bool",
          "name": "success",
          "type": "bool"
        }
      ],
      "stateMutability": "nonpayable",
      "type": "function"
    },
    {
      "inputs": [],
      "name": "renounceBeneficiaryRights",
      "outputs": [
        {
          "internalType": "bool",
          "name": "_success",
          "type": "bool"
        }
      ],
      "stateMutability": "nonpayable",
      "type": "function"
    },
    {
      "inputs": [],
      "name": "renounceOwnership",
      "outputs": [],
      "stateMutability": "nonpayable",
      "type": "function"
    },
    {
      "inputs": [],
      "name": "startTime",
      "outputs": [
        {
          "internalType": "uint256",
          "name": "",
          "type": "uint256"
        }
      ],
      "stateMutability": "view",
      "type": "function"
    },
    {
      "inputs": [],
      "name": "stopThresholdLimit",
      "outputs": [
        {
          "internalType": "uint256",
          "name": "",
          "type": "uint256"
        }
      ],
      "stateMutability": "view",
      "type": "function"
    },
    {
      "inputs": [
        {
          "internalType": "address",
          "name": "newOwner",
          "type": "address"
        }
      ],
      "name": "transferOwnership",
      "outputs": [],
      "stateMutability": "nonpayable",
      "type": "function"
    }
  ],
  "bytecode": "0x60806040523480156200001157600080fd5b506040516200481438038062004814833981810160405260408110156200003757600080fd5b810190808051906020019092919080519060200190929190505050600062000064620001dd60201b60201c565b9050806000806101000a81548173ffffffffffffffffffffffffffffffffffffffff021916908373ffffffffffffffffffffffffffffffffffffffff1602179055508073ffffffffffffffffffffffffffffffffffffffff16600073ffffffffffffffffffffffffffffffffffffffff167f8be0079c531659141344cd1fd0a4f28419497f9722a3daafe3b4186f6b6457e060405160405180910390a35081604051620001119062000ada565b80828152602001915050604051809103906000f08015801562000138573d6000803e3d6000fd5b50600560006101000a81548173ffffffffffffffffffffffffffffffffffffffff021916908373ffffffffffffffffffffffffffffffffffffffff16021790555042600181905550806002819055506000600360006101000a81548160ff021916908315150217905550620001b2620001e560201b60201c565b620001c3336200024660201b60201c565b50620001d46200044960201b60201c565b50505062000b78565b600033905090565b620001f86103e86200055860201b60201c565b6200020b6109c46200055860201b60201c565b6200021e6113886200055860201b60201c565b620002316127106200055860201b60201c565b62000244611388620007ef60201b60201c565b565b600062000258620001dd60201b60201c565b73ffffffffffffffffffffffffffffffffffffffff166000809054906101000a900473ffffffffffffffffffffffffffffffffffffffff1673ffffffffffffffffffffffffffffffffffffffff16146200031a576040517f08c379a00000000000000000000000000000000000000000000000000000000081526004018080602001828103825260208152602001807f4f776e61626c653a2063616c6c6572206973206e6f7420746865206f776e657281525060200191505060405180910390fd5b600073ffffffffffffffffffffffffffffffffffffffff168273ffffffffffffffffffffffffffffffffffffffff161415620003a2576040517f08c379a0000000000000000000000000000000000000000000000000000000008152600401808060200182810382526027815260200180620047ed6027913960400191505060405180910390fd5b6001600460008473ffffffffffffffffffffffffffffffffffffffff1673ffffffffffffffffffffffffffffffffffffffff16815260200190815260200160002060000160006101000a81548160ff0219169083151502179055508173ffffffffffffffffffffffffffffffffffffffff167f025a4d7ec48208448a9920d510dfbd14b8fe653a5bc2d546befebb7077a245ca60405160405180910390a260019050919050565b60006200045c336200085060201b60201c565b620004b3576040517f08c379a0000000000000000000000000000000000000000000000000000000008152600401808060200182810382526041815260200180620047ac6041913960600191505060405180910390fd5b6001600460003373ffffffffffffffffffffffffffffffffffffffff1673ffffffffffffffffffffffffffffffffffffffff16815260200190815260200160002060000160016101000a81548160ff0219169083151502179055503373ffffffffffffffffffffffffffffffffffffffff167f1e22723a2ccdf0d724c774e94588ab04a8e2fc543684df5f5956100405970d5c60405160405180910390a26001905090565b60006200061f600560009054906101000a900473ffffffffffffffffffffffffffffffffffffffff1673ffffffffffffffffffffffffffffffffffffffff1663313ce5676040518163ffffffff1660e01b815260040160206040518083038186803b158015620005c757600080fd5b505afa158015620005dc573d6000803e3d6000fd5b505050506040513d6020811015620005f357600080fd5b810190808051906020019092919050505060ff16600a0a83620008a960201b62001c651790919060201c565b90506200062b62000ae8565b60008090505b600c8110156200068257828282600c81106200064957fe5b6020020181815250506200066e836008546200093460201b62001ceb1790919060201c565b600881905550808060010191505062000631565b5060068190806001815401808255809150506001900390600052602060002090600c020160009091909190915090600c620006bf92919062000b0b565b506006805490506007819055505050600560009054906101000a900473ffffffffffffffffffffffffffffffffffffffff1673ffffffffffffffffffffffffffffffffffffffff1663355274ea6040518163ffffffff1660e01b815260040160206040518083038186803b1580156200073757600080fd5b505afa1580156200074c573d6000803e3d6000fd5b505050506040513d60208110156200076357600080fd5b81019080805190602001909291905050506008541115620007ec576040517f08c379a00000000000000000000000000000000000000000000000000000000081526004018080602001828103825260198152602001807f4d6f6e657461727920506f6c696379206f766572666c6f77730000000000000081525060200191505060405180910390fd5b50565b60008190505b60008090505b6004811015620008245762000816826200055860201b60201c565b8080600101915050620007fb565b5062000840600282620009bd60201b62001d731790919060201c565b90506002548111620007f5575050565b6000600460008373ffffffffffffffffffffffffffffffffffffffff1673ffffffffffffffffffffffffffffffffffffffff16815260200190815260200160002060000160009054906101000a900460ff169050919050565b600080831415620008be57600090506200092e565b6000828402905082848281620008d057fe5b041462000929576040517f08c379a00000000000000000000000000000000000000000000000000000000081526004018080602001828103825260218152602001806200478b6021913960400191505060405180910390fd5b809150505b92915050565b600080828401905083811015620009b3576040517f08c379a000000000000000000000000000000000000000000000000000000000815260040180806020018281038252601b8152602001807f536166654d6174683a206164646974696f6e206f766572666c6f77000000000081525060200191505060405180910390fd5b8091505092915050565b600062000a0783836040518060400160405280601a81526020017f536166654d6174683a206469766973696f6e206279207a65726f00000000000081525062000a0f60201b60201c565b905092915050565b6000808311829062000abf576040517f08c379a00000000000000000000000000000000000000000000000000000000081526004018080602001828103825283818151815260200191508051906020019080838360005b8381101562000a8357808201518184015260208101905062000a66565b50505050905090810190601f16801562000ab15780820380516001836020036101000a031916815260200191505b509250505060405180910390fd5b50600083858162000acc57fe5b049050809150509392505050565b6117d68062002fb583390190565b604051806101800160405280600c90602082028036833780820191505090505090565b82600c810192821562000b3d579160200282015b8281111562000b3c57825182559160200191906001019062000b1f565b5b50905062000b4c919062000b50565b5090565b62000b7591905b8082111562000b7157600081600090555060010162000b57565b5090565b90565b61242d8062000b886000396000f3fe608060405234801561001057600080fd5b50600436106101425760003560e01c8063b3f05b97116100b8578063bf63fa5f1161007c578063bf63fa5f14610518578063ce7c30fa14610522578063da13888314610540578063db0f8a671461055e578063f2fde38b1461057c578063fcaf599c146105c057610142565b8063b3f05b97146103df578063b439006414610401578063b662ac7e14610426578063b98d6feb14610470578063bed56c3e146104cc57610142565b806359633a1c1161010a57806359633a1c146102a657806366b7472d14610302578063715018a61461032457806378e979251461032e5780638da5cb5b1461034c578063ab1ef4c51461039657610142565b806301567739146101475780631b55e338146101ae5780632635c081146101dc5780633593960f146102285780635926651d1461024a575b600080fd5b6101896004803603602081101561015d57600080fd5b81019080803573ffffffffffffffffffffffffffffffffffffffff16906020019092919050505061061c565b6040518083151515158152602001821515151581526020019250505060405180910390f35b6101da600480360360208110156101c457600080fd5b810190808035906020019092919050505061065a565b005b610212600480360360408110156101f257600080fd5b810190808035906020019092919080359060200190929190505050610a13565b6040518082815260200191505060405180910390f35b610230610c48565b604051808215151515815260200191505060405180910390f35b61028c6004803603602081101561026057600080fd5b81019080803573ffffffffffffffffffffffffffffffffffffffff169060200190929190505050610d4d565b604051808215151515815260200191505060405180910390f35b6102e8600480360360208110156102bc57600080fd5b81019080803573ffffffffffffffffffffffffffffffffffffffff169060200190929190505050610f45565b604051808215151515815260200191505060405180910390f35b61030a61113d565b604051808215151515815260200191505060405180910390f35b61032c611242565b005b6103366113ca565b6040518082815260200191505060405180910390f35b6103546113d0565b604051808273ffffffffffffffffffffffffffffffffffffffff1673ffffffffffffffffffffffffffffffffffffffff16815260200191505060405180910390f35b6103c2600480360360208110156103ac57600080fd5b81019080803590602001909291905050506113f9565b604051808381526020018281526020019250505060405180910390f35b6103e76114ff565b604051808215151515815260200191505060405180910390f35b610409611512565b604051808381526020018281526020019250505060405180910390f35b61042e61155b565b604051808273ffffffffffffffffffffffffffffffffffffffff1673ffffffffffffffffffffffffffffffffffffffff16815260200191505060405180910390f35b6104b26004803603602081101561048657600080fd5b81019080803573ffffffffffffffffffffffffffffffffffffffff169060200190929190505050611581565b604051808215151515815260200191505060405180910390f35b610502600480360360408110156104e257600080fd5b810190808035906020019092919080359060200190929190505050611632565b6040518082815260200191505060405180910390f35b610520611664565b005b61052a6119b2565b6040518082815260200191505060405180910390f35b6105486119b8565b6040518082815260200191505060405180910390f35b6105666119f9565b6040518082815260200191505060405180910390f35b6105be6004803603602081101561059257600080fd5b81019080803573ffffffffffffffffffffffffffffffffffffffff1690602001909291905050506119ff565b005b610602600480360360208110156105d657600080fd5b81019080803573ffffffffffffffffffffffffffffffffffffffff169060200190929190505050611c0c565b604051808215151515815260200191505060405180910390f35b60046020528060005260406000206000915090508060000160009054906101000a900460ff16908060000160019054906101000a900460ff16905082565b600360009054906101000a900460ff16156106c0576040517f08c379a000000000000000000000000000000000000000000000000000000000815260040180806020018281038252604481526020018061238d6044913960600191505060405180910390fd5b6106c933611581565b61071e576040517f08c379a000000000000000000000000000000000000000000000000000000000815260040180806020018281038252603e815260200180612248603e913960400191505060405180910390fd5b60008061072a426113f9565b9150915060075482106107465761073f611dbd565b5050610a10565b6000610803600560009054906101000a900473ffffffffffffffffffffffffffffffffffffffff1673ffffffffffffffffffffffffffffffffffffffff1663313ce5676040518163ffffffff1660e01b815260040160206040518083038186803b1580156107b357600080fd5b505afa1580156107c7573d6000803e3d6000fd5b505050506040513d60208110156107dd57600080fd5b810190808051906020019092919050505060ff16600a0a85611c6590919063ffffffff16565b90506006838154811061081257fe5b90600052602060002090600c020182600c811061082b57fe5b0154811115610885576040517f08c379a00000000000000000000000000000000000000000000000000000000081526004018080602001828103825260418152602001806122ea6041913960600191505060405180910390fd5b6000339050600560009054906101000a900473ffffffffffffffffffffffffffffffffffffffff1673ffffffffffffffffffffffffffffffffffffffff1663a9059cbb82846040518363ffffffff1660e01b8152600401808373ffffffffffffffffffffffffffffffffffffffff1673ffffffffffffffffffffffffffffffffffffffff16815260200182815260200192505050602060405180830381600087803b15801561093357600080fd5b505af1158015610947573d6000803e3d6000fd5b505050506040513d602081101561095d57600080fd5b8101908080519060200190929190505050506109a9826006868154811061098057fe5b90600052602060002090600c020185600c811061099957fe5b015461206f90919063ffffffff16565b600685815481106109b657fe5b90600052602060002090600c020184600c81106109cf57fe5b01819055507f157285b9313653699d558e16cfa2fb129fd608799ca7c4d60fb35ed95948c315856040518082815260200191505060405180910390a1505050505b50565b6000600c821115610a8c576040517f08c379a000000000000000000000000000000000000000000000000000000000815260040180806020018281038252601e8152602001807f6d6f6e7468206e6f7420616c6c6f776564206d6f7265207468616e203132000081525060200191505060405180910390fd5b8160001115610b03576040517f08c379a00000000000000000000000000000000000000000000000000000000081526004018080602001828103825260198152602001807f6d6f6e74682063616e206e6f74206265206e656761746976650000000000000081525060200191505060405180910390fd5b600754831115610b7b576040517f08c379a000000000000000000000000000000000000000000000000000000000815260040180806020018281038252601d8152602001807f79656172206f7574206f662064697370656e73696e6720706572696f6400000081525060200191505060405180910390fd5b8260001115610bf2576040517f08c379a00000000000000000000000000000000000000000000000000000000081526004018080602001828103825260188152602001807f796561722063616e206e6f74206265206e65676174697665000000000000000081525060200191505060405180910390fd5b6006610c0860018561206f90919063ffffffff16565b81548110610c1257fe5b90600052602060002090600c0201610c3460018461206f90919063ffffffff16565b600c8110610c3e57fe5b0154905092915050565b6000610c5333611c0c565b610ca8576040517f08c379a000000000000000000000000000000000000000000000000000000000815260040180806020018281038252604181526020018061234c6041913960600191505060405180910390fd5b6001600460003373ffffffffffffffffffffffffffffffffffffffff1673ffffffffffffffffffffffffffffffffffffffff16815260200190815260200160002060000160016101000a81548160ff0219169083151502179055503373ffffffffffffffffffffffffffffffffffffffff167f1e22723a2ccdf0d724c774e94588ab04a8e2fc543684df5f5956100405970d5c60405160405180910390a26001905090565b6000610d576120b9565b73ffffffffffffffffffffffffffffffffffffffff166000809054906101000a900473ffffffffffffffffffffffffffffffffffffffff1673ffffffffffffffffffffffffffffffffffffffff1614610e18576040517f08c379a00000000000000000000000000000000000000000000000000000000081526004018080602001828103825260208152602001807f4f776e61626c653a2063616c6c6572206973206e6f7420746865206f776e657281525060200191505060405180910390fd5b600073ffffffffffffffffffffffffffffffffffffffff168273ffffffffffffffffffffffffffffffffffffffff161415610e9e576040517f08c379a00000000000000000000000000000000000000000000000000000000081526004018080602001828103825260278152602001806123d16027913960400191505060405180910390fd5b6001600460008473ffffffffffffffffffffffffffffffffffffffff1673ffffffffffffffffffffffffffffffffffffffff16815260200190815260200160002060000160006101000a81548160ff0219169083151502179055508173ffffffffffffffffffffffffffffffffffffffff167f025a4d7ec48208448a9920d510dfbd14b8fe653a5bc2d546befebb7077a245ca60405160405180910390a260019050919050565b6000610f4f6120b9565b73ffffffffffffffffffffffffffffffffffffffff166000809054906101000a900473ffffffffffffffffffffffffffffffffffffffff1673ffffffffffffffffffffffffffffffffffffffff1614611010576040517f08c379a00000000000000000000000000000000000000000000000000000000081526004018080602001828103825260208152602001807f4f776e61626c653a2063616c6c6572206973206e6f7420746865206f776e657281525060200191505060405180910390fd5b600073ffffffffffffffffffffffffffffffffffffffff168273ffffffffffffffffffffffffffffffffffffffff161415611096576040517f08c379a00000000000000000000000000000000000000000000000000000000081526004018080602001828103825260278152602001806123d16027913960400191505060405180910390fd5b6000600460008473ffffffffffffffffffffffffffffffffffffffff1673ffffffffffffffffffffffffffffffffffffffff16815260200190815260200160002060000160006101000a81548160ff0219169083151502179055508173ffffffffffffffffffffffffffffffffffffffff167f47ffdb75c3f9a349dbba9889334b34625a80b80fd495aafd24b5f6c7b93c1fb460405160405180910390a260019050919050565b600061114833611581565b61119d576040517f08c379a000000000000000000000000000000000000000000000000000000000815260040180806020018281038252603e8152602001806122ac603e913960400191505060405180910390fd5b6000600460003373ffffffffffffffffffffffffffffffffffffffff1673ffffffffffffffffffffffffffffffffffffffff16815260200190815260200160002060000160016101000a81548160ff0219169083151502179055503373ffffffffffffffffffffffffffffffffffffffff167f34d818f388b46e0a4cab73456fc40c25d88c77ce4553bdd0606a35aa9876d62d60405160405180910390a26001905090565b61124a6120b9565b73ffffffffffffffffffffffffffffffffffffffff166000809054906101000a900473ffffffffffffffffffffffffffffffffffffffff1673ffffffffffffffffffffffffffffffffffffffff161461130b576040517f08c379a00000000000000000000000000000000000000000000000000000000081526004018080602001828103825260208152602001807f4f776e61626c653a2063616c6c6572206973206e6f7420746865206f776e657281525060200191505060405180910390fd5b600073ffffffffffffffffffffffffffffffffffffffff166000809054906101000a900473ffffffffffffffffffffffffffffffffffffffff1673ffffffffffffffffffffffffffffffffffffffff167f8be0079c531659141344cd1fd0a4f28419497f9722a3daafe3b4186f6b6457e060405160405180910390a360008060006101000a81548173ffffffffffffffffffffffffffffffffffffffff021916908373ffffffffffffffffffffffffffffffffffffffff160217905550565b60015481565b60008060009054906101000a900473ffffffffffffffffffffffffffffffffffffffff16905090565b60008060006114606101686114526018611444603c611436603c6114286001548d61206f90919063ffffffff16565b611d7390919063ffffffff16565b611d7390919063ffffffff16565b611d7390919063ffffffff16565b611d7390919063ffffffff16565b905060006114c5601e6114b760186114a9603c61149b603c61148d6001548e61206f90919063ffffffff16565b611d7390919063ffffffff16565b611d7390919063ffffffff16565b611d7390919063ffffffff16565b611d7390919063ffffffff16565b905060006114ef6114e0600c85611c6590919063ffffffff16565b8361206f90919063ffffffff16565b9050828194509450505050915091565b600360009054906101000a900460ff1681565b6000806000600680549050905060006006600183038154811061153157fe5b90600052602060002090600c0201600b600c811061154b57fe5b0154905081819350935050509091565b600560009054906101000a900473ffffffffffffffffffffffffffffffffffffffff1681565b6000600460008373ffffffffffffffffffffffffffffffffffffffff1673ffffffffffffffffffffffffffffffffffffffff16815260200190815260200160002060000160009054906101000a900460ff16801561162b5750600460008373ffffffffffffffffffffffffffffffffffffffff1673ffffffffffffffffffffffffffffffffffffffff16815260200190815260200160002060000160019054906101000a900460ff165b9050919050565b6006828154811061163f57fe5b90600052602060002090600c020181600c811061165857fe5b01600091509150505481565b61166c6120b9565b73ffffffffffffffffffffffffffffffffffffffff166000809054906101000a900473ffffffffffffffffffffffffffffffffffffffff1673ffffffffffffffffffffffffffffffffffffffff161461172d576040517f08c379a00000000000000000000000000000000000000000000000000000000081526004018080602001828103825260208152602001807f4f776e61626c653a2063616c6c6572206973206e6f7420746865206f776e657281525060200191505060405180910390fd5b600360009054906101000a900460ff1615611793576040517f08c379a000000000000000000000000000000000000000000000000000000000815260040180806020018281038252604481526020018061238d6044913960600191505060405180910390fd5b6000600560009054906101000a900473ffffffffffffffffffffffffffffffffffffffff1673ffffffffffffffffffffffffffffffffffffffff166370a08231306040518263ffffffff1660e01b8152600401808273ffffffffffffffffffffffffffffffffffffffff1673ffffffffffffffffffffffffffffffffffffffff16815260200191505060206040518083038186803b15801561183457600080fd5b505afa158015611848573d6000803e3d6000fd5b505050506040513d602081101561185e57600080fd5b81019080805190602001909291905050509050600560009054906101000a900473ffffffffffffffffffffffffffffffffffffffff1673ffffffffffffffffffffffffffffffffffffffff1663a9059cbb6118b76113d0565b836040518363ffffffff1660e01b8152600401808373ffffffffffffffffffffffffffffffffffffffff1673ffffffffffffffffffffffffffffffffffffffff16815260200182815260200192505050602060405180830381600087803b15801561192157600080fd5b505af1158015611935573d6000803e3d6000fd5b505050506040513d602081101561194b57600080fd5b8101908080519060200190929190505050506001600360006101000a81548160ff0219169083151502179055507f6f1253dbc058b556a898df70742adc0923a773f174b11613f6c49781a517dc5f816040518082815260200191505060405180910390a150565b60025481565b60008060006119c6426113f9565b91509150600682815481106119d757fe5b90600052602060002090600c020181600c81106119f057fe5b01549250505090565b60075481565b611a076120b9565b73ffffffffffffffffffffffffffffffffffffffff166000809054906101000a900473ffffffffffffffffffffffffffffffffffffffff1673ffffffffffffffffffffffffffffffffffffffff1614611ac8576040517f08c379a00000000000000000000000000000000000000000000000000000000081526004018080602001828103825260208152602001807f4f776e61626c653a2063616c6c6572206973206e6f7420746865206f776e657281525060200191505060405180910390fd5b600073ffffffffffffffffffffffffffffffffffffffff168173ffffffffffffffffffffffffffffffffffffffff161415611b4e576040517f08c379a00000000000000000000000000000000000000000000000000000000081526004018080602001828103825260268152602001806122866026913960400191505060405180910390fd5b8073ffffffffffffffffffffffffffffffffffffffff166000809054906101000a900473ffffffffffffffffffffffffffffffffffffffff1673ffffffffffffffffffffffffffffffffffffffff167f8be0079c531659141344cd1fd0a4f28419497f9722a3daafe3b4186f6b6457e060405160405180910390a3806000806101000a81548173ffffffffffffffffffffffffffffffffffffffff021916908373ffffffffffffffffffffffffffffffffffffffff16021790555050565b6000600460008373ffffffffffffffffffffffffffffffffffffffff1673ffffffffffffffffffffffffffffffffffffffff16815260200190815260200160002060000160009054906101000a900460ff169050919050565b600080831415611c785760009050611ce5565b6000828402905082848281611c8957fe5b0414611ce0576040517f08c379a000000000000000000000000000000000000000000000000000000000815260040180806020018281038252602181526020018061232b6021913960400191505060405180910390fd5b809150505b92915050565b600080828401905083811015611d69576040517f08c379a000000000000000000000000000000000000000000000000000000000815260040180806020018281038252601b8152602001807f536166654d6174683a206164646974696f6e206f766572666c6f77000000000081525060200191505060405180910390fd5b8091505092915050565b6000611db583836040518060400160405280601a81526020017f536166654d6174683a206469766973696f6e206279207a65726f0000000000008152506120c1565b905092915050565b600360009054906101000a900460ff1615611e23576040517f08c379a000000000000000000000000000000000000000000000000000000000815260040180806020018281038252604481526020018061238d6044913960600191505060405180910390fd5b6000600560009054906101000a900473ffffffffffffffffffffffffffffffffffffffff1673ffffffffffffffffffffffffffffffffffffffff166370a08231306040518263ffffffff1660e01b8152600401808273ffffffffffffffffffffffffffffffffffffffff1673ffffffffffffffffffffffffffffffffffffffff16815260200191505060206040518083038186803b158015611ec457600080fd5b505afa158015611ed8573d6000803e3d6000fd5b505050506040513d6020811015611eee57600080fd5b81019080805190602001909291905050509050600560009054906101000a900473ffffffffffffffffffffffffffffffffffffffff1673ffffffffffffffffffffffffffffffffffffffff1663a9059cbb33836040518363ffffffff1660e01b8152600401808373ffffffffffffffffffffffffffffffffffffffff1673ffffffffffffffffffffffffffffffffffffffff16815260200182815260200192505050602060405180830381600087803b158015611faa57600080fd5b505af1158015611fbe573d6000803e3d6000fd5b505050506040513d6020811015611fd457600080fd5b8101908080519060200190929190505050506001600360006101000a81548160ff0219169083151502179055507fbc2e7ff468f223a846ad9a02544b6815fb4e640c92af4ef32938a95b00fdf49b3382604051808373ffffffffffffffffffffffffffffffffffffffff1673ffffffffffffffffffffffffffffffffffffffff1681526020018281526020019250505060405180910390a150565b60006120b183836040518060400160405280601e81526020017f536166654d6174683a207375627472616374696f6e206f766572666c6f770000815250612187565b905092915050565b600033905090565b6000808311829061216d576040517f08c379a00000000000000000000000000000000000000000000000000000000081526004018080602001828103825283818151815260200191508051906020019080838360005b83811015612132578082015181840152602081019050612117565b50505050905090810190601f16801561215f5780820380516001836020036101000a031916815260200191505b509250505060405180910390fd5b50600083858161217957fe5b049050809150509392505050565b6000838311158290612234576040517f08c379a00000000000000000000000000000000000000000000000000000000081526004018080602001828103825283818151815260200191508051906020019080838360005b838110156121f95780820151818401526020810190506121de565b50505050905090810190601f1680156122265780820380516001836020036101000a031916815260200191505b509250505060405180910390fd5b506000838503905080915050939250505056fe4f6e6c792061636365707465642062656e65666963696172792061646472656473732061726520616c6c6f77656420746f20636c61696d20666f756e64734f776e61626c653a206e6577206f776e657220697320746865207a65726f20616464726573734f6e6c7920616e2061636365707465642062656e656669636961726965732063616e2072656e6f756e63652062656e656669636961727920726967687473596f752061726520747279696e6720746f207769746864726177206d6f7265207468616e2072656d61696e696e6720616c6c6f7765642074686973206d6f6e7468536166654d6174683a206d756c7469706c69636174696f6e206f766572666c6f774f6e6c792070726576696f75736c792061646465642062656e656669636961726965732063616e206163636570742062656e6566696369617279207269676874735468697320636f6e7472616374206973206e6f742064697370656e73696e6720616e79206d6f72652c2064697370656e73656420706572696f642068617320656e64656442656e65666963696172792063616e206e6f7420626520746865207a65726f2061646472657373a2646970667358221220cd16d06124797d78ff982faae348503e65033be174a5643e9e75f141b54c5a1964736f6c634300060b003360806040523480156200001157600080fd5b50604051620017d6380380620017d6833981810160405260208110156200003757600080fd5b8101908080519060200190929190505050670de0b6b3a764000081026040518060400160405280600f81526020017f44697370656e73656420546f6b656e00000000000000000000000000000000008152506040518060400160405280600381526020017f44535000000000000000000000000000000000000000000000000000000000008152508160039080519060200190620000d79291906200051c565b508060049080519060200190620000f09291906200051c565b506012600560006101000a81548160ff021916908360ff16021790555050506000811162000186576040517f08c379a00000000000000000000000000000000000000000000000000000000081526004018080602001828103825260158152602001807f45524332304361707065643a206361702069732030000000000000000000000081525060200191505060405180910390fd5b8060068190555050620001aa33670de0b6b3a76400008302620001b160201b60201c565b50620005cb565b600073ffffffffffffffffffffffffffffffffffffffff168273ffffffffffffffffffffffffffffffffffffffff16141562000255576040517f08c379a000000000000000000000000000000000000000000000000000000000815260040180806020018281038252601f8152602001807f45524332303a206d696e7420746f20746865207a65726f20616464726573730081525060200191505060405180910390fd5b62000269600083836200038f60201b60201c565b62000285816002546200048460201b620009e01790919060201c565b600281905550620002e3816000808573ffffffffffffffffffffffffffffffffffffffff1673ffffffffffffffffffffffffffffffffffffffff168152602001908152602001600020546200048460201b620009e01790919060201c565b6000808473ffffffffffffffffffffffffffffffffffffffff1673ffffffffffffffffffffffffffffffffffffffff168152602001908152602001600020819055508173ffffffffffffffffffffffffffffffffffffffff16600073ffffffffffffffffffffffffffffffffffffffff167fddf252ad1be2c89b69c2b068fc378daa952ba7f163c4a11628f55a4df523b3ef836040518082815260200191505060405180910390a35050565b620003a78383836200050d60201b62000a681760201c565b600073ffffffffffffffffffffffffffffffffffffffff168373ffffffffffffffffffffffffffffffffffffffff1614156200047f576006546200040982620003f56200051260201b60201c565b6200048460201b620009e01790919060201c565b11156200047e576040517f08c379a00000000000000000000000000000000000000000000000000000000081526004018080602001828103825260198152602001807f45524332304361707065643a206361702065786365656465640000000000000081525060200191505060405180910390fd5b5b505050565b60008082840190508381101562000503576040517f08c379a000000000000000000000000000000000000000000000000000000000815260040180806020018281038252601b8152602001807f536166654d6174683a206164646974696f6e206f766572666c6f77000000000081525060200191505060405180910390fd5b8091505092915050565b505050565b6000600254905090565b828054600181600116156101000203166002900490600052602060002090601f016020900481019282601f106200055f57805160ff191683800117855562000590565b8280016001018555821562000590579182015b828111156200058f57825182559160200191906001019062000572565b5b5090506200059f9190620005a3565b5090565b620005c891905b80821115620005c4576000816000905550600101620005aa565b5090565b90565b6111fb80620005db6000396000f3fe608060405234801561001057600080fd5b50600436106100b45760003560e01c80633950935111610071578063395093511461028857806370a08231146102ee57806395d89b4114610346578063a457c2d7146103c9578063a9059cbb1461042f578063dd62ed3e14610495576100b4565b806306fdde03146100b9578063095ea7b31461013c57806318160ddd146101a257806323b872dd146101c0578063313ce56714610246578063355274ea1461026a575b600080fd5b6100c161050d565b6040518080602001828103825283818151815260200191508051906020019080838360005b838110156101015780820151818401526020810190506100e6565b50505050905090810190601f16801561012e5780820380516001836020036101000a031916815260200191505b509250505060405180910390f35b6101886004803603604081101561015257600080fd5b81019080803573ffffffffffffffffffffffffffffffffffffffff169060200190929190803590602001909291905050506105af565b604051808215151515815260200191505060405180910390f35b6101aa6105cd565b6040518082815260200191505060405180910390f35b61022c600480360360608110156101d657600080fd5b81019080803573ffffffffffffffffffffffffffffffffffffffff169060200190929190803573ffffffffffffffffffffffffffffffffffffffff169060200190929190803590602001909291905050506105d7565b604051808215151515815260200191505060405180910390f35b61024e6106b0565b604051808260ff1660ff16815260200191505060405180910390f35b6102726106c7565b6040518082815260200191505060405180910390f35b6102d46004803603604081101561029e57600080fd5b81019080803573ffffffffffffffffffffffffffffffffffffffff169060200190929190803590602001909291905050506106d1565b604051808215151515815260200191505060405180910390f35b6103306004803603602081101561030457600080fd5b81019080803573ffffffffffffffffffffffffffffffffffffffff169060200190929190505050610784565b6040518082815260200191505060405180910390f35b61034e6107cc565b6040518080602001828103825283818151815260200191508051906020019080838360005b8381101561038e578082015181840152602081019050610373565b50505050905090810190601f1680156103bb5780820380516001836020036101000a031916815260200191505b509250505060405180910390f35b610415600480360360408110156103df57600080fd5b81019080803573ffffffffffffffffffffffffffffffffffffffff1690602001909291908035906020019092919050505061086e565b604051808215151515815260200191505060405180910390f35b61047b6004803603604081101561044557600080fd5b81019080803573ffffffffffffffffffffffffffffffffffffffff1690602001909291908035906020019092919050505061093b565b604051808215151515815260200191505060405180910390f35b6104f7600480360360408110156104ab57600080fd5b81019080803573ffffffffffffffffffffffffffffffffffffffff169060200190929190803573ffffffffffffffffffffffffffffffffffffffff169060200190929190505050610959565b6040518082815260200191505060405180910390f35b606060038054600181600116156101000203166002900480601f0160208091040260200160405190810160405280929190818152602001828054600181600116156101000203166002900480156105a55780601f1061057a576101008083540402835291602001916105a5565b820191906000526020600020905b81548152906001019060200180831161058857829003601f168201915b5050505050905090565b60006105c36105bc610a6d565b8484610a75565b6001905092915050565b6000600254905090565b60006105e4848484610c6c565b6106a5846105f0610a6d565b6106a08560405180606001604052806028815260200161113060289139600160008b73ffffffffffffffffffffffffffffffffffffffff1673ffffffffffffffffffffffffffffffffffffffff1681526020019081526020016000206000610656610a6d565b73ffffffffffffffffffffffffffffffffffffffff1673ffffffffffffffffffffffffffffffffffffffff16815260200190815260200160002054610f2d9092919063ffffffff16565b610a75565b600190509392505050565b6000600560009054906101000a900460ff16905090565b6000600654905090565b600061077a6106de610a6d565b8461077585600160006106ef610a6d565b73ffffffffffffffffffffffffffffffffffffffff1673ffffffffffffffffffffffffffffffffffffffff16815260200190815260200160002060008973ffffffffffffffffffffffffffffffffffffffff1673ffffffffffffffffffffffffffffffffffffffff168152602001908152602001600020546109e090919063ffffffff16565b610a75565b6001905092915050565b60008060008373ffffffffffffffffffffffffffffffffffffffff1673ffffffffffffffffffffffffffffffffffffffff168152602001908152602001600020549050919050565b606060048054600181600116156101000203166002900480601f0160208091040260200160405190810160405280929190818152602001828054600181600116156101000203166002900480156108645780601f1061083957610100808354040283529160200191610864565b820191906000526020600020905b81548152906001019060200180831161084757829003601f168201915b5050505050905090565b600061093161087b610a6d565b8461092c856040518060600160405280602581526020016111a160259139600160006108a5610a6d565b73ffffffffffffffffffffffffffffffffffffffff1673ffffffffffffffffffffffffffffffffffffffff16815260200190815260200160002060008a73ffffffffffffffffffffffffffffffffffffffff1673ffffffffffffffffffffffffffffffffffffffff16815260200190815260200160002054610f2d9092919063ffffffff16565b610a75565b6001905092915050565b600061094f610948610a6d565b8484610c6c565b6001905092915050565b6000600160008473ffffffffffffffffffffffffffffffffffffffff1673ffffffffffffffffffffffffffffffffffffffff16815260200190815260200160002060008373ffffffffffffffffffffffffffffffffffffffff1673ffffffffffffffffffffffffffffffffffffffff16815260200190815260200160002054905092915050565b600080828401905083811015610a5e576040517f08c379a000000000000000000000000000000000000000000000000000000000815260040180806020018281038252601b8152602001807f536166654d6174683a206164646974696f6e206f766572666c6f77000000000081525060200191505060405180910390fd5b8091505092915050565b505050565b600033905090565b600073ffffffffffffffffffffffffffffffffffffffff168373ffffffffffffffffffffffffffffffffffffffff161415610afb576040517f08c379a000000000000000000000000000000000000000000000000000000000815260040180806020018281038252602481526020018061117d6024913960400191505060405180910390fd5b600073ffffffffffffffffffffffffffffffffffffffff168273ffffffffffffffffffffffffffffffffffffffff161415610b81576040517f08c379a00000000000000000000000000000000000000000000000000000000081526004018080602001828103825260228152602001806110e86022913960400191505060405180910390fd5b80600160008573ffffffffffffffffffffffffffffffffffffffff1673ffffffffffffffffffffffffffffffffffffffff16815260200190815260200160002060008473ffffffffffffffffffffffffffffffffffffffff1673ffffffffffffffffffffffffffffffffffffffff168152602001908152602001600020819055508173ffffffffffffffffffffffffffffffffffffffff168373ffffffffffffffffffffffffffffffffffffffff167f8c5be1e5ebec7d5bd14f71427d1e84f3dd0314c0f7b2291e5b200ac8c7c3b925836040518082815260200191505060405180910390a3505050565b600073ffffffffffffffffffffffffffffffffffffffff168373ffffffffffffffffffffffffffffffffffffffff161415610cf2576040517f08c379a00000000000000000000000000000000000000000000000000000000081526004018080602001828103825260258152602001806111586025913960400191505060405180910390fd5b600073ffffffffffffffffffffffffffffffffffffffff168273ffffffffffffffffffffffffffffffffffffffff161415610d78576040517f08c379a00000000000000000000000000000000000000000000000000000000081526004018080602001828103825260238152602001806110c56023913960400191505060405180910390fd5b610d83838383610fed565b610dee8160405180606001604052806026815260200161110a602691396000808773ffffffffffffffffffffffffffffffffffffffff1673ffffffffffffffffffffffffffffffffffffffff16815260200190815260200160002054610f2d9092919063ffffffff16565b6000808573ffffffffffffffffffffffffffffffffffffffff1673ffffffffffffffffffffffffffffffffffffffff16815260200190815260200160002081905550610e81816000808573ffffffffffffffffffffffffffffffffffffffff1673ffffffffffffffffffffffffffffffffffffffff168152602001908152602001600020546109e090919063ffffffff16565b6000808473ffffffffffffffffffffffffffffffffffffffff1673ffffffffffffffffffffffffffffffffffffffff168152602001908152602001600020819055508173ffffffffffffffffffffffffffffffffffffffff168373ffffffffffffffffffffffffffffffffffffffff167fddf252ad1be2c89b69c2b068fc378daa952ba7f163c4a11628f55a4df523b3ef836040518082815260200191505060405180910390a3505050565b6000838311158290610fda576040517f08c379a00000000000000000000000000000000000000000000000000000000081526004018080602001828103825283818151815260200191508051906020019080838360005b83811015610f9f578082015181840152602081019050610f84565b50505050905090810190601f168015610fcc5780820380516001836020036101000a031916815260200191505b509250505060405180910390fd5b5060008385039050809150509392505050565b610ff8838383610a68565b600073ffffffffffffffffffffffffffffffffffffffff168373ffffffffffffffffffffffffffffffffffffffff1614156110bf5760065461104a8261103c6105cd565b6109e090919063ffffffff16565b11156110be576040517f08c379a00000000000000000000000000000000000000000000000000000000081526004018080602001828103825260198152602001807f45524332304361707065643a206361702065786365656465640000000000000081525060200191505060405180910390fd5b5b50505056fe45524332303a207472616e7366657220746f20746865207a65726f206164647265737345524332303a20617070726f766520746f20746865207a65726f206164647265737345524332303a207472616e7366657220616d6f756e7420657863656564732062616c616e636545524332303a207472616e7366657220616d6f756e74206578636565647320616c6c6f77616e636545524332303a207472616e736665722066726f6d20746865207a65726f206164647265737345524332303a20617070726f76652066726f6d20746865207a65726f206164647265737345524332303a2064656372656173656420616c6c6f77616e63652062656c6f77207a65726fa2646970667358221220795a50f91b4d054cc47d5ff4beeeba57088966c5c41dd53520a842824023e17f64736f6c634300060b0033536166654d6174683a206d756c7469706c69636174696f6e206f766572666c6f774f6e6c792070726576696f75736c792061646465642062656e656669636961726965732063616e206163636570742062656e65666963696172792072696768747342656e65666963696172792063616e206e6f7420626520746865207a65726f2061646472657373",
  "compiler": {
    "name": "solc",
    "version": "0.6.11+commit.5ef660b1.Emscripten.clang",
    "optimizer": {
      "enabled": false,
      "runs": 200
    },
    "evmVersion": "petersburg"
  }
}