{
  "fileName": "Dispenser.sol",
  "contractName": "Dispenser",
  "source": "// SPDX-License-Identifier: MIT\n\npragma solidity ^0.6.0;\n\nimport \"./DispensedToken.sol\";\nimport \"@openzeppelin/contracts/access/Ownable.sol\";\nimport \"@openzeppelin/contracts/math/SafeMath.sol\";\n\ncontract Dispenser is Ownable{\n\n    using SafeMath for uint256;\n    // deployment time, used for calculate current period and clims which limits to apply\n    uint public startTime;\n    // threshold after which there is no monetary policy and all founds are going to be released to beneficiary\n    uint public stopThresholdLimit;\n    uint public maxMonthlyLimit;\n    // beneficiary addresss is the onlyone who can be receipt of transfers from this contract\n    address public beneficiary;\n    // finalized flag, deactivates climingfunds after finilized DIspensingPeriod\n    bool public finalized;\n    // DispensedToken is an ERC20Capped token, which total supply is managed by this contract\n    DispensedToken public dispensedToken;\n    // each time beneficiare claimFunds, it updates lastClaimTime and allowanceDeacumulator\n    uint public lastClaimTime;\n    uint public allowanceDeacumulator;\n    uint public lastLimit;\n\n    // events\n    event dispenserPeriodFinalized (address beneficiary, uint reamainingAmount);\n    event dispenserPeriodFinalizedByOwner (uint remainingAmount);\n    event fundsClaimed(uint amount);\n    event newBeneficiary (address newBeneficiary);\n    event allowanceDeacumulatorRestarted (uint currentTime);\n    event toMuchCalimingFunds (uint _amount);\n\n    constructor(uint _cap, uint _stopThresholdLimit, address _beneficiary, uint _maxMonthlyLimit) public{\n        dispensedToken = new DispensedToken(_cap);\n        startTime = now;\n        stopThresholdLimit = _stopThresholdLimit;\n        maxMonthlyLimit = _maxMonthlyLimit;\n        finalized = false;\n        lastClaimTime = startTime;\n        beneficiary = _beneficiary;\n        allowanceDeacumulator = 0;\n        lastLimit = getMonthlyLimit(startTime);\n    }\n    // caluclates years of 360 days to be consistent when calculating months of 30 days\n    function getMonthlyLimit(uint givenTime) public view returns (uint){\n        uint transcurredYears = ((((givenTime.sub(startTime)).div(60)).div(60)).div(24)).div(360);\n        uint period = transcurredYears.div(4);\n        uint monthLimit = maxMonthlyLimit;\n        if (period < 1) {\n            // here transcurreYears could be 0,1,2 or 3\n            if (transcurredYears < 2) {\n                if (transcurredYears  < 1) {\n                    monthLimit = maxMonthlyLimit.div(10);\n                }\n                else{\n                    monthLimit = maxMonthlyLimit.div(4);\n                }\n            }\n            else{\n                if (transcurredYears < 3){\n                    monthLimit = maxMonthlyLimit.div(2);\n                }\n            }\n        }\n        else {\n            uint divideBy = 2 ** period;\n            monthLimit = monthLimit.div(divideBy);\n        }\n       return monthLimit;\n    }\n\n    // asume months of 30 days, consistent with years of 360 days\n     function getMonthsSinceStartTime (uint _givenTime) public view returns (uint) {\n        uint passedSeconds = (_givenTime.sub(startTime));\n        uint passedMonths = (((passedSeconds.div(60)).div(60)).div(24)).div(30);\n        return passedMonths;\n    }\n\n    //calculates how much remains to be claimed for current month, taking in account previous claimFunds performed this month\n    function getCurrentMonthUnclaimedFund() public view returns (uint){\n         uint nowTime = now;\n         uint currentLimit = getMonthlyLimit(nowTime);\n         if (isSameMonthThanLastClaim(nowTime)){\n            currentLimit = currentLimit.sub(allowanceDeacumulator);\n        }\n        return currentLimit;\n    }\n\n    // claimFunds assume than_amount is pased as interger, that's why it multiplies by 10 ** decimals after calling DSP transfer.\n    function claimFunds (uint _amount) public notFinalized {\n        require(beneficiary == msg.sender, 'Only accepted beneficiary addredss are allowed to claim founds');\n\n        // first check if allowanceDeacumulator needs to be restarted before using it\n        uint nowTime = now;\n        if (!isSameMonthThanLastClaim(nowTime)){\n            allowanceDeacumulator = 0;\n            lastLimit = getMonthlyLimit(nowTime);\n            emit allowanceDeacumulatorRestarted (nowTime);\n        }\n        // check if dispenser must be finilized\n        if (getMonthlyLimit(nowTime) <= stopThresholdLimit) {\n            finalize();\n            return;\n        }\n        // check that ammount under limits allowed limits alowed to be\n\n        if (_amount.add(allowanceDeacumulator) > lastLimit){\n            emit toMuchCalimingFunds (_amount);\n            return;\n        }\n\n        uint transferableAmount = _amount * ( uint(10) ** dispensedToken.decimals());\n        dispensedToken.transfer(beneficiary,transferableAmount);\n        allowanceDeacumulator += _amount;\n        lastClaimTime = nowTime;\n        emit fundsClaimed(transferableAmount);\n    }\n    // tells if current time is in the same monthly based range than the last claimFunds excuted\n    function isSameMonthThanLastClaim(uint _givenTime) public view returns (bool _yesOrNo) {\n        return (getMonthsSinceStartTime(_givenTime) == getMonthsSinceStartTime(lastClaimTime) );\n    }\n    // When dispensed period is manually finilized all reamining funds in the contract will be transfered to the Owner of Dispenser.\n    function finalizeDispensedPeriod () public onlyOwner notFinalized {\n        uint remainingAmount = dispensedToken.balanceOf(address(this));\n        dispensedToken.transfer(owner(),remainingAmount);\n        finalized = true;\n        emit dispenserPeriodFinalizedByOwner (remainingAmount);\n    }\n    // called when dispensed period is finalized by normal ending of dispensing period\n    function finalize () private notFinalized {\n        uint remainingAmount = dispensedToken.balanceOf(address(this));\n        dispensedToken.transfer(msg.sender,remainingAmount);\n        finalized = true;\n        emit dispenserPeriodFinalized (msg.sender,remainingAmount);\n    }\n    modifier notFinalized() {\n        require(!finalized,'This contract is not dispensing any more, dispensingPeriod has ended');\n        _;\n    }\n    function setBeneficiary (address _newBeneficiary) public onlyOwner {\n        require(_newBeneficiary != address(0), \"Beneficiary can not be the zero address\");\n        beneficiary = _newBeneficiary;\n        emit newBeneficiary(_newBeneficiary);\n    }\n}\n\n\n",
  "sourcePath": "contracts/Dispenser.sol",
  "abi": [
    {
      "inputs": [
        {
          "internalType": "uint256",
          "name": "_cap",
          "type": "uint256"
        },
        {
          "internalType": "uint256",
          "name": "_stopThresholdLimit",
          "type": "uint256"
        },
        {
          "internalType": "address",
          "name": "_beneficiary",
          "type": "address"
        },
        {
          "internalType": "uint256",
          "name": "_maxMonthlyLimit",
          "type": "uint256"
        }
      ],
      "stateMutability": "nonpayable",
      "type": "constructor"
    },
    {
      "anonymous": false,
      "inputs": [
        {
          "indexed": true,
          "internalType": "address",
          "name": "previousOwner",
          "type": "address"
        },
        {
          "indexed": true,
          "internalType": "address",
          "name": "newOwner",
          "type": "address"
        }
      ],
      "name": "OwnershipTransferred",
      "type": "event"
    },
    {
      "anonymous": false,
      "inputs": [
        {
          "indexed": false,
          "internalType": "uint256",
          "name": "currentTime",
          "type": "uint256"
        }
      ],
      "name": "allowanceDeacumulatorRestarted",
      "type": "event"
    },
    {
      "anonymous": false,
      "inputs": [
        {
          "indexed": false,
          "internalType": "address",
          "name": "beneficiary",
          "type": "address"
        },
        {
          "indexed": false,
          "internalType": "uint256",
          "name": "reamainingAmount",
          "type": "uint256"
        }
      ],
      "name": "dispenserPeriodFinalized",
      "type": "event"
    },
    {
      "anonymous": false,
      "inputs": [
        {
          "indexed": false,
          "internalType": "uint256",
          "name": "remainingAmount",
          "type": "uint256"
        }
      ],
      "name": "dispenserPeriodFinalizedByOwner",
      "type": "event"
    },
    {
      "anonymous": false,
      "inputs": [
        {
          "indexed": false,
          "internalType": "uint256",
          "name": "amount",
          "type": "uint256"
        }
      ],
      "name": "fundsClaimed",
      "type": "event"
    },
    {
      "anonymous": false,
      "inputs": [
        {
          "indexed": false,
          "internalType": "address",
          "name": "newBeneficiary",
          "type": "address"
        }
      ],
      "name": "newBeneficiary",
      "type": "event"
    },
    {
      "anonymous": false,
      "inputs": [
        {
          "indexed": false,
          "internalType": "uint256",
          "name": "_amount",
          "type": "uint256"
        }
      ],
      "name": "toMuchCalimingFunds",
      "type": "event"
    },
    {
      "inputs": [],
      "name": "allowanceDeacumulator",
      "outputs": [
        {
          "internalType": "uint256",
          "name": "",
          "type": "uint256"
        }
      ],
      "stateMutability": "view",
      "type": "function"
    },
    {
      "inputs": [],
      "name": "beneficiary",
      "outputs": [
        {
          "internalType": "address",
          "name": "",
          "type": "address"
        }
      ],
      "stateMutability": "view",
      "type": "function"
    },
    {
      "inputs": [
        {
          "internalType": "uint256",
          "name": "_amount",
          "type": "uint256"
        }
      ],
      "name": "claimFunds",
      "outputs": [],
      "stateMutability": "nonpayable",
      "type": "function"
    },
    {
      "inputs": [],
      "name": "dispensedToken",
      "outputs": [
        {
          "internalType": "contract DispensedToken",
          "name": "",
          "type": "address"
        }
      ],
      "stateMutability": "view",
      "type": "function"
    },
    {
      "inputs": [],
      "name": "finalizeDispensedPeriod",
      "outputs": [],
      "stateMutability": "nonpayable",
      "type": "function"
    },
    {
      "inputs": [],
      "name": "finalized",
      "outputs": [
        {
          "internalType": "bool",
          "name": "",
          "type": "bool"
        }
      ],
      "stateMutability": "view",
      "type": "function"
    },
    {
      "inputs": [],
      "name": "getCurrentMonthUnclaimedFund",
      "outputs": [
        {
          "internalType": "uint256",
          "name": "",
          "type": "uint256"
        }
      ],
      "stateMutability": "view",
      "type": "function"
    },
    {
      "inputs": [
        {
          "internalType": "uint256",
          "name": "givenTime",
          "type": "uint256"
        }
      ],
      "name": "getMonthlyLimit",
      "outputs": [
        {
          "internalType": "uint256",
          "name": "",
          "type": "uint256"
        }
      ],
      "stateMutability": "view",
      "type": "function"
    },
    {
      "inputs": [
        {
          "internalType": "uint256",
          "name": "_givenTime",
          "type": "uint256"
        }
      ],
      "name": "getMonthsSinceStartTime",
      "outputs": [
        {
          "internalType": "uint256",
          "name": "",
          "type": "uint256"
        }
      ],
      "stateMutability": "view",
      "type": "function"
    },
    {
      "inputs": [
        {
          "internalType": "uint256",
          "name": "_givenTime",
          "type": "uint256"
        }
      ],
      "name": "isSameMonthThanLastClaim",
      "outputs": [
        {
          "internalType": "bool",
          "name": "_yesOrNo",
          "type": "bool"
        }
      ],
      "stateMutability": "view",
      "type": "function"
    },
    {
      "inputs": [],
      "name": "lastClaimTime",
      "outputs": [
        {
          "internalType": "uint256",
          "name": "",
          "type": "uint256"
        }
      ],
      "stateMutability": "view",
      "type": "function"
    },
    {
      "inputs": [],
      "name": "lastLimit",
      "outputs": [
        {
          "internalType": "uint256",
          "name": "",
          "type": "uint256"
        }
      ],
      "stateMutability": "view",
      "type": "function"
    },
    {
      "inputs": [],
      "name": "maxMonthlyLimit",
      "outputs": [
        {
          "internalType": "uint256",
          "name": "",
          "type": "uint256"
        }
      ],
      "stateMutability": "view",
      "type": "function"
    },
    {
      "inputs": [],
      "name": "owner",
      "outputs": [
        {
          "internalType": "address",
          "name": "",
          "type": "address"
        }
      ],
      "stateMutability": "view",
      "type": "function"
    },
    {
      "inputs": [],
      "name": "renounceOwnership",
      "outputs": [],
      "stateMutability": "nonpayable",
      "type": "function"
    },
    {
      "inputs": [
        {
          "internalType": "address",
          "name": "_newBeneficiary",
          "type": "address"
        }
      ],
      "name": "setBeneficiary",
      "outputs": [],
      "stateMutability": "nonpayable",
      "type": "function"
    },
    {
      "inputs": [],
      "name": "startTime",
      "outputs": [
        {
          "internalType": "uint256",
          "name": "",
          "type": "uint256"
        }
      ],
      "stateMutability": "view",
      "type": "function"
    },
    {
      "inputs": [],
      "name": "stopThresholdLimit",
      "outputs": [
        {
          "internalType": "uint256",
          "name": "",
          "type": "uint256"
        }
      ],
      "stateMutability": "view",
      "type": "function"
    },
    {
      "inputs": [
        {
          "internalType": "address",
          "name": "newOwner",
          "type": "address"
        }
      ],
      "name": "transferOwnership",
      "outputs": [],
      "stateMutability": "nonpayable",
      "type": "function"
    }
  ],
  "bytecode": "0x60806040523480156200001157600080fd5b506040516200384138038062003841833981810160405260808110156200003757600080fd5b81019080805190602001909291908051906020019092919080519060200190929190805190602001909291905050506000620000786200023260201b60201c565b9050806000806101000a81548173ffffffffffffffffffffffffffffffffffffffff021916908373ffffffffffffffffffffffffffffffffffffffff1602179055508073ffffffffffffffffffffffffffffffffffffffff16600073ffffffffffffffffffffffffffffffffffffffff167f8be0079c531659141344cd1fd0a4f28419497f9722a3daafe3b4186f6b6457e060405160405180910390a350836040516200012590620005e8565b80828152602001915050604051809103906000f0801580156200014c573d6000803e3d6000fd5b50600560006101000a81548173ffffffffffffffffffffffffffffffffffffffff021916908373ffffffffffffffffffffffffffffffffffffffff1602179055504260018190555082600281905550806003819055506000600460146101000a81548160ff02191690831515021790555060015460068190555081600460006101000a81548173ffffffffffffffffffffffffffffffffffffffff021916908373ffffffffffffffffffffffffffffffffffffffff1602179055506000600781905550620002226001546200023a60201b60201c565b60088190555050505050620005f6565b600033905090565b600080620002c2610168620002ae60186200029a603c62000286603c620002726001548c620003b560201b620014041790919060201c565b6200040760201b6200144e1790919060201c565b6200040760201b6200144e1790919060201c565b6200040760201b6200144e1790919060201c565b6200040760201b6200144e1790919060201c565b90506000620002e16004836200040760201b6200144e1790919060201c565b905060006003549050600182101562000384576002831015620003535760018310156200032d5762000325600a6003546200040760201b6200144e1790919060201c565b90506200034d565b6200034a60046003546200040760201b6200144e1790919060201c565b90505b6200037e565b60038310156200037d576200037a60026003546200040760201b6200144e1790919060201c565b90505b5b620003aa565b60008260020a9050620003a681836200040760201b6200144e1790919060201c565b9150505b809350505050919050565b6000620003ff83836040518060400160405280601e81526020017f536166654d6174683a207375627472616374696f6e206f766572666c6f7700008152506200045960201b60201c565b905092915050565b60006200045183836040518060400160405280601a81526020017f536166654d6174683a206469766973696f6e206279207a65726f0000000000008152506200051d60201b60201c565b905092915050565b60008383111582906200050a576040517f08c379a00000000000000000000000000000000000000000000000000000000081526004018080602001828103825283818151815260200191508051906020019080838360005b83811015620004ce578082015181840152602081019050620004b1565b50505050905090810190601f168015620004fc5780820380516001836020036101000a031916815260200191505b509250505060405180910390fd5b5060008385039050809150509392505050565b60008083118290620005cd576040517f08c379a00000000000000000000000000000000000000000000000000000000081526004018080602001828103825283818151815260200191508051906020019080838360005b838110156200059157808201518184015260208101905062000574565b50505050905090810190601f168015620005bf5780820380516001836020036101000a031916815260200191505b509250505060405180910390fd5b506000838581620005da57fe5b049050809150509392505050565b6117d6806200206b83390190565b611a6580620006066000396000f3fe608060405234801561001057600080fd5b50600436106101215760003560e01c8063b3f05b97116100ad578063d037e68611610071578063d037e68614610384578063da138883146103c6578063e45f2e90146103e4578063f2fde38b1461042a578063fee2420c1461046e57610121565b8063b3f05b97146102d2578063b662ac7e146102f4578063bf63fa5f1461033e578063c21bae0c14610348578063ce7c30fa1461036657610121565b8063715018a6116100f4578063715018a61461022457806378e979251461022e5780637bd2ba9d1461024c5780638da5cb5b1461026a578063a49df0ee146102b457610121565b80631b55e338146101265780631c31f7101461015457806337b0035f1461019857806338af3eed146101da575b600080fd5b6101526004803603602081101561013c57600080fd5b810190808035906020019092919050505061048c565b005b6101966004803603602081101561016a57600080fd5b81019080803573ffffffffffffffffffffffffffffffffffffffff16906020019092919050505061087d565b005b6101c4600480360360208110156101ae57600080fd5b8101908080359060200190929190505050610a73565b6040518082815260200191505060405180910390f35b6101e2610ba1565b604051808273ffffffffffffffffffffffffffffffffffffffff1673ffffffffffffffffffffffffffffffffffffffff16815260200191505060405180910390f35b61022c610bc7565b005b610236610d4f565b6040518082815260200191505060405180910390f35b610254610d55565b6040518082815260200191505060405180910390f35b610272610d5b565b604051808273ffffffffffffffffffffffffffffffffffffffff1673ffffffffffffffffffffffffffffffffffffffff16815260200191505060405180910390f35b6102bc610d84565b6040518082815260200191505060405180910390f35b6102da610d8a565b604051808215151515815260200191505060405180910390f35b6102fc610d9d565b604051808273ffffffffffffffffffffffffffffffffffffffff1673ffffffffffffffffffffffffffffffffffffffff16815260200191505060405180910390f35b610346610dc3565b005b610350611111565b6040518082815260200191505060405180910390f35b61036e611117565b6040518082815260200191505060405180910390f35b6103b06004803603602081101561039a57600080fd5b810190808035906020019092919050505061111d565b6040518082815260200191505060405180910390f35b6103ce611192565b6040518082815260200191505060405180910390f35b610410600480360360208110156103fa57600080fd5b81019080803590602001909291905050506111d3565b604051808215151515815260200191505060405180910390f35b61046c6004803603602081101561044057600080fd5b81019080803573ffffffffffffffffffffffffffffffffffffffff1690602001909291905050506111f1565b005b6104766113fe565b6040518082815260200191505060405180910390f35b600460149054906101000a900460ff16156104f2576040517f08c379a00000000000000000000000000000000000000000000000000000000081526004018080602001828103825260448152602001806119c56044913960600191505060405180910390fd5b3373ffffffffffffffffffffffffffffffffffffffff16600460009054906101000a900473ffffffffffffffffffffffffffffffffffffffff1673ffffffffffffffffffffffffffffffffffffffff1614610598576040517f08c379a000000000000000000000000000000000000000000000000000000000815260040180806020018281038252603e815260200180611961603e913960400191505060405180910390fd5b60004290506105a6816111d3565b6105f95760006007819055506105bb81610a73565b6008819055507f8200a5bc33e46621e74fc577c35b157bc60b588fdb36e3de7a6a389d66458d6e816040518082815260200191505060405180910390a15b60025461060582610a73565b1161061857610612611498565b5061087a565b6008546106306007548461174a90919063ffffffff16565b1115610673577f864c9fee9eab08ff4729f62bc1bcf49e7a2e79f969990e70c8e0ddc6b01157c8826040518082815260200191505060405180910390a15061087a565b6000600560009054906101000a900473ffffffffffffffffffffffffffffffffffffffff1673ffffffffffffffffffffffffffffffffffffffff1663313ce5676040518163ffffffff1660e01b815260040160206040518083038186803b1580156106dd57600080fd5b505afa1580156106f1573d6000803e3d6000fd5b505050506040513d602081101561070757600080fd5b810190808051906020019092919050505060ff16600a0a83029050600560009054906101000a900473ffffffffffffffffffffffffffffffffffffffff1673ffffffffffffffffffffffffffffffffffffffff1663a9059cbb600460009054906101000a900473ffffffffffffffffffffffffffffffffffffffff16836040518363ffffffff1660e01b8152600401808373ffffffffffffffffffffffffffffffffffffffff1673ffffffffffffffffffffffffffffffffffffffff16815260200182815260200192505050602060405180830381600087803b1580156107ed57600080fd5b505af1158015610801573d6000803e3d6000fd5b505050506040513d602081101561081757600080fd5b81019080805190602001909291905050505082600760008282540192505081905550816006819055507f157285b9313653699d558e16cfa2fb129fd608799ca7c4d60fb35ed95948c315816040518082815260200191505060405180910390a150505b50565b6108856117d2565b73ffffffffffffffffffffffffffffffffffffffff166000809054906101000a900473ffffffffffffffffffffffffffffffffffffffff1673ffffffffffffffffffffffffffffffffffffffff1614610946576040517f08c379a00000000000000000000000000000000000000000000000000000000081526004018080602001828103825260208152602001807f4f776e61626c653a2063616c6c6572206973206e6f7420746865206f776e657281525060200191505060405180910390fd5b600073ffffffffffffffffffffffffffffffffffffffff168173ffffffffffffffffffffffffffffffffffffffff1614156109cc576040517f08c379a0000000000000000000000000000000000000000000000000000000008152600401808060200182810382526027815260200180611a096027913960400191505060405180910390fd5b80600460006101000a81548173ffffffffffffffffffffffffffffffffffffffff021916908373ffffffffffffffffffffffffffffffffffffffff1602179055507f507959e1ada0f8f9c52e611de019eca14471ef2edde89c8f6fabb655c30ec09881604051808273ffffffffffffffffffffffffffffffffffffffff1673ffffffffffffffffffffffffffffffffffffffff16815260200191505060405180910390a150565b600080610ad8610168610aca6018610abc603c610aae603c610aa06001548c61140490919063ffffffff16565b61144e90919063ffffffff16565b61144e90919063ffffffff16565b61144e90919063ffffffff16565b61144e90919063ffffffff16565b90506000610af060048361144e90919063ffffffff16565b9050600060035490506001821015610b77576002831015610b4f576001831015610b3157610b2a600a60035461144e90919063ffffffff16565b9050610b4a565b610b47600460035461144e90919063ffffffff16565b90505b610b72565b6003831015610b7157610b6e600260035461144e90919063ffffffff16565b90505b5b610b96565b60008260020a9050610b92818361144e90919063ffffffff16565b9150505b809350505050919050565b600460009054906101000a900473ffffffffffffffffffffffffffffffffffffffff1681565b610bcf6117d2565b73ffffffffffffffffffffffffffffffffffffffff166000809054906101000a900473ffffffffffffffffffffffffffffffffffffffff1673ffffffffffffffffffffffffffffffffffffffff1614610c90576040517f08c379a00000000000000000000000000000000000000000000000000000000081526004018080602001828103825260208152602001807f4f776e61626c653a2063616c6c6572206973206e6f7420746865206f776e657281525060200191505060405180910390fd5b600073ffffffffffffffffffffffffffffffffffffffff166000809054906101000a900473ffffffffffffffffffffffffffffffffffffffff1673ffffffffffffffffffffffffffffffffffffffff167f8be0079c531659141344cd1fd0a4f28419497f9722a3daafe3b4186f6b6457e060405160405180910390a360008060006101000a81548173ffffffffffffffffffffffffffffffffffffffff021916908373ffffffffffffffffffffffffffffffffffffffff160217905550565b60015481565b60075481565b60008060009054906101000a900473ffffffffffffffffffffffffffffffffffffffff16905090565b60085481565b600460149054906101000a900460ff1681565b600560009054906101000a900473ffffffffffffffffffffffffffffffffffffffff1681565b610dcb6117d2565b73ffffffffffffffffffffffffffffffffffffffff166000809054906101000a900473ffffffffffffffffffffffffffffffffffffffff1673ffffffffffffffffffffffffffffffffffffffff1614610e8c576040517f08c379a00000000000000000000000000000000000000000000000000000000081526004018080602001828103825260208152602001807f4f776e61626c653a2063616c6c6572206973206e6f7420746865206f776e657281525060200191505060405180910390fd5b600460149054906101000a900460ff1615610ef2576040517f08c379a00000000000000000000000000000000000000000000000000000000081526004018080602001828103825260448152602001806119c56044913960600191505060405180910390fd5b6000600560009054906101000a900473ffffffffffffffffffffffffffffffffffffffff1673ffffffffffffffffffffffffffffffffffffffff166370a08231306040518263ffffffff1660e01b8152600401808273ffffffffffffffffffffffffffffffffffffffff1673ffffffffffffffffffffffffffffffffffffffff16815260200191505060206040518083038186803b158015610f9357600080fd5b505afa158015610fa7573d6000803e3d6000fd5b505050506040513d6020811015610fbd57600080fd5b81019080805190602001909291905050509050600560009054906101000a900473ffffffffffffffffffffffffffffffffffffffff1673ffffffffffffffffffffffffffffffffffffffff1663a9059cbb611016610d5b565b836040518363ffffffff1660e01b8152600401808373ffffffffffffffffffffffffffffffffffffffff1673ffffffffffffffffffffffffffffffffffffffff16815260200182815260200192505050602060405180830381600087803b15801561108057600080fd5b505af1158015611094573d6000803e3d6000fd5b505050506040513d60208110156110aa57600080fd5b8101908080519060200190929190505050506001600460146101000a81548160ff0219169083151502179055507f17cb7b74414991a77ccd51744c6be58d224bf175e5a1e25272298c01dbc68960816040518082815260200191505060405180910390a150565b60065481565b60025481565b6000806111356001548461140490919063ffffffff16565b90506000611186601e611178601861116a603c61115c603c8961144e90919063ffffffff16565b61144e90919063ffffffff16565b61144e90919063ffffffff16565b61144e90919063ffffffff16565b90508092505050919050565b60008042905060006111a382610a73565b90506111ae826111d3565b156111cb576111c86007548261140490919063ffffffff16565b90505b809250505090565b60006111e060065461111d565b6111e98361111d565b149050919050565b6111f96117d2565b73ffffffffffffffffffffffffffffffffffffffff166000809054906101000a900473ffffffffffffffffffffffffffffffffffffffff1673ffffffffffffffffffffffffffffffffffffffff16146112ba576040517f08c379a00000000000000000000000000000000000000000000000000000000081526004018080602001828103825260208152602001807f4f776e61626c653a2063616c6c6572206973206e6f7420746865206f776e657281525060200191505060405180910390fd5b600073ffffffffffffffffffffffffffffffffffffffff168173ffffffffffffffffffffffffffffffffffffffff161415611340576040517f08c379a000000000000000000000000000000000000000000000000000000000815260040180806020018281038252602681526020018061199f6026913960400191505060405180910390fd5b8073ffffffffffffffffffffffffffffffffffffffff166000809054906101000a900473ffffffffffffffffffffffffffffffffffffffff1673ffffffffffffffffffffffffffffffffffffffff167f8be0079c531659141344cd1fd0a4f28419497f9722a3daafe3b4186f6b6457e060405160405180910390a3806000806101000a81548173ffffffffffffffffffffffffffffffffffffffff021916908373ffffffffffffffffffffffffffffffffffffffff16021790555050565b60035481565b600061144683836040518060400160405280601e81526020017f536166654d6174683a207375627472616374696f6e206f766572666c6f7700008152506117da565b905092915050565b600061149083836040518060400160405280601a81526020017f536166654d6174683a206469766973696f6e206279207a65726f00000000000081525061189a565b905092915050565b600460149054906101000a900460ff16156114fe576040517f08c379a00000000000000000000000000000000000000000000000000000000081526004018080602001828103825260448152602001806119c56044913960600191505060405180910390fd5b6000600560009054906101000a900473ffffffffffffffffffffffffffffffffffffffff1673ffffffffffffffffffffffffffffffffffffffff166370a08231306040518263ffffffff1660e01b8152600401808273ffffffffffffffffffffffffffffffffffffffff1673ffffffffffffffffffffffffffffffffffffffff16815260200191505060206040518083038186803b15801561159f57600080fd5b505afa1580156115b3573d6000803e3d6000fd5b505050506040513d60208110156115c957600080fd5b81019080805190602001909291905050509050600560009054906101000a900473ffffffffffffffffffffffffffffffffffffffff1673ffffffffffffffffffffffffffffffffffffffff1663a9059cbb33836040518363ffffffff1660e01b8152600401808373ffffffffffffffffffffffffffffffffffffffff1673ffffffffffffffffffffffffffffffffffffffff16815260200182815260200192505050602060405180830381600087803b15801561168557600080fd5b505af1158015611699573d6000803e3d6000fd5b505050506040513d60208110156116af57600080fd5b8101908080519060200190929190505050506001600460146101000a81548160ff0219169083151502179055507f8201b0b4712d2e1abec15790ef6e233a95380b29d6c0c01d595644570002205c3382604051808373ffffffffffffffffffffffffffffffffffffffff1673ffffffffffffffffffffffffffffffffffffffff1681526020018281526020019250505060405180910390a150565b6000808284019050838110156117c8576040517f08c379a000000000000000000000000000000000000000000000000000000000815260040180806020018281038252601b8152602001807f536166654d6174683a206164646974696f6e206f766572666c6f77000000000081525060200191505060405180910390fd5b8091505092915050565b600033905090565b6000838311158290611887576040517f08c379a00000000000000000000000000000000000000000000000000000000081526004018080602001828103825283818151815260200191508051906020019080838360005b8381101561184c578082015181840152602081019050611831565b50505050905090810190601f1680156118795780820380516001836020036101000a031916815260200191505b509250505060405180910390fd5b5060008385039050809150509392505050565b60008083118290611946576040517f08c379a00000000000000000000000000000000000000000000000000000000081526004018080602001828103825283818151815260200191508051906020019080838360005b8381101561190b5780820151818401526020810190506118f0565b50505050905090810190601f1680156119385780820380516001836020036101000a031916815260200191505b509250505060405180910390fd5b50600083858161195257fe5b04905080915050939250505056fe4f6e6c792061636365707465642062656e65666963696172792061646472656473732061726520616c6c6f77656420746f20636c61696d20666f756e64734f776e61626c653a206e6577206f776e657220697320746865207a65726f20616464726573735468697320636f6e7472616374206973206e6f742064697370656e73696e6720616e79206d6f72652c2064697370656e73696e67506572696f642068617320656e64656442656e65666963696172792063616e206e6f7420626520746865207a65726f2061646472657373a2646970667358221220e6facb3ab90a54e78a4124e613aa2d54454d828d5c60143b847c59a7243872c464736f6c634300060b003360806040523480156200001157600080fd5b50604051620017d6380380620017d6833981810160405260208110156200003757600080fd5b8101908080519060200190929190505050670de0b6b3a764000081026040518060400160405280600f81526020017f44697370656e73656420546f6b656e00000000000000000000000000000000008152506040518060400160405280600381526020017f44535000000000000000000000000000000000000000000000000000000000008152508160039080519060200190620000d79291906200051c565b508060049080519060200190620000f09291906200051c565b506012600560006101000a81548160ff021916908360ff16021790555050506000811162000186576040517f08c379a00000000000000000000000000000000000000000000000000000000081526004018080602001828103825260158152602001807f45524332304361707065643a206361702069732030000000000000000000000081525060200191505060405180910390fd5b8060068190555050620001aa33670de0b6b3a76400008302620001b160201b60201c565b50620005cb565b600073ffffffffffffffffffffffffffffffffffffffff168273ffffffffffffffffffffffffffffffffffffffff16141562000255576040517f08c379a000000000000000000000000000000000000000000000000000000000815260040180806020018281038252601f8152602001807f45524332303a206d696e7420746f20746865207a65726f20616464726573730081525060200191505060405180910390fd5b62000269600083836200038f60201b60201c565b62000285816002546200048460201b620009e01790919060201c565b600281905550620002e3816000808573ffffffffffffffffffffffffffffffffffffffff1673ffffffffffffffffffffffffffffffffffffffff168152602001908152602001600020546200048460201b620009e01790919060201c565b6000808473ffffffffffffffffffffffffffffffffffffffff1673ffffffffffffffffffffffffffffffffffffffff168152602001908152602001600020819055508173ffffffffffffffffffffffffffffffffffffffff16600073ffffffffffffffffffffffffffffffffffffffff167fddf252ad1be2c89b69c2b068fc378daa952ba7f163c4a11628f55a4df523b3ef836040518082815260200191505060405180910390a35050565b620003a78383836200050d60201b62000a681760201c565b600073ffffffffffffffffffffffffffffffffffffffff168373ffffffffffffffffffffffffffffffffffffffff1614156200047f576006546200040982620003f56200051260201b60201c565b6200048460201b620009e01790919060201c565b11156200047e576040517f08c379a00000000000000000000000000000000000000000000000000000000081526004018080602001828103825260198152602001807f45524332304361707065643a206361702065786365656465640000000000000081525060200191505060405180910390fd5b5b505050565b60008082840190508381101562000503576040517f08c379a000000000000000000000000000000000000000000000000000000000815260040180806020018281038252601b8152602001807f536166654d6174683a206164646974696f6e206f766572666c6f77000000000081525060200191505060405180910390fd5b8091505092915050565b505050565b6000600254905090565b828054600181600116156101000203166002900490600052602060002090601f016020900481019282601f106200055f57805160ff191683800117855562000590565b8280016001018555821562000590579182015b828111156200058f57825182559160200191906001019062000572565b5b5090506200059f9190620005a3565b5090565b620005c891905b80821115620005c4576000816000905550600101620005aa565b5090565b90565b6111fb80620005db6000396000f3fe608060405234801561001057600080fd5b50600436106100b45760003560e01c80633950935111610071578063395093511461028857806370a08231146102ee57806395d89b4114610346578063a457c2d7146103c9578063a9059cbb1461042f578063dd62ed3e14610495576100b4565b806306fdde03146100b9578063095ea7b31461013c57806318160ddd146101a257806323b872dd146101c0578063313ce56714610246578063355274ea1461026a575b600080fd5b6100c161050d565b6040518080602001828103825283818151815260200191508051906020019080838360005b838110156101015780820151818401526020810190506100e6565b50505050905090810190601f16801561012e5780820380516001836020036101000a031916815260200191505b509250505060405180910390f35b6101886004803603604081101561015257600080fd5b81019080803573ffffffffffffffffffffffffffffffffffffffff169060200190929190803590602001909291905050506105af565b604051808215151515815260200191505060405180910390f35b6101aa6105cd565b6040518082815260200191505060405180910390f35b61022c600480360360608110156101d657600080fd5b81019080803573ffffffffffffffffffffffffffffffffffffffff169060200190929190803573ffffffffffffffffffffffffffffffffffffffff169060200190929190803590602001909291905050506105d7565b604051808215151515815260200191505060405180910390f35b61024e6106b0565b604051808260ff1660ff16815260200191505060405180910390f35b6102726106c7565b6040518082815260200191505060405180910390f35b6102d46004803603604081101561029e57600080fd5b81019080803573ffffffffffffffffffffffffffffffffffffffff169060200190929190803590602001909291905050506106d1565b604051808215151515815260200191505060405180910390f35b6103306004803603602081101561030457600080fd5b81019080803573ffffffffffffffffffffffffffffffffffffffff169060200190929190505050610784565b6040518082815260200191505060405180910390f35b61034e6107cc565b6040518080602001828103825283818151815260200191508051906020019080838360005b8381101561038e578082015181840152602081019050610373565b50505050905090810190601f1680156103bb5780820380516001836020036101000a031916815260200191505b509250505060405180910390f35b610415600480360360408110156103df57600080fd5b81019080803573ffffffffffffffffffffffffffffffffffffffff1690602001909291908035906020019092919050505061086e565b604051808215151515815260200191505060405180910390f35b61047b6004803603604081101561044557600080fd5b81019080803573ffffffffffffffffffffffffffffffffffffffff1690602001909291908035906020019092919050505061093b565b604051808215151515815260200191505060405180910390f35b6104f7600480360360408110156104ab57600080fd5b81019080803573ffffffffffffffffffffffffffffffffffffffff169060200190929190803573ffffffffffffffffffffffffffffffffffffffff169060200190929190505050610959565b6040518082815260200191505060405180910390f35b606060038054600181600116156101000203166002900480601f0160208091040260200160405190810160405280929190818152602001828054600181600116156101000203166002900480156105a55780601f1061057a576101008083540402835291602001916105a5565b820191906000526020600020905b81548152906001019060200180831161058857829003601f168201915b5050505050905090565b60006105c36105bc610a6d565b8484610a75565b6001905092915050565b6000600254905090565b60006105e4848484610c6c565b6106a5846105f0610a6d565b6106a08560405180606001604052806028815260200161113060289139600160008b73ffffffffffffffffffffffffffffffffffffffff1673ffffffffffffffffffffffffffffffffffffffff1681526020019081526020016000206000610656610a6d565b73ffffffffffffffffffffffffffffffffffffffff1673ffffffffffffffffffffffffffffffffffffffff16815260200190815260200160002054610f2d9092919063ffffffff16565b610a75565b600190509392505050565b6000600560009054906101000a900460ff16905090565b6000600654905090565b600061077a6106de610a6d565b8461077585600160006106ef610a6d565b73ffffffffffffffffffffffffffffffffffffffff1673ffffffffffffffffffffffffffffffffffffffff16815260200190815260200160002060008973ffffffffffffffffffffffffffffffffffffffff1673ffffffffffffffffffffffffffffffffffffffff168152602001908152602001600020546109e090919063ffffffff16565b610a75565b6001905092915050565b60008060008373ffffffffffffffffffffffffffffffffffffffff1673ffffffffffffffffffffffffffffffffffffffff168152602001908152602001600020549050919050565b606060048054600181600116156101000203166002900480601f0160208091040260200160405190810160405280929190818152602001828054600181600116156101000203166002900480156108645780601f1061083957610100808354040283529160200191610864565b820191906000526020600020905b81548152906001019060200180831161084757829003601f168201915b5050505050905090565b600061093161087b610a6d565b8461092c856040518060600160405280602581526020016111a160259139600160006108a5610a6d565b73ffffffffffffffffffffffffffffffffffffffff1673ffffffffffffffffffffffffffffffffffffffff16815260200190815260200160002060008a73ffffffffffffffffffffffffffffffffffffffff1673ffffffffffffffffffffffffffffffffffffffff16815260200190815260200160002054610f2d9092919063ffffffff16565b610a75565b6001905092915050565b600061094f610948610a6d565b8484610c6c565b6001905092915050565b6000600160008473ffffffffffffffffffffffffffffffffffffffff1673ffffffffffffffffffffffffffffffffffffffff16815260200190815260200160002060008373ffffffffffffffffffffffffffffffffffffffff1673ffffffffffffffffffffffffffffffffffffffff16815260200190815260200160002054905092915050565b600080828401905083811015610a5e576040517f08c379a000000000000000000000000000000000000000000000000000000000815260040180806020018281038252601b8152602001807f536166654d6174683a206164646974696f6e206f766572666c6f77000000000081525060200191505060405180910390fd5b8091505092915050565b505050565b600033905090565b600073ffffffffffffffffffffffffffffffffffffffff168373ffffffffffffffffffffffffffffffffffffffff161415610afb576040517f08c379a000000000000000000000000000000000000000000000000000000000815260040180806020018281038252602481526020018061117d6024913960400191505060405180910390fd5b600073ffffffffffffffffffffffffffffffffffffffff168273ffffffffffffffffffffffffffffffffffffffff161415610b81576040517f08c379a00000000000000000000000000000000000000000000000000000000081526004018080602001828103825260228152602001806110e86022913960400191505060405180910390fd5b80600160008573ffffffffffffffffffffffffffffffffffffffff1673ffffffffffffffffffffffffffffffffffffffff16815260200190815260200160002060008473ffffffffffffffffffffffffffffffffffffffff1673ffffffffffffffffffffffffffffffffffffffff168152602001908152602001600020819055508173ffffffffffffffffffffffffffffffffffffffff168373ffffffffffffffffffffffffffffffffffffffff167f8c5be1e5ebec7d5bd14f71427d1e84f3dd0314c0f7b2291e5b200ac8c7c3b925836040518082815260200191505060405180910390a3505050565b600073ffffffffffffffffffffffffffffffffffffffff168373ffffffffffffffffffffffffffffffffffffffff161415610cf2576040517f08c379a00000000000000000000000000000000000000000000000000000000081526004018080602001828103825260258152602001806111586025913960400191505060405180910390fd5b600073ffffffffffffffffffffffffffffffffffffffff168273ffffffffffffffffffffffffffffffffffffffff161415610d78576040517f08c379a00000000000000000000000000000000000000000000000000000000081526004018080602001828103825260238152602001806110c56023913960400191505060405180910390fd5b610d83838383610fed565b610dee8160405180606001604052806026815260200161110a602691396000808773ffffffffffffffffffffffffffffffffffffffff1673ffffffffffffffffffffffffffffffffffffffff16815260200190815260200160002054610f2d9092919063ffffffff16565b6000808573ffffffffffffffffffffffffffffffffffffffff1673ffffffffffffffffffffffffffffffffffffffff16815260200190815260200160002081905550610e81816000808573ffffffffffffffffffffffffffffffffffffffff1673ffffffffffffffffffffffffffffffffffffffff168152602001908152602001600020546109e090919063ffffffff16565b6000808473ffffffffffffffffffffffffffffffffffffffff1673ffffffffffffffffffffffffffffffffffffffff168152602001908152602001600020819055508173ffffffffffffffffffffffffffffffffffffffff168373ffffffffffffffffffffffffffffffffffffffff167fddf252ad1be2c89b69c2b068fc378daa952ba7f163c4a11628f55a4df523b3ef836040518082815260200191505060405180910390a3505050565b6000838311158290610fda576040517f08c379a00000000000000000000000000000000000000000000000000000000081526004018080602001828103825283818151815260200191508051906020019080838360005b83811015610f9f578082015181840152602081019050610f84565b50505050905090810190601f168015610fcc5780820380516001836020036101000a031916815260200191505b509250505060405180910390fd5b5060008385039050809150509392505050565b610ff8838383610a68565b600073ffffffffffffffffffffffffffffffffffffffff168373ffffffffffffffffffffffffffffffffffffffff1614156110bf5760065461104a8261103c6105cd565b6109e090919063ffffffff16565b11156110be576040517f08c379a00000000000000000000000000000000000000000000000000000000081526004018080602001828103825260198152602001807f45524332304361707065643a206361702065786365656465640000000000000081525060200191505060405180910390fd5b5b50505056fe45524332303a207472616e7366657220746f20746865207a65726f206164647265737345524332303a20617070726f766520746f20746865207a65726f206164647265737345524332303a207472616e7366657220616d6f756e7420657863656564732062616c616e636545524332303a207472616e7366657220616d6f756e74206578636565647320616c6c6f77616e636545524332303a207472616e736665722066726f6d20746865207a65726f206164647265737345524332303a20617070726f76652066726f6d20746865207a65726f206164647265737345524332303a2064656372656173656420616c6c6f77616e63652062656c6f77207a65726fa2646970667358221220795a50f91b4d054cc47d5ff4beeeba57088966c5c41dd53520a842824023e17f64736f6c634300060b0033",
  "compiler": {
    "name": "solc",
    "version": "0.6.11+commit.5ef660b1.Emscripten.clang",
    "optimizer": {
      "enabled": false,
      "runs": 200
    },
    "evmVersion": "petersburg"
  }
}