{
  "fileName": "Dispenser.sol",
  "contractName": "Dispenser",
  "source": "// SPDX-License-Identifier: MIT\n\npragma solidity ^0.6.0;\n\n\nimport \"./DispensedToken.sol\";\nimport \"@openzeppelin/contracts/access/Ownable.sol\";\nimport \"@openzeppelin/contracts/math/SafeMath.sol\";\n\ncontract Dispenser is Ownable{\n\n    using SafeMath for uint256;\n    // deployment time, used for calculate current period and clims which limits to apply\n    uint public startTime;\n    // threshold after which there is no monetary policy and all founds are going to be released to beneficiary\n    uint public stopThresholdLimit;\n    // beneficiary addresss is the onlyone who can be receipt of transfers from this contract\n    bool public finalized;\n    // beneficiaries are addresss that can claimfunds if they has been added by owner, accepted by themselves, and didn't renounce to be beneficiaries\n    mapping(address => Beneficiary) public beneficiaries;\n    struct Beneficiary {\n        bool isAdded;\n        bool isAccepted;\n    }\n\n    // DispensedToken is an ERC20Capped token, which total supply is managed by this contract\n    DispensedToken public dispensedToken;\n    // Bidimentional array to store raimaing allowed withdrawals per months\n    uint[12][29] public limits;\n\n    // events\n    event beneficiaryInvited(address indexed invitedBeneficiary);\n    event beneficiaryRemoved(address indexed deletedBeneficiary);\n    event benficiaryRightsAccepted (address indexed newBeneficiary);\n    event benficiaryRightsRenounced (address indexed newBeneficiary);\n\n    event dispenserPeriodFinilized (uint reamainingAmount);\n    event fundsClaimed(uint amount);\n\n    constructor() public{\n        dispensedToken = new DispensedToken();\n        startTime = now;\n        stopThresholdLimit = 100;\n        finalized = false;\n        populateLimits();\n        addBeneficiary(msg.sender);\n        acceptBeneficiaryRights();\n    }\n\n    function populateLimits () private {\n        // months dinamic limits are just hardcoded, as it doesn't change in original problem domain.\n        populateSingleYear(1,1000);\n        populateSingleYear(2,2500);\n        populateSingleYear(3,5000);\n        populateSingleYear(4,10000);\n        // from year five we charge periods of 4 years dividin limits by 2on each period, like \"bitcoin monetary policy\"\n        populateBySatoshiMonetaryPolicy(5,5000);\n    }\n\n    function populateBySatoshiMonetaryPolicy(uint _startpoint, uint _initialamount) private {\n        uint allowed = _initialamount;\n        uint period = 0;\n        do {\n            for (uint i = 0; i < 4; i++) {\n                populateSingleYear((_startpoint.add(period)).add(i),allowed);\n            }\n            period = period.add(4);// + 4;\n            allowed = allowed.div(2);// /2;\n        } while (allowed > stopThresholdLimit);\n    }\n\n    // here the convertion is just to fit number of decimals defined Dispensed token\n    // the function asummes the argument received represents an integer amount of DSP\n    function populateSingleYear (uint _yearorder, uint _limit) private {\n        uint limit = _limit.mul((uint(10)) ** dispensedToken.decimals());\n\n        for (uint i = 0; i < 12; i++) {\n                //index year in year-1 because the first year is represented in 0 index array\n                limits[_yearorder.sub(1)][i] = limit;\n            }\n    }\n\n    function getYearAndMonths (uint _time) public view returns (uint _year,uint _month){\n        // this is the number of years between two timestamps in seconds, assuming years have 360 days for simplification\n         //((((_time - startTime ) / 60 ) / 60 ) / 24 ) / 360;\n        uint yea = ((((_time.sub(startTime)).div(60)).div(60)).div(24)).div(360);\n        // this is how many months\n        //((((( _time - startTime ) / 60 ) / 60 ) / 24 ) / 30 ) - yea*12;\n        uint all_monts = ((((_time.sub(startTime)).div(60)).div(60)).div(24)).div(30);\n        uint mon = all_monts.sub(yea.mul(12));\n        return (yea,mon);\n    }\n\n    //this function is being created just for cheking array state\n    function getCurrentMonthUnclaimedFund() public view returns (uint remainingAllowed){\n        (uint y, uint m) = getYearAndMonths(now);\n        return limits[y][m];\n    }\n\n    function getMonthUnclaimedFund(uint y, uint m) public view returns (uint _remining_funds) {\n        require (m <= 12, 'month not allowed more than 12');\n        require (0 < m, 'month not allowed more less than zero');\n        require (y <= 28, 'year should not be more than 28');\n        require (0 < y, 'year should not be more than 28');\n        return (limits[y.sub(1)][m.sub(1)]);\n    }\n\n    function claimFunds (uint _amount) public notFinalized {\n        require(isAcceptedBeneficiary(msg.sender), 'Only accepted beneficiary addredss are allowed to claim founds');\n        (uint y, uint m) = getYearAndMonths(now);\n    //    assert (y>28 && m >12) emitir evento de finalización y liberar todos los fondos\n        require(_amount <= limits[y][m], 'You are trying to withdraw more than remaining allowed this month');\n        address beneficiary = msg.sender;\n        dispensedToken.transfer(beneficiary, _amount);\n        limits[y][m] = limits[y][m] - _amount;\n        emit fundsClaimed(_amount);\n\n    }\n\n    // When dispensed period os finilized all reamining funds in the contract will be transfered to the Owner of the contract.\n    function finalizeDispensedPeriod () public onlyOwner notFinalized {\n        uint remainingAmount = dispensedToken.balanceOf(address(this));\n        dispensedToken.transfer(owner(),remainingAmount);\n        finalized = true;\n        emit dispenserPeriodFinilized (remainingAmount);\n\n    }\n    modifier notFinalized() {\n        require(!finalized, \"This contract is not dispensing any more, dispensed period has ended\");\n        _;\n    }\n\n\n    /**\n     * only owner operations regarding beneficiaries: add and remove\n     */\n    function addBeneficiary (address _newBeneficiary) public onlyOwner returns (bool success){\n        require(_newBeneficiary != address(0), \"Beneficiary can not be the zero address\");\n        beneficiaries[_newBeneficiary].isAdded = true;\n        emit beneficiaryInvited(_newBeneficiary);\n        return true;\n    }\n    function removeBeneficiary (address _deletedBeneficiary) public onlyOwner returns (bool success){\n        require(_deletedBeneficiary != address(0), \"Beneficiary can not be the zero address\");\n        beneficiaries[_deletedBeneficiary].isAdded = false;\n        emit beneficiaryRemoved(_deletedBeneficiary);\n        return true;\n    }\n\n     /**\n     * Beneficiaries can accept or renounce their rigth to claim funds, just if they has been previusly added by owner\n     */\n    function acceptBeneficiaryRights () public returns (bool _success){\n        require( isAddedBeneficiary(msg.sender), \"Only previously added beneficiaries can accept beneficiary rights\");\n        beneficiaries[msg.sender].isAccepted = true;\n        emit benficiaryRightsAccepted(msg.sender);\n        return true;\n    }\n    function renounceBeneficiaryRights() public returns (bool _success) {\n        require(isAcceptedBeneficiary(msg.sender), 'Only an accepted beneficiaries can renounce beneficiary rights');\n        beneficiaries[msg.sender].isAccepted = false;\n        emit benficiaryRightsRenounced(msg.sender);\n        return true;\n    }\n\n    //  any addres can check if beneficiaries has been added by owner\n    function isAddedBeneficiary(address _beneficiary) public view returns (bool _isadded){\n        return beneficiaries[_beneficiary].isAdded;\n    }\n    function isAcceptedBeneficiary(address _beneficiary) public view returns (bool _isaccepted){\n        return (beneficiaries[_beneficiary].isAdded && beneficiaries[_beneficiary].isAccepted);\n    }\n    \n    // remove this before deploy, is just for testing \n    function checkLimitsArrays ( uint _1, uint _2) public view returns (uint _value1)  {\n        return (limits[_1][_2]);\n    }\n\n}\n\n\n",
  "sourcePath": "contracts/Dispenser.sol",
  "abi": [
    {
      "inputs": [],
      "stateMutability": "nonpayable",
      "type": "constructor"
    },
    {
      "anonymous": false,
      "inputs": [
        {
          "indexed": true,
          "internalType": "address",
          "name": "previousOwner",
          "type": "address"
        },
        {
          "indexed": true,
          "internalType": "address",
          "name": "newOwner",
          "type": "address"
        }
      ],
      "name": "OwnershipTransferred",
      "type": "event"
    },
    {
      "anonymous": false,
      "inputs": [
        {
          "indexed": true,
          "internalType": "address",
          "name": "invitedBeneficiary",
          "type": "address"
        }
      ],
      "name": "beneficiaryInvited",
      "type": "event"
    },
    {
      "anonymous": false,
      "inputs": [
        {
          "indexed": true,
          "internalType": "address",
          "name": "deletedBeneficiary",
          "type": "address"
        }
      ],
      "name": "beneficiaryRemoved",
      "type": "event"
    },
    {
      "anonymous": false,
      "inputs": [
        {
          "indexed": true,
          "internalType": "address",
          "name": "newBeneficiary",
          "type": "address"
        }
      ],
      "name": "benficiaryRightsAccepted",
      "type": "event"
    },
    {
      "anonymous": false,
      "inputs": [
        {
          "indexed": true,
          "internalType": "address",
          "name": "newBeneficiary",
          "type": "address"
        }
      ],
      "name": "benficiaryRightsRenounced",
      "type": "event"
    },
    {
      "anonymous": false,
      "inputs": [
        {
          "indexed": false,
          "internalType": "uint256",
          "name": "reamainingAmount",
          "type": "uint256"
        }
      ],
      "name": "dispenserPeriodFinilized",
      "type": "event"
    },
    {
      "anonymous": false,
      "inputs": [
        {
          "indexed": false,
          "internalType": "uint256",
          "name": "amount",
          "type": "uint256"
        }
      ],
      "name": "fundsClaimed",
      "type": "event"
    },
    {
      "inputs": [],
      "name": "acceptBeneficiaryRights",
      "outputs": [
        {
          "internalType": "bool",
          "name": "_success",
          "type": "bool"
        }
      ],
      "stateMutability": "nonpayable",
      "type": "function"
    },
    {
      "inputs": [
        {
          "internalType": "address",
          "name": "_newBeneficiary",
          "type": "address"
        }
      ],
      "name": "addBeneficiary",
      "outputs": [
        {
          "internalType": "bool",
          "name": "success",
          "type": "bool"
        }
      ],
      "stateMutability": "nonpayable",
      "type": "function"
    },
    {
      "inputs": [
        {
          "internalType": "address",
          "name": "",
          "type": "address"
        }
      ],
      "name": "beneficiaries",
      "outputs": [
        {
          "internalType": "bool",
          "name": "isAdded",
          "type": "bool"
        },
        {
          "internalType": "bool",
          "name": "isAccepted",
          "type": "bool"
        }
      ],
      "stateMutability": "view",
      "type": "function"
    },
    {
      "inputs": [
        {
          "internalType": "uint256",
          "name": "_1",
          "type": "uint256"
        },
        {
          "internalType": "uint256",
          "name": "_2",
          "type": "uint256"
        }
      ],
      "name": "checkLimitsArrays",
      "outputs": [
        {
          "internalType": "uint256",
          "name": "_value1",
          "type": "uint256"
        }
      ],
      "stateMutability": "view",
      "type": "function"
    },
    {
      "inputs": [
        {
          "internalType": "uint256",
          "name": "_amount",
          "type": "uint256"
        }
      ],
      "name": "claimFunds",
      "outputs": [],
      "stateMutability": "nonpayable",
      "type": "function"
    },
    {
      "inputs": [],
      "name": "dispensedToken",
      "outputs": [
        {
          "internalType": "contract DispensedToken",
          "name": "",
          "type": "address"
        }
      ],
      "stateMutability": "view",
      "type": "function"
    },
    {
      "inputs": [],
      "name": "finalizeDispensedPeriod",
      "outputs": [],
      "stateMutability": "nonpayable",
      "type": "function"
    },
    {
      "inputs": [],
      "name": "finalized",
      "outputs": [
        {
          "internalType": "bool",
          "name": "",
          "type": "bool"
        }
      ],
      "stateMutability": "view",
      "type": "function"
    },
    {
      "inputs": [],
      "name": "getCurrentMonthUnclaimedFund",
      "outputs": [
        {
          "internalType": "uint256",
          "name": "remainingAllowed",
          "type": "uint256"
        }
      ],
      "stateMutability": "view",
      "type": "function"
    },
    {
      "inputs": [
        {
          "internalType": "uint256",
          "name": "y",
          "type": "uint256"
        },
        {
          "internalType": "uint256",
          "name": "m",
          "type": "uint256"
        }
      ],
      "name": "getMonthUnclaimedFund",
      "outputs": [
        {
          "internalType": "uint256",
          "name": "_remining_funds",
          "type": "uint256"
        }
      ],
      "stateMutability": "view",
      "type": "function"
    },
    {
      "inputs": [
        {
          "internalType": "uint256",
          "name": "_time",
          "type": "uint256"
        }
      ],
      "name": "getYearAndMonths",
      "outputs": [
        {
          "internalType": "uint256",
          "name": "_year",
          "type": "uint256"
        },
        {
          "internalType": "uint256",
          "name": "_month",
          "type": "uint256"
        }
      ],
      "stateMutability": "view",
      "type": "function"
    },
    {
      "inputs": [
        {
          "internalType": "address",
          "name": "_beneficiary",
          "type": "address"
        }
      ],
      "name": "isAcceptedBeneficiary",
      "outputs": [
        {
          "internalType": "bool",
          "name": "_isaccepted",
          "type": "bool"
        }
      ],
      "stateMutability": "view",
      "type": "function"
    },
    {
      "inputs": [
        {
          "internalType": "address",
          "name": "_beneficiary",
          "type": "address"
        }
      ],
      "name": "isAddedBeneficiary",
      "outputs": [
        {
          "internalType": "bool",
          "name": "_isadded",
          "type": "bool"
        }
      ],
      "stateMutability": "view",
      "type": "function"
    },
    {
      "inputs": [
        {
          "internalType": "uint256",
          "name": "",
          "type": "uint256"
        },
        {
          "internalType": "uint256",
          "name": "",
          "type": "uint256"
        }
      ],
      "name": "limits",
      "outputs": [
        {
          "internalType": "uint256",
          "name": "",
          "type": "uint256"
        }
      ],
      "stateMutability": "view",
      "type": "function"
    },
    {
      "inputs": [],
      "name": "owner",
      "outputs": [
        {
          "internalType": "address",
          "name": "",
          "type": "address"
        }
      ],
      "stateMutability": "view",
      "type": "function"
    },
    {
      "inputs": [
        {
          "internalType": "address",
          "name": "_deletedBeneficiary",
          "type": "address"
        }
      ],
      "name": "removeBeneficiary",
      "outputs": [
        {
          "internalType": "bool",
          "name": "success",
          "type": "bool"
        }
      ],
      "stateMutability": "nonpayable",
      "type": "function"
    },
    {
      "inputs": [],
      "name": "renounceBeneficiaryRights",
      "outputs": [
        {
          "internalType": "bool",
          "name": "_success",
          "type": "bool"
        }
      ],
      "stateMutability": "nonpayable",
      "type": "function"
    },
    {
      "inputs": [],
      "name": "renounceOwnership",
      "outputs": [],
      "stateMutability": "nonpayable",
      "type": "function"
    },
    {
      "inputs": [],
      "name": "startTime",
      "outputs": [
        {
          "internalType": "uint256",
          "name": "",
          "type": "uint256"
        }
      ],
      "stateMutability": "view",
      "type": "function"
    },
    {
      "inputs": [],
      "name": "stopThresholdLimit",
      "outputs": [
        {
          "internalType": "uint256",
          "name": "",
          "type": "uint256"
        }
      ],
      "stateMutability": "view",
      "type": "function"
    },
    {
      "inputs": [
        {
          "internalType": "address",
          "name": "newOwner",
          "type": "address"
        }
      ],
      "name": "transferOwnership",
      "outputs": [],
      "stateMutability": "nonpayable",
      "type": "function"
    }
  ],
  "bytecode": "0x60806040523480156200001157600080fd5b506000620000246200019160201b60201c565b9050806000806101000a81548173ffffffffffffffffffffffffffffffffffffffff021916908373ffffffffffffffffffffffffffffffffffffffff1602179055508073ffffffffffffffffffffffffffffffffffffffff16600073ffffffffffffffffffffffffffffffffffffffff167f8be0079c531659141344cd1fd0a4f28419497f9722a3daafe3b4186f6b6457e060405160405180910390a350604051620000d09062000a99565b604051809103906000f080158015620000ed573d6000803e3d6000fd5b50600560006101000a81548173ffffffffffffffffffffffffffffffffffffffff021916908373ffffffffffffffffffffffffffffffffffffffff1602179055504260018190555060646002819055506000600360006101000a81548160ff021916908315150217905550620001686200019960201b60201c565b62000179336200020460201b60201c565b506200018a6200040760201b60201c565b5062000aa7565b600033905090565b620001ae60016103e86200051660201b60201c565b620001c360026109c46200051660201b60201c565b620001d860036113886200051660201b60201c565b620001ed60046127106200051660201b60201c565b6200020260056113886200064160201b60201c565b565b6000620002166200019160201b60201c565b73ffffffffffffffffffffffffffffffffffffffff166000809054906101000a900473ffffffffffffffffffffffffffffffffffffffff1673ffffffffffffffffffffffffffffffffffffffff1614620002d8576040517f08c379a00000000000000000000000000000000000000000000000000000000081526004018080602001828103825260208152602001807f4f776e61626c653a2063616c6c6572206973206e6f7420746865206f776e657281525060200191505060405180910390fd5b600073ffffffffffffffffffffffffffffffffffffffff168273ffffffffffffffffffffffffffffffffffffffff16141562000360576040517f08c379a0000000000000000000000000000000000000000000000000000000008152600401808060200182810382526027815260200180620042ea6027913960400191505060405180910390fd5b6001600460008473ffffffffffffffffffffffffffffffffffffffff1673ffffffffffffffffffffffffffffffffffffffff16815260200190815260200160002060000160006101000a81548160ff0219169083151502179055508173ffffffffffffffffffffffffffffffffffffffff167f025a4d7ec48208448a9920d510dfbd14b8fe653a5bc2d546befebb7077a245ca60405160405180910390a260019050919050565b60006200041a33620006f960201b60201c565b62000471576040517f08c379a0000000000000000000000000000000000000000000000000000000008152600401808060200182810382526041815260200180620042a96041913960600191505060405180910390fd5b6001600460003373ffffffffffffffffffffffffffffffffffffffff1673ffffffffffffffffffffffffffffffffffffffff16815260200190815260200160002060000160016101000a81548160ff0219169083151502179055503373ffffffffffffffffffffffffffffffffffffffff167f1e22723a2ccdf0d724c774e94588ab04a8e2fc543684df5f5956100405970d5c60405160405180910390a26001905090565b6000620005dd600560009054906101000a900473ffffffffffffffffffffffffffffffffffffffff1673ffffffffffffffffffffffffffffffffffffffff1663313ce5676040518163ffffffff1660e01b815260040160206040518083038186803b1580156200058557600080fd5b505afa1580156200059a573d6000803e3d6000fd5b505050506040513d6020811015620005b157600080fd5b810190808051906020019092919050505060ff16600a0a836200075260201b62001af71790919060201c565b905060008090505b600c8110156200063b578160066200060d600187620007dd60201b62001b7d1790919060201c565b601d81106200061857fe5b600c020182600c81106200062857fe5b01819055508080600101915050620005e5565b50505050565b600081905060008090505b60008090505b6004811015620006ae57620006a062000693826200067f85896200082f60201b62001bc71790919060201c565b6200082f60201b62001bc71790919060201c565b846200051660201b60201c565b808060010191505062000652565b50620006ca6004826200082f60201b62001bc71790919060201c565b9050620006e7600283620008b860201b62001c4f1790919060201c565b915060025482116200064c5750505050565b6000600460008373ffffffffffffffffffffffffffffffffffffffff1673ffffffffffffffffffffffffffffffffffffffff16815260200190815260200160002060000160009054906101000a900460ff169050919050565b600080831415620007675760009050620007d7565b60008284029050828482816200077957fe5b0414620007d2576040517f08c379a0000000000000000000000000000000000000000000000000000000008152600401808060200182810382526021815260200180620042886021913960400191505060405180910390fd5b809150505b92915050565b60006200082783836040518060400160405280601e81526020017f536166654d6174683a207375627472616374696f6e206f766572666c6f7700008152506200090a60201b60201c565b905092915050565b600080828401905083811015620008ae576040517f08c379a000000000000000000000000000000000000000000000000000000000815260040180806020018281038252601b8152602001807f536166654d6174683a206164646974696f6e206f766572666c6f77000000000081525060200191505060405180910390fd5b8091505092915050565b60006200090283836040518060400160405280601a81526020017f536166654d6174683a206469766973696f6e206279207a65726f000000000000815250620009ce60201b60201c565b905092915050565b6000838311158290620009bb576040517f08c379a00000000000000000000000000000000000000000000000000000000081526004018080602001828103825283818151815260200191508051906020019080838360005b838110156200097f57808201518184015260208101905062000962565b50505050905090810190601f168015620009ad5780820380516001836020036101000a031916815260200191505b509250505060405180910390fd5b5060008385039050809150509392505050565b6000808311829062000a7e576040517f08c379a00000000000000000000000000000000000000000000000000000000081526004018080602001828103825283818151815260200191508051906020019080838360005b8381101562000a4257808201518184015260208101905062000a25565b50505050905090810190601f16801562000a705780820380516001836020036101000a031916815260200191505b509250505060405180910390fd5b50600083858162000a8b57fe5b049050809150509392505050565b61179f8062002ae983390190565b6120328062000ab76000396000f3fe608060405234801561001057600080fd5b50600436106101375760003560e01c80638da5cb5b116100b8578063bed56c3e1161007c578063bed56c3e146104e8578063bf63fa5f14610534578063ce7c30fa1461053e578063da1388831461055c578063f2fde38b1461057a578063fcaf599c146105be57610137565b80638da5cb5b1461038d578063ab1ef4c5146103d7578063b3f05b9714610420578063b662ac7e14610442578063b98d6feb1461048c57610137565b80635926651d116100ff5780635926651d1461028b57806359633a1c146102e757806366b7472d14610343578063715018a61461036557806378e979251461036f57610137565b8063015677391461013c5780631b55e338146101a35780631cff2f67146101d15780632635c0811461021d5780633593960f14610269575b600080fd5b61017e6004803603602081101561015257600080fd5b81019080803573ffffffffffffffffffffffffffffffffffffffff16906020019092919050505061061a565b6040518083151515158152602001821515151581526020019250505060405180910390f35b6101cf600480360360208110156101b957600080fd5b8101908080359060200190929190505050610658565b005b610207600480360360408110156101e757600080fd5b81019080803590602001909291908035906020019092919050505061090a565b6040518082815260200191505060405180910390f35b6102536004803603604081101561023357600080fd5b810190808035906020019092919080359060200190929190505050610932565b6040518082815260200191505060405180910390f35b610271610b3d565b604051808215151515815260200191505060405180910390f35b6102cd600480360360208110156102a157600080fd5b81019080803573ffffffffffffffffffffffffffffffffffffffff169060200190929190505050610c42565b604051808215151515815260200191505060405180910390f35b610329600480360360208110156102fd57600080fd5b81019080803573ffffffffffffffffffffffffffffffffffffffff169060200190929190505050610e3a565b604051808215151515815260200191505060405180910390f35b61034b611032565b604051808215151515815260200191505060405180910390f35b61036d611137565b005b6103776112bf565b6040518082815260200191505060405180910390f35b6103956112c5565b604051808273ffffffffffffffffffffffffffffffffffffffff1673ffffffffffffffffffffffffffffffffffffffff16815260200191505060405180910390f35b610403600480360360208110156103ed57600080fd5b81019080803590602001909291905050506112ee565b604051808381526020018281526020019250505060405180910390f35b6104286113f4565b604051808215151515815260200191505060405180910390f35b61044a611407565b604051808273ffffffffffffffffffffffffffffffffffffffff1673ffffffffffffffffffffffffffffffffffffffff16815260200191505060405180910390f35b6104ce600480360360208110156104a257600080fd5b81019080803573ffffffffffffffffffffffffffffffffffffffff16906020019092919050505061142d565b604051808215151515815260200191505060405180910390f35b61051e600480360360408110156104fe57600080fd5b8101908080359060200190929190803590602001909291905050506114de565b6040518082815260200191505060405180910390f35b61053c611506565b005b610546611854565b6040518082815260200191505060405180910390f35b61056461185a565b6040518082815260200191505060405180910390f35b6105bc6004803603602081101561059057600080fd5b81019080803573ffffffffffffffffffffffffffffffffffffffff169060200190929190505050611891565b005b610600600480360360208110156105d457600080fd5b81019080803573ffffffffffffffffffffffffffffffffffffffff169060200190929190505050611a9e565b604051808215151515815260200191505060405180910390f35b60046020528060005260406000206000915090508060000160009054906101000a900460ff16908060000160019054906101000a900460ff16905082565b600360009054906101000a900460ff16156106be576040517f08c379a0000000000000000000000000000000000000000000000000000000008152600401808060200182810382526044815260200180611f926044913960600191505060405180910390fd5b6106c73361142d565b61071c576040517f08c379a000000000000000000000000000000000000000000000000000000000815260040180806020018281038252603e815260200180611e28603e913960400191505060405180910390fd5b600080610728426112ee565b91509150600682601d811061073957fe5b600c020181600c811061074857fe5b01548311156107a2576040517f08c379a0000000000000000000000000000000000000000000000000000000008152600401808060200182810382526041815260200180611eca6041913960600191505060405180910390fd5b6000339050600560009054906101000a900473ffffffffffffffffffffffffffffffffffffffff1673ffffffffffffffffffffffffffffffffffffffff1663a9059cbb82866040518363ffffffff1660e01b8152600401808373ffffffffffffffffffffffffffffffffffffffff1673ffffffffffffffffffffffffffffffffffffffff16815260200182815260200192505050602060405180830381600087803b15801561085057600080fd5b505af1158015610864573d6000803e3d6000fd5b505050506040513d602081101561087a57600080fd5b81019080805190602001909291905050505083600684601d811061089a57fe5b600c020183600c81106108a957fe5b015403600684601d81106108b957fe5b600c020183600c81106108c857fe5b01819055507f157285b9313653699d558e16cfa2fb129fd608799ca7c4d60fb35ed95948c315846040518082815260200191505060405180910390a150505050565b6000600683601d811061091957fe5b600c020182600c811061092857fe5b0154905092915050565b6000600c8211156109ab576040517f08c379a000000000000000000000000000000000000000000000000000000000815260040180806020018281038252601e8152602001807f6d6f6e7468206e6f7420616c6c6f776564206d6f7265207468616e203132000081525060200191505060405180910390fd5b81600010610a04576040517f08c379a0000000000000000000000000000000000000000000000000000000008152600401808060200182810382526025815260200180611f0b6025913960400191505060405180910390fd5b601c831115610a7b576040517f08c379a000000000000000000000000000000000000000000000000000000000815260040180806020018281038252601f8152602001807f796561722073686f756c64206e6f74206265206d6f7265207468616e2032380081525060200191505060405180910390fd5b82600010610af1576040517f08c379a000000000000000000000000000000000000000000000000000000000815260040180806020018281038252601f8152602001807f796561722073686f756c64206e6f74206265206d6f7265207468616e2032380081525060200191505060405180910390fd5b6006610b07600185611b7d90919063ffffffff16565b601d8110610b1157fe5b600c0201610b29600184611b7d90919063ffffffff16565b600c8110610b3357fe5b0154905092915050565b6000610b4833611a9e565b610b9d576040517f08c379a0000000000000000000000000000000000000000000000000000000008152600401808060200182810382526041815260200180611f516041913960600191505060405180910390fd5b6001600460003373ffffffffffffffffffffffffffffffffffffffff1673ffffffffffffffffffffffffffffffffffffffff16815260200190815260200160002060000160016101000a81548160ff0219169083151502179055503373ffffffffffffffffffffffffffffffffffffffff167f1e22723a2ccdf0d724c774e94588ab04a8e2fc543684df5f5956100405970d5c60405160405180910390a26001905090565b6000610c4c611c99565b73ffffffffffffffffffffffffffffffffffffffff166000809054906101000a900473ffffffffffffffffffffffffffffffffffffffff1673ffffffffffffffffffffffffffffffffffffffff1614610d0d576040517f08c379a00000000000000000000000000000000000000000000000000000000081526004018080602001828103825260208152602001807f4f776e61626c653a2063616c6c6572206973206e6f7420746865206f776e657281525060200191505060405180910390fd5b600073ffffffffffffffffffffffffffffffffffffffff168273ffffffffffffffffffffffffffffffffffffffff161415610d93576040517f08c379a0000000000000000000000000000000000000000000000000000000008152600401808060200182810382526027815260200180611fd66027913960400191505060405180910390fd5b6001600460008473ffffffffffffffffffffffffffffffffffffffff1673ffffffffffffffffffffffffffffffffffffffff16815260200190815260200160002060000160006101000a81548160ff0219169083151502179055508173ffffffffffffffffffffffffffffffffffffffff167f025a4d7ec48208448a9920d510dfbd14b8fe653a5bc2d546befebb7077a245ca60405160405180910390a260019050919050565b6000610e44611c99565b73ffffffffffffffffffffffffffffffffffffffff166000809054906101000a900473ffffffffffffffffffffffffffffffffffffffff1673ffffffffffffffffffffffffffffffffffffffff1614610f05576040517f08c379a00000000000000000000000000000000000000000000000000000000081526004018080602001828103825260208152602001807f4f776e61626c653a2063616c6c6572206973206e6f7420746865206f776e657281525060200191505060405180910390fd5b600073ffffffffffffffffffffffffffffffffffffffff168273ffffffffffffffffffffffffffffffffffffffff161415610f8b576040517f08c379a0000000000000000000000000000000000000000000000000000000008152600401808060200182810382526027815260200180611fd66027913960400191505060405180910390fd5b6000600460008473ffffffffffffffffffffffffffffffffffffffff1673ffffffffffffffffffffffffffffffffffffffff16815260200190815260200160002060000160006101000a81548160ff0219169083151502179055508173ffffffffffffffffffffffffffffffffffffffff167f47ffdb75c3f9a349dbba9889334b34625a80b80fd495aafd24b5f6c7b93c1fb460405160405180910390a260019050919050565b600061103d3361142d565b611092576040517f08c379a000000000000000000000000000000000000000000000000000000000815260040180806020018281038252603e815260200180611e8c603e913960400191505060405180910390fd5b6000600460003373ffffffffffffffffffffffffffffffffffffffff1673ffffffffffffffffffffffffffffffffffffffff16815260200190815260200160002060000160016101000a81548160ff0219169083151502179055503373ffffffffffffffffffffffffffffffffffffffff167f34d818f388b46e0a4cab73456fc40c25d88c77ce4553bdd0606a35aa9876d62d60405160405180910390a26001905090565b61113f611c99565b73ffffffffffffffffffffffffffffffffffffffff166000809054906101000a900473ffffffffffffffffffffffffffffffffffffffff1673ffffffffffffffffffffffffffffffffffffffff1614611200576040517f08c379a00000000000000000000000000000000000000000000000000000000081526004018080602001828103825260208152602001807f4f776e61626c653a2063616c6c6572206973206e6f7420746865206f776e657281525060200191505060405180910390fd5b600073ffffffffffffffffffffffffffffffffffffffff166000809054906101000a900473ffffffffffffffffffffffffffffffffffffffff1673ffffffffffffffffffffffffffffffffffffffff167f8be0079c531659141344cd1fd0a4f28419497f9722a3daafe3b4186f6b6457e060405160405180910390a360008060006101000a81548173ffffffffffffffffffffffffffffffffffffffff021916908373ffffffffffffffffffffffffffffffffffffffff160217905550565b60015481565b60008060009054906101000a900473ffffffffffffffffffffffffffffffffffffffff16905090565b60008060006113556101686113476018611339603c61132b603c61131d6001548d611b7d90919063ffffffff16565b611c4f90919063ffffffff16565b611c4f90919063ffffffff16565b611c4f90919063ffffffff16565b611c4f90919063ffffffff16565b905060006113ba601e6113ac601861139e603c611390603c6113826001548e611b7d90919063ffffffff16565b611c4f90919063ffffffff16565b611c4f90919063ffffffff16565b611c4f90919063ffffffff16565b611c4f90919063ffffffff16565b905060006113e46113d5600c85611af790919063ffffffff16565b83611b7d90919063ffffffff16565b9050828194509450505050915091565b600360009054906101000a900460ff1681565b600560009054906101000a900473ffffffffffffffffffffffffffffffffffffffff1681565b6000600460008373ffffffffffffffffffffffffffffffffffffffff1673ffffffffffffffffffffffffffffffffffffffff16815260200190815260200160002060000160009054906101000a900460ff1680156114d75750600460008373ffffffffffffffffffffffffffffffffffffffff1673ffffffffffffffffffffffffffffffffffffffff16815260200190815260200160002060000160019054906101000a900460ff165b9050919050565b600682601d81106114eb57fe5b600c020181600c81106114fa57fe5b01600091509150505481565b61150e611c99565b73ffffffffffffffffffffffffffffffffffffffff166000809054906101000a900473ffffffffffffffffffffffffffffffffffffffff1673ffffffffffffffffffffffffffffffffffffffff16146115cf576040517f08c379a00000000000000000000000000000000000000000000000000000000081526004018080602001828103825260208152602001807f4f776e61626c653a2063616c6c6572206973206e6f7420746865206f776e657281525060200191505060405180910390fd5b600360009054906101000a900460ff1615611635576040517f08c379a0000000000000000000000000000000000000000000000000000000008152600401808060200182810382526044815260200180611f926044913960600191505060405180910390fd5b6000600560009054906101000a900473ffffffffffffffffffffffffffffffffffffffff1673ffffffffffffffffffffffffffffffffffffffff166370a08231306040518263ffffffff1660e01b8152600401808273ffffffffffffffffffffffffffffffffffffffff1673ffffffffffffffffffffffffffffffffffffffff16815260200191505060206040518083038186803b1580156116d657600080fd5b505afa1580156116ea573d6000803e3d6000fd5b505050506040513d602081101561170057600080fd5b81019080805190602001909291905050509050600560009054906101000a900473ffffffffffffffffffffffffffffffffffffffff1673ffffffffffffffffffffffffffffffffffffffff1663a9059cbb6117596112c5565b836040518363ffffffff1660e01b8152600401808373ffffffffffffffffffffffffffffffffffffffff1673ffffffffffffffffffffffffffffffffffffffff16815260200182815260200192505050602060405180830381600087803b1580156117c357600080fd5b505af11580156117d7573d6000803e3d6000fd5b505050506040513d60208110156117ed57600080fd5b8101908080519060200190929190505050506001600360006101000a81548160ff0219169083151502179055507f76ef602ebd64634793bd9eb3868521634ddc6128fb744f4c5ff54601320ae61e816040518082815260200191505060405180910390a150565b60025481565b6000806000611868426112ee565b91509150600682601d811061187957fe5b600c020181600c811061188857fe5b01549250505090565b611899611c99565b73ffffffffffffffffffffffffffffffffffffffff166000809054906101000a900473ffffffffffffffffffffffffffffffffffffffff1673ffffffffffffffffffffffffffffffffffffffff161461195a576040517f08c379a00000000000000000000000000000000000000000000000000000000081526004018080602001828103825260208152602001807f4f776e61626c653a2063616c6c6572206973206e6f7420746865206f776e657281525060200191505060405180910390fd5b600073ffffffffffffffffffffffffffffffffffffffff168173ffffffffffffffffffffffffffffffffffffffff1614156119e0576040517f08c379a0000000000000000000000000000000000000000000000000000000008152600401808060200182810382526026815260200180611e666026913960400191505060405180910390fd5b8073ffffffffffffffffffffffffffffffffffffffff166000809054906101000a900473ffffffffffffffffffffffffffffffffffffffff1673ffffffffffffffffffffffffffffffffffffffff167f8be0079c531659141344cd1fd0a4f28419497f9722a3daafe3b4186f6b6457e060405160405180910390a3806000806101000a81548173ffffffffffffffffffffffffffffffffffffffff021916908373ffffffffffffffffffffffffffffffffffffffff16021790555050565b6000600460008373ffffffffffffffffffffffffffffffffffffffff1673ffffffffffffffffffffffffffffffffffffffff16815260200190815260200160002060000160009054906101000a900460ff169050919050565b600080831415611b0a5760009050611b77565b6000828402905082848281611b1b57fe5b0414611b72576040517f08c379a0000000000000000000000000000000000000000000000000000000008152600401808060200182810382526021815260200180611f306021913960400191505060405180910390fd5b809150505b92915050565b6000611bbf83836040518060400160405280601e81526020017f536166654d6174683a207375627472616374696f6e206f766572666c6f770000815250611ca1565b905092915050565b600080828401905083811015611c45576040517f08c379a000000000000000000000000000000000000000000000000000000000815260040180806020018281038252601b8152602001807f536166654d6174683a206164646974696f6e206f766572666c6f77000000000081525060200191505060405180910390fd5b8091505092915050565b6000611c9183836040518060400160405280601a81526020017f536166654d6174683a206469766973696f6e206279207a65726f000000000000815250611d61565b905092915050565b600033905090565b6000838311158290611d4e576040517f08c379a00000000000000000000000000000000000000000000000000000000081526004018080602001828103825283818151815260200191508051906020019080838360005b83811015611d13578082015181840152602081019050611cf8565b50505050905090810190601f168015611d405780820380516001836020036101000a031916815260200191505b509250505060405180910390fd5b5060008385039050809150509392505050565b60008083118290611e0d576040517f08c379a00000000000000000000000000000000000000000000000000000000081526004018080602001828103825283818151815260200191508051906020019080838360005b83811015611dd2578082015181840152602081019050611db7565b50505050905090810190601f168015611dff5780820380516001836020036101000a031916815260200191505b509250505060405180910390fd5b506000838581611e1957fe5b04905080915050939250505056fe4f6e6c792061636365707465642062656e65666963696172792061646472656473732061726520616c6c6f77656420746f20636c61696d20666f756e64734f776e61626c653a206e6577206f776e657220697320746865207a65726f20616464726573734f6e6c7920616e2061636365707465642062656e656669636961726965732063616e2072656e6f756e63652062656e656669636961727920726967687473596f752061726520747279696e6720746f207769746864726177206d6f7265207468616e2072656d61696e696e6720616c6c6f7765642074686973206d6f6e74686d6f6e7468206e6f7420616c6c6f776564206d6f7265206c657373207468616e207a65726f536166654d6174683a206d756c7469706c69636174696f6e206f766572666c6f774f6e6c792070726576696f75736c792061646465642062656e656669636961726965732063616e206163636570742062656e6566696369617279207269676874735468697320636f6e7472616374206973206e6f742064697370656e73696e6720616e79206d6f72652c2064697370656e73656420706572696f642068617320656e64656442656e65666963696172792063616e206e6f7420626520746865207a65726f2061646472657373a26469706673582212209502c9f24d1465f3cc0196f5452d3929d78bc84b9eb22c6bc1d1c097a5d8dc7d64736f6c634300060b003360806040523480156200001157600080fd5b5069943b1377290cbd8000006040518060400160405280600f81526020017f44697370656e73656420546f6b656e00000000000000000000000000000000008152506040518060400160405280600381526020017f44535000000000000000000000000000000000000000000000000000000000008152508160039080519060200190620000a1929190620004e5565b508060049080519060200190620000ba929190620004e5565b506012600560006101000a81548160ff021916908360ff16021790555050506000811162000150576040517f08c379a00000000000000000000000000000000000000000000000000000000081526004018080602001828103825260158152602001807f45524332304361707065643a206361702069732030000000000000000000000081525060200191505060405180910390fd5b8060068190555050620001743369943b1377290cbd8000006200017a60201b60201c565b62000594565b600073ffffffffffffffffffffffffffffffffffffffff168273ffffffffffffffffffffffffffffffffffffffff1614156200021e576040517f08c379a000000000000000000000000000000000000000000000000000000000815260040180806020018281038252601f8152602001807f45524332303a206d696e7420746f20746865207a65726f20616464726573730081525060200191505060405180910390fd5b62000232600083836200035860201b60201c565b6200024e816002546200044d60201b620009e01790919060201c565b600281905550620002ac816000808573ffffffffffffffffffffffffffffffffffffffff1673ffffffffffffffffffffffffffffffffffffffff168152602001908152602001600020546200044d60201b620009e01790919060201c565b6000808473ffffffffffffffffffffffffffffffffffffffff1673ffffffffffffffffffffffffffffffffffffffff168152602001908152602001600020819055508173ffffffffffffffffffffffffffffffffffffffff16600073ffffffffffffffffffffffffffffffffffffffff167fddf252ad1be2c89b69c2b068fc378daa952ba7f163c4a11628f55a4df523b3ef836040518082815260200191505060405180910390a35050565b62000370838383620004d660201b62000a681760201c565b600073ffffffffffffffffffffffffffffffffffffffff168373ffffffffffffffffffffffffffffffffffffffff1614156200044857600654620003d282620003be620004db60201b60201c565b6200044d60201b620009e01790919060201c565b111562000447576040517f08c379a00000000000000000000000000000000000000000000000000000000081526004018080602001828103825260198152602001807f45524332304361707065643a206361702065786365656465640000000000000081525060200191505060405180910390fd5b5b505050565b600080828401905083811015620004cc576040517f08c379a000000000000000000000000000000000000000000000000000000000815260040180806020018281038252601b8152602001807f536166654d6174683a206164646974696f6e206f766572666c6f77000000000081525060200191505060405180910390fd5b8091505092915050565b505050565b6000600254905090565b828054600181600116156101000203166002900490600052602060002090601f016020900481019282601f106200052857805160ff191683800117855562000559565b8280016001018555821562000559579182015b82811115620005585782518255916020019190600101906200053b565b5b5090506200056891906200056c565b5090565b6200059191905b808211156200058d57600081600090555060010162000573565b5090565b90565b6111fb80620005a46000396000f3fe608060405234801561001057600080fd5b50600436106100b45760003560e01c80633950935111610071578063395093511461028857806370a08231146102ee57806395d89b4114610346578063a457c2d7146103c9578063a9059cbb1461042f578063dd62ed3e14610495576100b4565b806306fdde03146100b9578063095ea7b31461013c57806318160ddd146101a257806323b872dd146101c0578063313ce56714610246578063355274ea1461026a575b600080fd5b6100c161050d565b6040518080602001828103825283818151815260200191508051906020019080838360005b838110156101015780820151818401526020810190506100e6565b50505050905090810190601f16801561012e5780820380516001836020036101000a031916815260200191505b509250505060405180910390f35b6101886004803603604081101561015257600080fd5b81019080803573ffffffffffffffffffffffffffffffffffffffff169060200190929190803590602001909291905050506105af565b604051808215151515815260200191505060405180910390f35b6101aa6105cd565b6040518082815260200191505060405180910390f35b61022c600480360360608110156101d657600080fd5b81019080803573ffffffffffffffffffffffffffffffffffffffff169060200190929190803573ffffffffffffffffffffffffffffffffffffffff169060200190929190803590602001909291905050506105d7565b604051808215151515815260200191505060405180910390f35b61024e6106b0565b604051808260ff1660ff16815260200191505060405180910390f35b6102726106c7565b6040518082815260200191505060405180910390f35b6102d46004803603604081101561029e57600080fd5b81019080803573ffffffffffffffffffffffffffffffffffffffff169060200190929190803590602001909291905050506106d1565b604051808215151515815260200191505060405180910390f35b6103306004803603602081101561030457600080fd5b81019080803573ffffffffffffffffffffffffffffffffffffffff169060200190929190505050610784565b6040518082815260200191505060405180910390f35b61034e6107cc565b6040518080602001828103825283818151815260200191508051906020019080838360005b8381101561038e578082015181840152602081019050610373565b50505050905090810190601f1680156103bb5780820380516001836020036101000a031916815260200191505b509250505060405180910390f35b610415600480360360408110156103df57600080fd5b81019080803573ffffffffffffffffffffffffffffffffffffffff1690602001909291908035906020019092919050505061086e565b604051808215151515815260200191505060405180910390f35b61047b6004803603604081101561044557600080fd5b81019080803573ffffffffffffffffffffffffffffffffffffffff1690602001909291908035906020019092919050505061093b565b604051808215151515815260200191505060405180910390f35b6104f7600480360360408110156104ab57600080fd5b81019080803573ffffffffffffffffffffffffffffffffffffffff169060200190929190803573ffffffffffffffffffffffffffffffffffffffff169060200190929190505050610959565b6040518082815260200191505060405180910390f35b606060038054600181600116156101000203166002900480601f0160208091040260200160405190810160405280929190818152602001828054600181600116156101000203166002900480156105a55780601f1061057a576101008083540402835291602001916105a5565b820191906000526020600020905b81548152906001019060200180831161058857829003601f168201915b5050505050905090565b60006105c36105bc610a6d565b8484610a75565b6001905092915050565b6000600254905090565b60006105e4848484610c6c565b6106a5846105f0610a6d565b6106a08560405180606001604052806028815260200161113060289139600160008b73ffffffffffffffffffffffffffffffffffffffff1673ffffffffffffffffffffffffffffffffffffffff1681526020019081526020016000206000610656610a6d565b73ffffffffffffffffffffffffffffffffffffffff1673ffffffffffffffffffffffffffffffffffffffff16815260200190815260200160002054610f2d9092919063ffffffff16565b610a75565b600190509392505050565b6000600560009054906101000a900460ff16905090565b6000600654905090565b600061077a6106de610a6d565b8461077585600160006106ef610a6d565b73ffffffffffffffffffffffffffffffffffffffff1673ffffffffffffffffffffffffffffffffffffffff16815260200190815260200160002060008973ffffffffffffffffffffffffffffffffffffffff1673ffffffffffffffffffffffffffffffffffffffff168152602001908152602001600020546109e090919063ffffffff16565b610a75565b6001905092915050565b60008060008373ffffffffffffffffffffffffffffffffffffffff1673ffffffffffffffffffffffffffffffffffffffff168152602001908152602001600020549050919050565b606060048054600181600116156101000203166002900480601f0160208091040260200160405190810160405280929190818152602001828054600181600116156101000203166002900480156108645780601f1061083957610100808354040283529160200191610864565b820191906000526020600020905b81548152906001019060200180831161084757829003601f168201915b5050505050905090565b600061093161087b610a6d565b8461092c856040518060600160405280602581526020016111a160259139600160006108a5610a6d565b73ffffffffffffffffffffffffffffffffffffffff1673ffffffffffffffffffffffffffffffffffffffff16815260200190815260200160002060008a73ffffffffffffffffffffffffffffffffffffffff1673ffffffffffffffffffffffffffffffffffffffff16815260200190815260200160002054610f2d9092919063ffffffff16565b610a75565b6001905092915050565b600061094f610948610a6d565b8484610c6c565b6001905092915050565b6000600160008473ffffffffffffffffffffffffffffffffffffffff1673ffffffffffffffffffffffffffffffffffffffff16815260200190815260200160002060008373ffffffffffffffffffffffffffffffffffffffff1673ffffffffffffffffffffffffffffffffffffffff16815260200190815260200160002054905092915050565b600080828401905083811015610a5e576040517f08c379a000000000000000000000000000000000000000000000000000000000815260040180806020018281038252601b8152602001807f536166654d6174683a206164646974696f6e206f766572666c6f77000000000081525060200191505060405180910390fd5b8091505092915050565b505050565b600033905090565b600073ffffffffffffffffffffffffffffffffffffffff168373ffffffffffffffffffffffffffffffffffffffff161415610afb576040517f08c379a000000000000000000000000000000000000000000000000000000000815260040180806020018281038252602481526020018061117d6024913960400191505060405180910390fd5b600073ffffffffffffffffffffffffffffffffffffffff168273ffffffffffffffffffffffffffffffffffffffff161415610b81576040517f08c379a00000000000000000000000000000000000000000000000000000000081526004018080602001828103825260228152602001806110e86022913960400191505060405180910390fd5b80600160008573ffffffffffffffffffffffffffffffffffffffff1673ffffffffffffffffffffffffffffffffffffffff16815260200190815260200160002060008473ffffffffffffffffffffffffffffffffffffffff1673ffffffffffffffffffffffffffffffffffffffff168152602001908152602001600020819055508173ffffffffffffffffffffffffffffffffffffffff168373ffffffffffffffffffffffffffffffffffffffff167f8c5be1e5ebec7d5bd14f71427d1e84f3dd0314c0f7b2291e5b200ac8c7c3b925836040518082815260200191505060405180910390a3505050565b600073ffffffffffffffffffffffffffffffffffffffff168373ffffffffffffffffffffffffffffffffffffffff161415610cf2576040517f08c379a00000000000000000000000000000000000000000000000000000000081526004018080602001828103825260258152602001806111586025913960400191505060405180910390fd5b600073ffffffffffffffffffffffffffffffffffffffff168273ffffffffffffffffffffffffffffffffffffffff161415610d78576040517f08c379a00000000000000000000000000000000000000000000000000000000081526004018080602001828103825260238152602001806110c56023913960400191505060405180910390fd5b610d83838383610fed565b610dee8160405180606001604052806026815260200161110a602691396000808773ffffffffffffffffffffffffffffffffffffffff1673ffffffffffffffffffffffffffffffffffffffff16815260200190815260200160002054610f2d9092919063ffffffff16565b6000808573ffffffffffffffffffffffffffffffffffffffff1673ffffffffffffffffffffffffffffffffffffffff16815260200190815260200160002081905550610e81816000808573ffffffffffffffffffffffffffffffffffffffff1673ffffffffffffffffffffffffffffffffffffffff168152602001908152602001600020546109e090919063ffffffff16565b6000808473ffffffffffffffffffffffffffffffffffffffff1673ffffffffffffffffffffffffffffffffffffffff168152602001908152602001600020819055508173ffffffffffffffffffffffffffffffffffffffff168373ffffffffffffffffffffffffffffffffffffffff167fddf252ad1be2c89b69c2b068fc378daa952ba7f163c4a11628f55a4df523b3ef836040518082815260200191505060405180910390a3505050565b6000838311158290610fda576040517f08c379a00000000000000000000000000000000000000000000000000000000081526004018080602001828103825283818151815260200191508051906020019080838360005b83811015610f9f578082015181840152602081019050610f84565b50505050905090810190601f168015610fcc5780820380516001836020036101000a031916815260200191505b509250505060405180910390fd5b5060008385039050809150509392505050565b610ff8838383610a68565b600073ffffffffffffffffffffffffffffffffffffffff168373ffffffffffffffffffffffffffffffffffffffff1614156110bf5760065461104a8261103c6105cd565b6109e090919063ffffffff16565b11156110be576040517f08c379a00000000000000000000000000000000000000000000000000000000081526004018080602001828103825260198152602001807f45524332304361707065643a206361702065786365656465640000000000000081525060200191505060405180910390fd5b5b50505056fe45524332303a207472616e7366657220746f20746865207a65726f206164647265737345524332303a20617070726f766520746f20746865207a65726f206164647265737345524332303a207472616e7366657220616d6f756e7420657863656564732062616c616e636545524332303a207472616e7366657220616d6f756e74206578636565647320616c6c6f77616e636545524332303a207472616e736665722066726f6d20746865207a65726f206164647265737345524332303a20617070726f76652066726f6d20746865207a65726f206164647265737345524332303a2064656372656173656420616c6c6f77616e63652062656c6f77207a65726fa2646970667358221220604fae4ea24bbc565ba11f0b833bd94dde33c16c677ab4b065189922cd39632b64736f6c634300060b0033536166654d6174683a206d756c7469706c69636174696f6e206f766572666c6f774f6e6c792070726576696f75736c792061646465642062656e656669636961726965732063616e206163636570742062656e65666963696172792072696768747342656e65666963696172792063616e206e6f7420626520746865207a65726f2061646472657373",
  "compiler": {
    "name": "solc",
    "version": "0.6.11+commit.5ef660b1.Emscripten.clang",
    "optimizer": {
      "enabled": false,
      "runs": 200
    },
    "evmVersion": "petersburg"
  }
}