{
  "fileName": "Dispenser.sol",
  "contractName": "Dispenser",
  "source": "// SPDX-License-Identifier: MIT\n\npragma solidity ^0.6.0;\n\nimport \"./DispensedToken.sol\";\nimport \"@openzeppelin/contracts/access/Ownable.sol\";\nimport \"@openzeppelin/contracts/math/SafeMath.sol\";\n\ncontract Dispenser is Ownable{\n\n    using SafeMath for uint256;\n    // deployment time, used for calculate current period and clims which limits to apply\n    uint public startTime;\n    // threshold after which there is no monetary policy and all founds are going to be released to beneficiary\n    uint public stopThresholdLimit;\n    // beneficiary addresss is the onlyone who can be receipt of transfers from this contract\n    bool public finalized;\n\n    address public beneficiary;\n\n    // DispensedToken is an ERC20Capped token, which total supply is managed by this contract\n    DispensedToken public dispensedToken;\n    // Bidimentional array to store raimaing allowed withdrawals per months\n    uint[12][] public limits;\n\n    // Dispenser period duration is calculated based in populateBySatoshiMonetaryPolicy and stopThresholdLimit\n    // represents how many years this contract is going to be available for claiming funds if no explicit finalization is trigered before by contract owner\n    // could be deprecated and replaced by limtis.length\n    uint public dispenserPeriodDuration;\n\n    // Allowance accumulator is used just for check Monetary Policy Consistency during Dispenser creation, meaning that it is used to ensure\n    // that DSP cap is bigger than acumulated limits availables for claiming during the entire dispensing period in the worst-case.\n    // If the stopThresholdLimit is too small and/or the period is to large, it could be the case in wich the contract still\n    // allows claiming funds but there are no balance available of DSP in Dispenser, even when it's still not finilazed.\n    uint private allowanceAcumulator;\n\n    // events\n\n    event dispenserPeriodFinilized (address beneficiary, uint reamainingAmount);\n    event dispenserPeriodFinilizedByOwner (uint remainingAmount);\n    event fundsClaimed(uint amount);\n    event newBeneficiary (address newBeneficiary);\n\n    constructor(DispensedToken _dsp, uint _stopThresholdLimit, address _beneficiary) public{\n        dispensedToken = _dsp;\n        startTime = now;\n        stopThresholdLimit = _stopThresholdLimit; // could be parametrized\n        finalized = false;\n        populateLimits();\n        beneficiary = _beneficiary;\n    }\n\n    function populateLimits () private {\n        // months dinamic limits are just hardcoded, as it doesn't change in original problem domain.\n        populateSingleYear(1000);\n        populateSingleYear(2500);\n        populateSingleYear(5000);\n        populateSingleYear(10000);\n        // from year five we charge periods of 4 years dividin limits by 2on each period, like \"bitcoin monetary policy\"\n        populateBySatoshiMonetaryPolicy(5000);\n       // dispenserPeriodDuration = limits.length;\n       dispenserPeriodDuration = limits.length;\n    }\n\n    function populateBySatoshiMonetaryPolicy(uint _initialamount) private {\n        uint allowed = _initialamount;\n        do {\n            for (uint i = 0; i < 4; i++) {\n                populateSingleYear(allowed);\n            }\n            allowed = allowed.div(2);// /2;\n        } while (allowed > stopThresholdLimit);\n    }\n\n    // here the convertion is just to fit number of decimals defined Dispensed token\n    // the function asummes the argument received represents an integer amount of DSP\n    function populateSingleYear (uint _limit) private consistentMonetaryPolicy {\n        uint limit = _limit.mul((uint(10)) ** dispensedToken.decimals());\n        \n        uint[12] memory months;\n\n        for (uint i = 0; i < 12; i++) {\n                //index year in year-1 because the first year is represented in 0 index array\n                months[i] = limit;\n                allowanceAcumulator = allowanceAcumulator.add(limit);\n            }\n        limits.push(months);\n    }\n\n     /**\n     * returns how many years and months has been pased betweeen the startpoint and a given timesttamp\n     * uses SafeMath to avoid overflows\n     */\n    function getYearAndMonths (uint _time) public view returns (uint _year,uint _month){\n        // this is the number of years between two timestamps in seconds, assuming years have 360 days for simplification\n         //((((_time - startTime ) / 60 ) / 60 ) / 24 ) / 360;\n        uint yea = ((((_time.sub(startTime)).div(60)).div(60)).div(24)).div(360);\n        // this is how many months\n        //((((( _time - startTime ) / 60 ) / 60 ) / 24 ) / 30 ) - yea*12;\n        uint all_monts = ((((_time.sub(startTime)).div(60)).div(60)).div(24)).div(30);\n        uint mon = all_monts.sub(yea.mul(12));\n        return (yea,mon);\n    }\n\n    //this function is being created just for cheking array state\n    function getCurrentMonthUnclaimedFund() public view returns (uint remainingAllowed){\n        (uint y, uint m) = getYearAndMonths(now);\n        return limits[y][m];\n    }\n\n    function getMonthUnclaimedFund(uint y, uint m) public view returns (uint _remining_funds) {\n        require (m <= 12, 'month not allowed more than 12');\n        require (0 <= m, 'month can not be negative');\n        require (y <= dispenserPeriodDuration, 'year out of dispensing period');\n        require (0 <= y, 'year can not be negative');\n        return (limits[y.sub(1)][m.sub(1)]);\n    }\n\n    function claimFunds (uint _amount) public notFinalized {\n        require(beneficiary == msg.sender, 'Only accepted beneficiary addredss are allowed to claim founds');\n        (uint y, uint m) = getYearAndMonths(now);\n        if ( y >= dispenserPeriodDuration ){\n            finalize ();\n            return;\n        }\n        uint amount = _amount.mul((uint(10)) ** dispensedToken.decimals());\n        require(amount <= limits[y][m], 'You are trying to withdraw more than remaining allowed this month');\n        dispensedToken.transfer(beneficiary, amount);\n        limits[y][m] = limits[y][m].sub(amount);\n        emit fundsClaimed(_amount);\n    }\n\n    // When dispensed period os finilized all reamining funds in the contract will be transfered to the Owner of the contract.\n    function finalizeDispensedPeriod () public onlyOwner notFinalized {\n        uint remainingAmount = dispensedToken.balanceOf(address(this));\n        dispensedToken.transfer(owner(),remainingAmount);\n        finalized = true;\n        emit dispenserPeriodFinilizedByOwner (remainingAmount);\n    }\n    function finalize () private notFinalized {\n        uint remainingAmount = dispensedToken.balanceOf(address(this));\n        dispensedToken.transfer(msg.sender,remainingAmount);\n        finalized = true;\n        emit dispenserPeriodFinilized (msg.sender,remainingAmount);\n    }\n\n    function setBeneficiary (address _newBeneficiary) public onlyOwner {\n        require(_newBeneficiary != address(0), \"Beneficiary can not be the zero address\");\n        beneficiary = _newBeneficiary;\n        emit newBeneficiary(_newBeneficiary);\n    }\n\n    function getLastMonthLimit () public view returns (uint _lastYear, uint _lastLimit) {\n        uint lastYear = limits.length;\n        uint lastLimit = limits[lastYear-1][11];\n        return (lastYear,lastLimit);\n    }\n\n    modifier notFinalized() {\n        require(!finalized, \"This contract is not dispensing any more, dispensed period has ended\");\n        _;\n    }\n\n    // The acumulation of all funds available for claims MUST be less or equal than capped supply of DSP.\n    // The requirement is to have enought cap and balance of DSP to dispense after year dispenserPeriodDuration\n    modifier consistentMonetaryPolicy(){\n        _;\n        require (allowanceAcumulator <= dispensedToken.cap(), 'Monetary Policy overflows');\n    }\n}\n\n\n",
  "sourcePath": "contracts/Dispenser.sol",
  "abi": [
    {
      "inputs": [
        {
          "internalType": "contract DispensedToken",
          "name": "_dsp",
          "type": "address"
        },
        {
          "internalType": "uint256",
          "name": "_stopThresholdLimit",
          "type": "uint256"
        },
        {
          "internalType": "address",
          "name": "_beneficiary",
          "type": "address"
        }
      ],
      "stateMutability": "nonpayable",
      "type": "constructor"
    },
    {
      "anonymous": false,
      "inputs": [
        {
          "indexed": true,
          "internalType": "address",
          "name": "previousOwner",
          "type": "address"
        },
        {
          "indexed": true,
          "internalType": "address",
          "name": "newOwner",
          "type": "address"
        }
      ],
      "name": "OwnershipTransferred",
      "type": "event"
    },
    {
      "anonymous": false,
      "inputs": [
        {
          "indexed": false,
          "internalType": "address",
          "name": "beneficiary",
          "type": "address"
        },
        {
          "indexed": false,
          "internalType": "uint256",
          "name": "reamainingAmount",
          "type": "uint256"
        }
      ],
      "name": "dispenserPeriodFinilized",
      "type": "event"
    },
    {
      "anonymous": false,
      "inputs": [
        {
          "indexed": false,
          "internalType": "uint256",
          "name": "remainingAmount",
          "type": "uint256"
        }
      ],
      "name": "dispenserPeriodFinilizedByOwner",
      "type": "event"
    },
    {
      "anonymous": false,
      "inputs": [
        {
          "indexed": false,
          "internalType": "uint256",
          "name": "amount",
          "type": "uint256"
        }
      ],
      "name": "fundsClaimed",
      "type": "event"
    },
    {
      "anonymous": false,
      "inputs": [
        {
          "indexed": false,
          "internalType": "address",
          "name": "newBeneficiary",
          "type": "address"
        }
      ],
      "name": "newBeneficiary",
      "type": "event"
    },
    {
      "inputs": [],
      "name": "beneficiary",
      "outputs": [
        {
          "internalType": "address",
          "name": "",
          "type": "address"
        }
      ],
      "stateMutability": "view",
      "type": "function"
    },
    {
      "inputs": [
        {
          "internalType": "uint256",
          "name": "_amount",
          "type": "uint256"
        }
      ],
      "name": "claimFunds",
      "outputs": [],
      "stateMutability": "nonpayable",
      "type": "function"
    },
    {
      "inputs": [],
      "name": "dispensedToken",
      "outputs": [
        {
          "internalType": "contract DispensedToken",
          "name": "",
          "type": "address"
        }
      ],
      "stateMutability": "view",
      "type": "function"
    },
    {
      "inputs": [],
      "name": "dispenserPeriodDuration",
      "outputs": [
        {
          "internalType": "uint256",
          "name": "",
          "type": "uint256"
        }
      ],
      "stateMutability": "view",
      "type": "function"
    },
    {
      "inputs": [],
      "name": "finalizeDispensedPeriod",
      "outputs": [],
      "stateMutability": "nonpayable",
      "type": "function"
    },
    {
      "inputs": [],
      "name": "finalized",
      "outputs": [
        {
          "internalType": "bool",
          "name": "",
          "type": "bool"
        }
      ],
      "stateMutability": "view",
      "type": "function"
    },
    {
      "inputs": [],
      "name": "getCurrentMonthUnclaimedFund",
      "outputs": [
        {
          "internalType": "uint256",
          "name": "remainingAllowed",
          "type": "uint256"
        }
      ],
      "stateMutability": "view",
      "type": "function"
    },
    {
      "inputs": [],
      "name": "getLastMonthLimit",
      "outputs": [
        {
          "internalType": "uint256",
          "name": "_lastYear",
          "type": "uint256"
        },
        {
          "internalType": "uint256",
          "name": "_lastLimit",
          "type": "uint256"
        }
      ],
      "stateMutability": "view",
      "type": "function"
    },
    {
      "inputs": [
        {
          "internalType": "uint256",
          "name": "y",
          "type": "uint256"
        },
        {
          "internalType": "uint256",
          "name": "m",
          "type": "uint256"
        }
      ],
      "name": "getMonthUnclaimedFund",
      "outputs": [
        {
          "internalType": "uint256",
          "name": "_remining_funds",
          "type": "uint256"
        }
      ],
      "stateMutability": "view",
      "type": "function"
    },
    {
      "inputs": [
        {
          "internalType": "uint256",
          "name": "_time",
          "type": "uint256"
        }
      ],
      "name": "getYearAndMonths",
      "outputs": [
        {
          "internalType": "uint256",
          "name": "_year",
          "type": "uint256"
        },
        {
          "internalType": "uint256",
          "name": "_month",
          "type": "uint256"
        }
      ],
      "stateMutability": "view",
      "type": "function"
    },
    {
      "inputs": [
        {
          "internalType": "uint256",
          "name": "",
          "type": "uint256"
        },
        {
          "internalType": "uint256",
          "name": "",
          "type": "uint256"
        }
      ],
      "name": "limits",
      "outputs": [
        {
          "internalType": "uint256",
          "name": "",
          "type": "uint256"
        }
      ],
      "stateMutability": "view",
      "type": "function"
    },
    {
      "inputs": [],
      "name": "owner",
      "outputs": [
        {
          "internalType": "address",
          "name": "",
          "type": "address"
        }
      ],
      "stateMutability": "view",
      "type": "function"
    },
    {
      "inputs": [],
      "name": "renounceOwnership",
      "outputs": [],
      "stateMutability": "nonpayable",
      "type": "function"
    },
    {
      "inputs": [
        {
          "internalType": "address",
          "name": "_newBeneficiary",
          "type": "address"
        }
      ],
      "name": "setBeneficiary",
      "outputs": [],
      "stateMutability": "nonpayable",
      "type": "function"
    },
    {
      "inputs": [],
      "name": "startTime",
      "outputs": [
        {
          "internalType": "uint256",
          "name": "",
          "type": "uint256"
        }
      ],
      "stateMutability": "view",
      "type": "function"
    },
    {
      "inputs": [],
      "name": "stopThresholdLimit",
      "outputs": [
        {
          "internalType": "uint256",
          "name": "",
          "type": "uint256"
        }
      ],
      "stateMutability": "view",
      "type": "function"
    },
    {
      "inputs": [
        {
          "internalType": "address",
          "name": "newOwner",
          "type": "address"
        }
      ],
      "name": "transferOwnership",
      "outputs": [],
      "stateMutability": "nonpayable",
      "type": "function"
    }
  ],
  "bytecode": "0x60806040523480156200001157600080fd5b506040516200254b3803806200254b833981810160405260608110156200003757600080fd5b8101908080519060200190929190805190602001909291908051906020019092919050505060006200006e620001d060201b60201c565b9050806000806101000a81548173ffffffffffffffffffffffffffffffffffffffff021916908373ffffffffffffffffffffffffffffffffffffffff1602179055508073ffffffffffffffffffffffffffffffffffffffff16600073ffffffffffffffffffffffffffffffffffffffff167f8be0079c531659141344cd1fd0a4f28419497f9722a3daafe3b4186f6b6457e060405160405180910390a35082600460006101000a81548173ffffffffffffffffffffffffffffffffffffffff021916908373ffffffffffffffffffffffffffffffffffffffff16021790555042600181905550816002819055506000600360006101000a81548160ff02191690831515021790555062000186620001d860201b60201c565b80600360016101000a81548173ffffffffffffffffffffffffffffffffffffffff021916908373ffffffffffffffffffffffffffffffffffffffff160217905550505050620007f2565b600033905090565b620001eb6103e86200024560201b60201c565b620001fe6109c46200024560201b60201c565b620002116113886200024560201b60201c565b620002246127106200024560201b60201c565b62000237611388620004d060201b60201c565b600580549050600681905550565b60006200030c600460009054906101000a900473ffffffffffffffffffffffffffffffffffffffff1673ffffffffffffffffffffffffffffffffffffffff1663313ce5676040518163ffffffff1660e01b815260040160206040518083038186803b158015620002b457600080fd5b505afa158015620002c9573d6000803e3d6000fd5b505050506040513d6020811015620002e057600080fd5b810190808051906020019092919050505060ff16600a0a836200053160201b620015df1790919060201c565b90506200031862000762565b60008090505b600c8110156200036f57828282600c81106200033657fe5b6020020181815250506200035b83600754620005bc60201b620016651790919060201c565b60078190555080806001019150506200031e565b5060058190806001815401808255809150506001900390600052602060002090600c020160009091909190915090600c620003ac92919062000785565b505050600460009054906101000a900473ffffffffffffffffffffffffffffffffffffffff1673ffffffffffffffffffffffffffffffffffffffff1663355274ea6040518163ffffffff1660e01b815260040160206040518083038186803b1580156200041857600080fd5b505afa1580156200042d573d6000803e3d6000fd5b505050506040513d60208110156200044457600080fd5b81019080805190602001909291905050506007541115620004cd576040517f08c379a00000000000000000000000000000000000000000000000000000000081526004018080602001828103825260198152602001807f4d6f6e657461727920506f6c696379206f766572666c6f77730000000000000081525060200191505060405180910390fd5b50565b60008190505b60008090505b60048110156200050557620004f7826200024560201b60201c565b8080600101915050620004dc565b50620005216002826200064560201b620016ed1790919060201c565b90506002548111620004d6575050565b600080831415620005465760009050620005b6565b60008284029050828482816200055857fe5b0414620005b1576040517f08c379a00000000000000000000000000000000000000000000000000000000081526004018080602001828103825260218152602001806200252a6021913960400191505060405180910390fd5b809150505b92915050565b6000808284019050838110156200063b576040517f08c379a000000000000000000000000000000000000000000000000000000000815260040180806020018281038252601b8152602001807f536166654d6174683a206164646974696f6e206f766572666c6f77000000000081525060200191505060405180910390fd5b8091505092915050565b60006200068f83836040518060400160405280601a81526020017f536166654d6174683a206469766973696f6e206279207a65726f0000000000008152506200069760201b60201c565b905092915050565b6000808311829062000747576040517f08c379a00000000000000000000000000000000000000000000000000000000081526004018080602001828103825283818151815260200191508051906020019080838360005b838110156200070b578082015181840152602081019050620006ee565b50505050905090810190601f168015620007395780820380516001836020036101000a031916815260200191505b509250505060405180910390fd5b5060008385816200075457fe5b049050809150509392505050565b604051806101800160405280600c90602082028036833780820191505090505090565b82600c8101928215620007b7579160200282015b82811115620007b657825182559160200191906001019062000799565b5b509050620007c69190620007ca565b5090565b620007ef91905b80821115620007eb576000816000905550600101620007d1565b5090565b90565b611d2880620008026000396000f3fe608060405234801561001057600080fd5b506004361061010b5760003560e01c8063b3f05b97116100a2578063bf63fa5f11610071578063bf63fa5f146103b0578063ce7c30fa146103ba578063da138883146103d8578063db0f8a67146103f6578063f2fde38b146104145761010b565b8063b3f05b97146102d3578063b4390064146102f5578063b662ac7e1461031a578063bed56c3e146103645761010b565b8063715018a6116100de578063715018a61461021857806378e97925146102225780638da5cb5b14610240578063ab1ef4c51461028a5761010b565b80631b55e338146101105780631c31f7101461013e5780632635c0811461018257806338af3eed146101ce575b600080fd5b61013c6004803603602081101561012657600080fd5b8101908080359060200190929190505050610458565b005b6101806004803603602081101561015457600080fd5b81019080803573ffffffffffffffffffffffffffffffffffffffff169060200190929190505050610875565b005b6101b86004803603604081101561019857600080fd5b810190808035906020019092919080359060200190929190505050610a6b565b6040518082815260200191505060405180910390f35b6101d6610ca0565b604051808273ffffffffffffffffffffffffffffffffffffffff1673ffffffffffffffffffffffffffffffffffffffff16815260200191505060405180910390f35b610220610cc6565b005b61022a610e4e565b6040518082815260200191505060405180910390f35b610248610e54565b604051808273ffffffffffffffffffffffffffffffffffffffff1673ffffffffffffffffffffffffffffffffffffffff16815260200191505060405180910390f35b6102b6600480360360208110156102a057600080fd5b8101908080359060200190929190505050610e7d565b604051808381526020018281526020019250505060405180910390f35b6102db610f83565b604051808215151515815260200191505060405180910390f35b6102fd610f96565b604051808381526020018281526020019250505060405180910390f35b610322610fdf565b604051808273ffffffffffffffffffffffffffffffffffffffff1673ffffffffffffffffffffffffffffffffffffffff16815260200191505060405180910390f35b61039a6004803603604081101561037a57600080fd5b810190808035906020019092919080359060200190929190505050611005565b6040518082815260200191505060405180910390f35b6103b8611037565b005b6103c2611385565b6040518082815260200191505060405180910390f35b6103e061138b565b6040518082815260200191505060405180910390f35b6103fe6113cc565b6040518082815260200191505060405180910390f35b6104566004803603602081101561042a57600080fd5b81019080803573ffffffffffffffffffffffffffffffffffffffff1690602001909291905050506113d2565b005b600360009054906101000a900460ff16156104be576040517f08c379a0000000000000000000000000000000000000000000000000000000008152600401808060200182810382526044815260200180611c886044913960600191505060405180910390fd5b3373ffffffffffffffffffffffffffffffffffffffff16600360019054906101000a900473ffffffffffffffffffffffffffffffffffffffff1673ffffffffffffffffffffffffffffffffffffffff1614610564576040517f08c379a000000000000000000000000000000000000000000000000000000000815260040180806020018281038252603e815260200180611bc2603e913960400191505060405180910390fd5b60008061057042610e7d565b91509150600654821061058c57610585611737565b5050610872565b6000610649600460009054906101000a900473ffffffffffffffffffffffffffffffffffffffff1673ffffffffffffffffffffffffffffffffffffffff1663313ce5676040518163ffffffff1660e01b815260040160206040518083038186803b1580156105f957600080fd5b505afa15801561060d573d6000803e3d6000fd5b505050506040513d602081101561062357600080fd5b810190808051906020019092919050505060ff16600a0a856115df90919063ffffffff16565b90506005838154811061065857fe5b90600052602060002090600c020182600c811061067157fe5b01548111156106cb576040517f08c379a0000000000000000000000000000000000000000000000000000000008152600401808060200182810382526041815260200180611c266041913960600191505060405180910390fd5b600460009054906101000a900473ffffffffffffffffffffffffffffffffffffffff1673ffffffffffffffffffffffffffffffffffffffff1663a9059cbb600360019054906101000a900473ffffffffffffffffffffffffffffffffffffffff16836040518363ffffffff1660e01b8152600401808373ffffffffffffffffffffffffffffffffffffffff1673ffffffffffffffffffffffffffffffffffffffff16815260200182815260200192505050602060405180830381600087803b15801561079657600080fd5b505af11580156107aa573d6000803e3d6000fd5b505050506040513d60208110156107c057600080fd5b81019080805190602001909291905050505061080c81600585815481106107e357fe5b90600052602060002090600c020184600c81106107fc57fe5b01546119e990919063ffffffff16565b6005848154811061081957fe5b90600052602060002090600c020183600c811061083257fe5b01819055507f157285b9313653699d558e16cfa2fb129fd608799ca7c4d60fb35ed95948c315846040518082815260200191505060405180910390a15050505b50565b61087d611a33565b73ffffffffffffffffffffffffffffffffffffffff166000809054906101000a900473ffffffffffffffffffffffffffffffffffffffff1673ffffffffffffffffffffffffffffffffffffffff161461093e576040517f08c379a00000000000000000000000000000000000000000000000000000000081526004018080602001828103825260208152602001807f4f776e61626c653a2063616c6c6572206973206e6f7420746865206f776e657281525060200191505060405180910390fd5b600073ffffffffffffffffffffffffffffffffffffffff168173ffffffffffffffffffffffffffffffffffffffff1614156109c4576040517f08c379a0000000000000000000000000000000000000000000000000000000008152600401808060200182810382526027815260200180611ccc6027913960400191505060405180910390fd5b80600360016101000a81548173ffffffffffffffffffffffffffffffffffffffff021916908373ffffffffffffffffffffffffffffffffffffffff1602179055507f507959e1ada0f8f9c52e611de019eca14471ef2edde89c8f6fabb655c30ec09881604051808273ffffffffffffffffffffffffffffffffffffffff1673ffffffffffffffffffffffffffffffffffffffff16815260200191505060405180910390a150565b6000600c821115610ae4576040517f08c379a000000000000000000000000000000000000000000000000000000000815260040180806020018281038252601e8152602001807f6d6f6e7468206e6f7420616c6c6f776564206d6f7265207468616e203132000081525060200191505060405180910390fd5b8160001115610b5b576040517f08c379a00000000000000000000000000000000000000000000000000000000081526004018080602001828103825260198152602001807f6d6f6e74682063616e206e6f74206265206e656761746976650000000000000081525060200191505060405180910390fd5b600654831115610bd3576040517f08c379a000000000000000000000000000000000000000000000000000000000815260040180806020018281038252601d8152602001807f79656172206f7574206f662064697370656e73696e6720706572696f6400000081525060200191505060405180910390fd5b8260001115610c4a576040517f08c379a00000000000000000000000000000000000000000000000000000000081526004018080602001828103825260188152602001807f796561722063616e206e6f74206265206e65676174697665000000000000000081525060200191505060405180910390fd5b6005610c606001856119e990919063ffffffff16565b81548110610c6a57fe5b90600052602060002090600c0201610c8c6001846119e990919063ffffffff16565b600c8110610c9657fe5b0154905092915050565b600360019054906101000a900473ffffffffffffffffffffffffffffffffffffffff1681565b610cce611a33565b73ffffffffffffffffffffffffffffffffffffffff166000809054906101000a900473ffffffffffffffffffffffffffffffffffffffff1673ffffffffffffffffffffffffffffffffffffffff1614610d8f576040517f08c379a00000000000000000000000000000000000000000000000000000000081526004018080602001828103825260208152602001807f4f776e61626c653a2063616c6c6572206973206e6f7420746865206f776e657281525060200191505060405180910390fd5b600073ffffffffffffffffffffffffffffffffffffffff166000809054906101000a900473ffffffffffffffffffffffffffffffffffffffff1673ffffffffffffffffffffffffffffffffffffffff167f8be0079c531659141344cd1fd0a4f28419497f9722a3daafe3b4186f6b6457e060405160405180910390a360008060006101000a81548173ffffffffffffffffffffffffffffffffffffffff021916908373ffffffffffffffffffffffffffffffffffffffff160217905550565b60015481565b60008060009054906101000a900473ffffffffffffffffffffffffffffffffffffffff16905090565b6000806000610ee4610168610ed66018610ec8603c610eba603c610eac6001548d6119e990919063ffffffff16565b6116ed90919063ffffffff16565b6116ed90919063ffffffff16565b6116ed90919063ffffffff16565b6116ed90919063ffffffff16565b90506000610f49601e610f3b6018610f2d603c610f1f603c610f116001548e6119e990919063ffffffff16565b6116ed90919063ffffffff16565b6116ed90919063ffffffff16565b6116ed90919063ffffffff16565b6116ed90919063ffffffff16565b90506000610f73610f64600c856115df90919063ffffffff16565b836119e990919063ffffffff16565b9050828194509450505050915091565b600360009054906101000a900460ff1681565b60008060006005805490509050600060056001830381548110610fb557fe5b90600052602060002090600c0201600b600c8110610fcf57fe5b0154905081819350935050509091565b600460009054906101000a900473ffffffffffffffffffffffffffffffffffffffff1681565b6005828154811061101257fe5b90600052602060002090600c020181600c811061102b57fe5b01600091509150505481565b61103f611a33565b73ffffffffffffffffffffffffffffffffffffffff166000809054906101000a900473ffffffffffffffffffffffffffffffffffffffff1673ffffffffffffffffffffffffffffffffffffffff1614611100576040517f08c379a00000000000000000000000000000000000000000000000000000000081526004018080602001828103825260208152602001807f4f776e61626c653a2063616c6c6572206973206e6f7420746865206f776e657281525060200191505060405180910390fd5b600360009054906101000a900460ff1615611166576040517f08c379a0000000000000000000000000000000000000000000000000000000008152600401808060200182810382526044815260200180611c886044913960600191505060405180910390fd5b6000600460009054906101000a900473ffffffffffffffffffffffffffffffffffffffff1673ffffffffffffffffffffffffffffffffffffffff166370a08231306040518263ffffffff1660e01b8152600401808273ffffffffffffffffffffffffffffffffffffffff1673ffffffffffffffffffffffffffffffffffffffff16815260200191505060206040518083038186803b15801561120757600080fd5b505afa15801561121b573d6000803e3d6000fd5b505050506040513d602081101561123157600080fd5b81019080805190602001909291905050509050600460009054906101000a900473ffffffffffffffffffffffffffffffffffffffff1673ffffffffffffffffffffffffffffffffffffffff1663a9059cbb61128a610e54565b836040518363ffffffff1660e01b8152600401808373ffffffffffffffffffffffffffffffffffffffff1673ffffffffffffffffffffffffffffffffffffffff16815260200182815260200192505050602060405180830381600087803b1580156112f457600080fd5b505af1158015611308573d6000803e3d6000fd5b505050506040513d602081101561131e57600080fd5b8101908080519060200190929190505050506001600360006101000a81548160ff0219169083151502179055507f6f1253dbc058b556a898df70742adc0923a773f174b11613f6c49781a517dc5f816040518082815260200191505060405180910390a150565b60025481565b600080600061139942610e7d565b91509150600582815481106113aa57fe5b90600052602060002090600c020181600c81106113c357fe5b01549250505090565b60065481565b6113da611a33565b73ffffffffffffffffffffffffffffffffffffffff166000809054906101000a900473ffffffffffffffffffffffffffffffffffffffff1673ffffffffffffffffffffffffffffffffffffffff161461149b576040517f08c379a00000000000000000000000000000000000000000000000000000000081526004018080602001828103825260208152602001807f4f776e61626c653a2063616c6c6572206973206e6f7420746865206f776e657281525060200191505060405180910390fd5b600073ffffffffffffffffffffffffffffffffffffffff168173ffffffffffffffffffffffffffffffffffffffff161415611521576040517f08c379a0000000000000000000000000000000000000000000000000000000008152600401808060200182810382526026815260200180611c006026913960400191505060405180910390fd5b8073ffffffffffffffffffffffffffffffffffffffff166000809054906101000a900473ffffffffffffffffffffffffffffffffffffffff1673ffffffffffffffffffffffffffffffffffffffff167f8be0079c531659141344cd1fd0a4f28419497f9722a3daafe3b4186f6b6457e060405160405180910390a3806000806101000a81548173ffffffffffffffffffffffffffffffffffffffff021916908373ffffffffffffffffffffffffffffffffffffffff16021790555050565b6000808314156115f2576000905061165f565b600082840290508284828161160357fe5b041461165a576040517f08c379a0000000000000000000000000000000000000000000000000000000008152600401808060200182810382526021815260200180611c676021913960400191505060405180910390fd5b809150505b92915050565b6000808284019050838110156116e3576040517f08c379a000000000000000000000000000000000000000000000000000000000815260040180806020018281038252601b8152602001807f536166654d6174683a206164646974696f6e206f766572666c6f77000000000081525060200191505060405180910390fd5b8091505092915050565b600061172f83836040518060400160405280601a81526020017f536166654d6174683a206469766973696f6e206279207a65726f000000000000815250611a3b565b905092915050565b600360009054906101000a900460ff161561179d576040517f08c379a0000000000000000000000000000000000000000000000000000000008152600401808060200182810382526044815260200180611c886044913960600191505060405180910390fd5b6000600460009054906101000a900473ffffffffffffffffffffffffffffffffffffffff1673ffffffffffffffffffffffffffffffffffffffff166370a08231306040518263ffffffff1660e01b8152600401808273ffffffffffffffffffffffffffffffffffffffff1673ffffffffffffffffffffffffffffffffffffffff16815260200191505060206040518083038186803b15801561183e57600080fd5b505afa158015611852573d6000803e3d6000fd5b505050506040513d602081101561186857600080fd5b81019080805190602001909291905050509050600460009054906101000a900473ffffffffffffffffffffffffffffffffffffffff1673ffffffffffffffffffffffffffffffffffffffff1663a9059cbb33836040518363ffffffff1660e01b8152600401808373ffffffffffffffffffffffffffffffffffffffff1673ffffffffffffffffffffffffffffffffffffffff16815260200182815260200192505050602060405180830381600087803b15801561192457600080fd5b505af1158015611938573d6000803e3d6000fd5b505050506040513d602081101561194e57600080fd5b8101908080519060200190929190505050506001600360006101000a81548160ff0219169083151502179055507fbc2e7ff468f223a846ad9a02544b6815fb4e640c92af4ef32938a95b00fdf49b3382604051808373ffffffffffffffffffffffffffffffffffffffff1673ffffffffffffffffffffffffffffffffffffffff1681526020018281526020019250505060405180910390a150565b6000611a2b83836040518060400160405280601e81526020017f536166654d6174683a207375627472616374696f6e206f766572666c6f770000815250611b01565b905092915050565b600033905090565b60008083118290611ae7576040517f08c379a00000000000000000000000000000000000000000000000000000000081526004018080602001828103825283818151815260200191508051906020019080838360005b83811015611aac578082015181840152602081019050611a91565b50505050905090810190601f168015611ad95780820380516001836020036101000a031916815260200191505b509250505060405180910390fd5b506000838581611af357fe5b049050809150509392505050565b6000838311158290611bae576040517f08c379a00000000000000000000000000000000000000000000000000000000081526004018080602001828103825283818151815260200191508051906020019080838360005b83811015611b73578082015181840152602081019050611b58565b50505050905090810190601f168015611ba05780820380516001836020036101000a031916815260200191505b509250505060405180910390fd5b506000838503905080915050939250505056fe4f6e6c792061636365707465642062656e65666963696172792061646472656473732061726520616c6c6f77656420746f20636c61696d20666f756e64734f776e61626c653a206e6577206f776e657220697320746865207a65726f2061646472657373596f752061726520747279696e6720746f207769746864726177206d6f7265207468616e2072656d61696e696e6720616c6c6f7765642074686973206d6f6e7468536166654d6174683a206d756c7469706c69636174696f6e206f766572666c6f775468697320636f6e7472616374206973206e6f742064697370656e73696e6720616e79206d6f72652c2064697370656e73656420706572696f642068617320656e64656442656e65666963696172792063616e206e6f7420626520746865207a65726f2061646472657373a2646970667358221220d00d5a0dd3aa726541536dc282c7f5231b9844daf7344a1c5c284e4042a2a0ce64736f6c634300060b0033536166654d6174683a206d756c7469706c69636174696f6e206f766572666c6f77",
  "compiler": {
    "name": "solc",
    "version": "0.6.11+commit.5ef660b1.Emscripten.clang",
    "optimizer": {
      "enabled": false,
      "runs": 200
    },
    "evmVersion": "petersburg"
  }
}