{
  "contractName": "Dispenser",
  "abi": [
    {
      "inputs": [],
      "stateMutability": "nonpayable",
      "type": "constructor"
    },
    {
      "inputs": [],
      "name": "beneficiary",
      "outputs": [
        {
          "internalType": "address",
          "name": "",
          "type": "address"
        }
      ],
      "stateMutability": "view",
      "type": "function"
    },
    {
      "inputs": [],
      "name": "dispensedToken",
      "outputs": [
        {
          "internalType": "contract DispensedToken",
          "name": "",
          "type": "address"
        }
      ],
      "stateMutability": "view",
      "type": "function"
    },
    {
      "inputs": [
        {
          "internalType": "uint256",
          "name": "",
          "type": "uint256"
        },
        {
          "internalType": "uint256",
          "name": "",
          "type": "uint256"
        }
      ],
      "name": "limits",
      "outputs": [
        {
          "internalType": "uint256",
          "name": "",
          "type": "uint256"
        }
      ],
      "stateMutability": "view",
      "type": "function"
    },
    {
      "inputs": [],
      "name": "startTime",
      "outputs": [
        {
          "internalType": "uint256",
          "name": "",
          "type": "uint256"
        }
      ],
      "stateMutability": "view",
      "type": "function"
    },
    {
      "inputs": [],
      "name": "stopThresholdLimit",
      "outputs": [
        {
          "internalType": "uint256",
          "name": "",
          "type": "uint256"
        }
      ],
      "stateMutability": "view",
      "type": "function"
    },
    {
      "inputs": [],
      "name": "getCurrentMonthUnclaimedFund",
      "outputs": [
        {
          "internalType": "uint256",
          "name": "remainingAllowed",
          "type": "uint256"
        }
      ],
      "stateMutability": "view",
      "type": "function"
    },
    {
      "inputs": [
        {
          "internalType": "uint256",
          "name": "y",
          "type": "uint256"
        },
        {
          "internalType": "uint256",
          "name": "m",
          "type": "uint256"
        }
      ],
      "name": "getMonthUnclaimedFund",
      "outputs": [
        {
          "internalType": "uint256",
          "name": "remining_funds",
          "type": "uint256"
        }
      ],
      "stateMutability": "view",
      "type": "function"
    },
    {
      "inputs": [
        {
          "internalType": "uint256",
          "name": "_amount",
          "type": "uint256"
        }
      ],
      "name": "claimFunds",
      "outputs": [],
      "stateMutability": "nonpayable",
      "type": "function"
    }
  ],
  "bytecode": "0x608060405234801561001057600080fd5b5033600260006101000a81548173ffffffffffffffffffffffffffffffffffffffff021916908373ffffffffffffffffffffffffffffffffffffffff16021790555060405161005e906101f5565b604051809103906000f08015801561007a573d6000803e3d6000fd5b50600360006101000a81548173ffffffffffffffffffffffffffffffffffffffff021916908373ffffffffffffffffffffffffffffffffffffffff1602179055504260008190555060646001819055506100d86100dd60201b60201c565b610203565b6100f060016103e861013e60201b60201c565b61010360026109c461013e60201b60201c565b610116600361138861013e60201b60201c565b610129600461271061013e60201b60201c565b61013c600561138861019460201b60201c565b565b6000670de0b6b3a76400008202905060008090505b600c81101561018e5781600460018603600c811061016d57fe5b601d020182601d811061017c57fe5b01819055508080600101915050610153565b50505050565b600081905060008090505b60008090505b60048110156101d0576101c38260018703018461013e60201b60201c565b80806001019150506101a5565b508080600101915050600282816101e357fe5b049150600154821161019f5750505050565b61179f8062000aac83390190565b61089980620002136000396000f3fe608060405234801561001057600080fd5b50600436106100885760003560e01c8063b662ac7e1161005b578063b662ac7e1461016f578063bed56c3e146101b9578063ce7c30fa14610205578063da1388831461022357610088565b80631b55e3381461008d5780632635c081146100bb57806338af3eed1461010757806378e9792514610151575b600080fd5b6100b9600480360360208110156100a357600080fd5b8101908080359060200190929190505050610241565b005b6100f1600480360360408110156100d157600080fd5b8101908080359060200190929190803590602001909291905050506104c0565b6040518082815260200191505060405180910390f35b61010f6106ab565b604051808273ffffffffffffffffffffffffffffffffffffffff1673ffffffffffffffffffffffffffffffffffffffff16815260200191505060405180910390f35b6101596106d1565b6040518082815260200191505060405180910390f35b6101776106d7565b604051808273ffffffffffffffffffffffffffffffffffffffff1673ffffffffffffffffffffffffffffffffffffffff16815260200191505060405180910390f35b6101ef600480360360408110156101cf57600080fd5b8101908080359060200190929190803590602001909291905050506106fd565b6040518082815260200191505060405180910390f35b61020d610725565b6040518082815260200191505060405180910390f35b61022b61072b565b6040518082815260200191505060405180910390f35b600260009054906101000a900473ffffffffffffffffffffffffffffffffffffffff1673ffffffffffffffffffffffffffffffffffffffff163373ffffffffffffffffffffffffffffffffffffffff16146102e7576040517f08c379a00000000000000000000000000000000000000000000000000000000081526004018080602001828103825260348152602001806107f96034913960400191505060405180910390fd5b60004290506000806102f883610762565b91509150600482600c811061030957fe5b601d020181601d811061031857fe5b0154841115610372576040517f08c379a000000000000000000000000000000000000000000000000000000000815260040180806020018281038252603781526020018061082d6037913960400191505060405180910390fd5b600360009054906101000a900473ffffffffffffffffffffffffffffffffffffffff1673ffffffffffffffffffffffffffffffffffffffff1663a9059cbb600260009054906101000a900473ffffffffffffffffffffffffffffffffffffffff16866040518363ffffffff1660e01b8152600401808373ffffffffffffffffffffffffffffffffffffffff1673ffffffffffffffffffffffffffffffffffffffff16815260200182815260200192505050602060405180830381600087803b15801561043d57600080fd5b505af1158015610451573d6000803e3d6000fd5b505050506040513d602081101561046757600080fd5b81019080805190602001909291905050505083600483600c811061048757fe5b601d020182601d811061049657fe5b015403600483600c81106104a657fe5b601d020182601d81106104b557fe5b018190555050505050565b6000600c821115610539576040517f08c379a000000000000000000000000000000000000000000000000000000000815260040180806020018281038252601e8152602001807f6d6f6e7468206e6f7420616c6c6f776564206d6f7265207468616e203132000081525060200191505060405180910390fd5b81600010610592576040517f08c379a00000000000000000000000000000000000000000000000000000000081526004018080602001828103825260258152602001806107d46025913960400191505060405180910390fd5b601c831115610609576040517f08c379a000000000000000000000000000000000000000000000000000000000815260040180806020018281038252601f8152602001807f796561722073686f756c64206e6f74206265206d6f7265207468616e2032380081525060200191505060405180910390fd5b8260001061067f576040517f08c379a000000000000000000000000000000000000000000000000000000000815260040180806020018281038252601f8152602001807f796561722073686f756c64206e6f74206265206d6f7265207468616e2032380081525060200191505060405180910390fd5b600460018403600c811061068f57fe5b601d020160018303601d81106106a157fe5b0154905092915050565b600260009054906101000a900473ffffffffffffffffffffffffffffffffffffffff1681565b60005481565b600360009054906101000a900473ffffffffffffffffffffffffffffffffffffffff1681565b600482600c811061070a57fe5b601d020181601d811061071957fe5b01600091509150505481565b60015481565b600080600061073942610762565b91509150600482600c811061074a57fe5b601d020181601d811061075957fe5b01549250505090565b60008060006101686018603c8060005488038161077b57fe5b048161078357fe5b048161078b57fe5b048161079357fe5b0490506000601e6018603c806000548903816107ab57fe5b04816107b357fe5b04816107bb57fe5b04816107c357fe5b049050818193509350505091509156fe6d6f6e7468206e6f7420616c6c6f776564206d6f7265206c657373207468616e207a65726f4f6e6c792042656e656669636961727920616464726564737320697320616c6c6f77656420746f20636c61696d20666f756e6473596f752061726520747279696e6720746f207769746864726177206d6f7265207468616e20616c6c6f7765642074686973206d6f6e7468a2646970667358221220153fe029e6cf6437e302db71cff3785fb913318d934e868bd0e329c35bfcf24064736f6c634300060b003360806040523480156200001157600080fd5b5069943b1377290cbd8000006040518060400160405280600f81526020017f44697370656e73656420546f6b656e00000000000000000000000000000000008152506040518060400160405280600381526020017f44535000000000000000000000000000000000000000000000000000000000008152508160039080519060200190620000a1929190620004e5565b508060049080519060200190620000ba929190620004e5565b506012600560006101000a81548160ff021916908360ff16021790555050506000811162000150576040517f08c379a00000000000000000000000000000000000000000000000000000000081526004018080602001828103825260158152602001807f45524332304361707065643a206361702069732030000000000000000000000081525060200191505060405180910390fd5b8060068190555050620001743369943b1377290cbd8000006200017a60201b60201c565b62000594565b600073ffffffffffffffffffffffffffffffffffffffff168273ffffffffffffffffffffffffffffffffffffffff1614156200021e576040517f08c379a000000000000000000000000000000000000000000000000000000000815260040180806020018281038252601f8152602001807f45524332303a206d696e7420746f20746865207a65726f20616464726573730081525060200191505060405180910390fd5b62000232600083836200035860201b60201c565b6200024e816002546200044d60201b620009e01790919060201c565b600281905550620002ac816000808573ffffffffffffffffffffffffffffffffffffffff1673ffffffffffffffffffffffffffffffffffffffff168152602001908152602001600020546200044d60201b620009e01790919060201c565b6000808473ffffffffffffffffffffffffffffffffffffffff1673ffffffffffffffffffffffffffffffffffffffff168152602001908152602001600020819055508173ffffffffffffffffffffffffffffffffffffffff16600073ffffffffffffffffffffffffffffffffffffffff167fddf252ad1be2c89b69c2b068fc378daa952ba7f163c4a11628f55a4df523b3ef836040518082815260200191505060405180910390a35050565b62000370838383620004d660201b62000a681760201c565b600073ffffffffffffffffffffffffffffffffffffffff168373ffffffffffffffffffffffffffffffffffffffff1614156200044857600654620003d282620003be620004db60201b60201c565b6200044d60201b620009e01790919060201c565b111562000447576040517f08c379a00000000000000000000000000000000000000000000000000000000081526004018080602001828103825260198152602001807f45524332304361707065643a206361702065786365656465640000000000000081525060200191505060405180910390fd5b5b505050565b600080828401905083811015620004cc576040517f08c379a000000000000000000000000000000000000000000000000000000000815260040180806020018281038252601b8152602001807f536166654d6174683a206164646974696f6e206f766572666c6f77000000000081525060200191505060405180910390fd5b8091505092915050565b505050565b6000600254905090565b828054600181600116156101000203166002900490600052602060002090601f016020900481019282601f106200052857805160ff191683800117855562000559565b8280016001018555821562000559579182015b82811115620005585782518255916020019190600101906200053b565b5b5090506200056891906200056c565b5090565b6200059191905b808211156200058d57600081600090555060010162000573565b5090565b90565b6111fb80620005a46000396000f3fe608060405234801561001057600080fd5b50600436106100b45760003560e01c80633950935111610071578063395093511461028857806370a08231146102ee57806395d89b4114610346578063a457c2d7146103c9578063a9059cbb1461042f578063dd62ed3e14610495576100b4565b806306fdde03146100b9578063095ea7b31461013c57806318160ddd146101a257806323b872dd146101c0578063313ce56714610246578063355274ea1461026a575b600080fd5b6100c161050d565b6040518080602001828103825283818151815260200191508051906020019080838360005b838110156101015780820151818401526020810190506100e6565b50505050905090810190601f16801561012e5780820380516001836020036101000a031916815260200191505b509250505060405180910390f35b6101886004803603604081101561015257600080fd5b81019080803573ffffffffffffffffffffffffffffffffffffffff169060200190929190803590602001909291905050506105af565b604051808215151515815260200191505060405180910390f35b6101aa6105cd565b6040518082815260200191505060405180910390f35b61022c600480360360608110156101d657600080fd5b81019080803573ffffffffffffffffffffffffffffffffffffffff169060200190929190803573ffffffffffffffffffffffffffffffffffffffff169060200190929190803590602001909291905050506105d7565b604051808215151515815260200191505060405180910390f35b61024e6106b0565b604051808260ff1660ff16815260200191505060405180910390f35b6102726106c7565b6040518082815260200191505060405180910390f35b6102d46004803603604081101561029e57600080fd5b81019080803573ffffffffffffffffffffffffffffffffffffffff169060200190929190803590602001909291905050506106d1565b604051808215151515815260200191505060405180910390f35b6103306004803603602081101561030457600080fd5b81019080803573ffffffffffffffffffffffffffffffffffffffff169060200190929190505050610784565b6040518082815260200191505060405180910390f35b61034e6107cc565b6040518080602001828103825283818151815260200191508051906020019080838360005b8381101561038e578082015181840152602081019050610373565b50505050905090810190601f1680156103bb5780820380516001836020036101000a031916815260200191505b509250505060405180910390f35b610415600480360360408110156103df57600080fd5b81019080803573ffffffffffffffffffffffffffffffffffffffff1690602001909291908035906020019092919050505061086e565b604051808215151515815260200191505060405180910390f35b61047b6004803603604081101561044557600080fd5b81019080803573ffffffffffffffffffffffffffffffffffffffff1690602001909291908035906020019092919050505061093b565b604051808215151515815260200191505060405180910390f35b6104f7600480360360408110156104ab57600080fd5b81019080803573ffffffffffffffffffffffffffffffffffffffff169060200190929190803573ffffffffffffffffffffffffffffffffffffffff169060200190929190505050610959565b6040518082815260200191505060405180910390f35b606060038054600181600116156101000203166002900480601f0160208091040260200160405190810160405280929190818152602001828054600181600116156101000203166002900480156105a55780601f1061057a576101008083540402835291602001916105a5565b820191906000526020600020905b81548152906001019060200180831161058857829003601f168201915b5050505050905090565b60006105c36105bc610a6d565b8484610a75565b6001905092915050565b6000600254905090565b60006105e4848484610c6c565b6106a5846105f0610a6d565b6106a08560405180606001604052806028815260200161113060289139600160008b73ffffffffffffffffffffffffffffffffffffffff1673ffffffffffffffffffffffffffffffffffffffff1681526020019081526020016000206000610656610a6d565b73ffffffffffffffffffffffffffffffffffffffff1673ffffffffffffffffffffffffffffffffffffffff16815260200190815260200160002054610f2d9092919063ffffffff16565b610a75565b600190509392505050565b6000600560009054906101000a900460ff16905090565b6000600654905090565b600061077a6106de610a6d565b8461077585600160006106ef610a6d565b73ffffffffffffffffffffffffffffffffffffffff1673ffffffffffffffffffffffffffffffffffffffff16815260200190815260200160002060008973ffffffffffffffffffffffffffffffffffffffff1673ffffffffffffffffffffffffffffffffffffffff168152602001908152602001600020546109e090919063ffffffff16565b610a75565b6001905092915050565b60008060008373ffffffffffffffffffffffffffffffffffffffff1673ffffffffffffffffffffffffffffffffffffffff168152602001908152602001600020549050919050565b606060048054600181600116156101000203166002900480601f0160208091040260200160405190810160405280929190818152602001828054600181600116156101000203166002900480156108645780601f1061083957610100808354040283529160200191610864565b820191906000526020600020905b81548152906001019060200180831161084757829003601f168201915b5050505050905090565b600061093161087b610a6d565b8461092c856040518060600160405280602581526020016111a160259139600160006108a5610a6d565b73ffffffffffffffffffffffffffffffffffffffff1673ffffffffffffffffffffffffffffffffffffffff16815260200190815260200160002060008a73ffffffffffffffffffffffffffffffffffffffff1673ffffffffffffffffffffffffffffffffffffffff16815260200190815260200160002054610f2d9092919063ffffffff16565b610a75565b6001905092915050565b600061094f610948610a6d565b8484610c6c565b6001905092915050565b6000600160008473ffffffffffffffffffffffffffffffffffffffff1673ffffffffffffffffffffffffffffffffffffffff16815260200190815260200160002060008373ffffffffffffffffffffffffffffffffffffffff1673ffffffffffffffffffffffffffffffffffffffff16815260200190815260200160002054905092915050565b600080828401905083811015610a5e576040517f08c379a000000000000000000000000000000000000000000000000000000000815260040180806020018281038252601b8152602001807f536166654d6174683a206164646974696f6e206f766572666c6f77000000000081525060200191505060405180910390fd5b8091505092915050565b505050565b600033905090565b600073ffffffffffffffffffffffffffffffffffffffff168373ffffffffffffffffffffffffffffffffffffffff161415610afb576040517f08c379a000000000000000000000000000000000000000000000000000000000815260040180806020018281038252602481526020018061117d6024913960400191505060405180910390fd5b600073ffffffffffffffffffffffffffffffffffffffff168273ffffffffffffffffffffffffffffffffffffffff161415610b81576040517f08c379a00000000000000000000000000000000000000000000000000000000081526004018080602001828103825260228152602001806110e86022913960400191505060405180910390fd5b80600160008573ffffffffffffffffffffffffffffffffffffffff1673ffffffffffffffffffffffffffffffffffffffff16815260200190815260200160002060008473ffffffffffffffffffffffffffffffffffffffff1673ffffffffffffffffffffffffffffffffffffffff168152602001908152602001600020819055508173ffffffffffffffffffffffffffffffffffffffff168373ffffffffffffffffffffffffffffffffffffffff167f8c5be1e5ebec7d5bd14f71427d1e84f3dd0314c0f7b2291e5b200ac8c7c3b925836040518082815260200191505060405180910390a3505050565b600073ffffffffffffffffffffffffffffffffffffffff168373ffffffffffffffffffffffffffffffffffffffff161415610cf2576040517f08c379a00000000000000000000000000000000000000000000000000000000081526004018080602001828103825260258152602001806111586025913960400191505060405180910390fd5b600073ffffffffffffffffffffffffffffffffffffffff168273ffffffffffffffffffffffffffffffffffffffff161415610d78576040517f08c379a00000000000000000000000000000000000000000000000000000000081526004018080602001828103825260238152602001806110c56023913960400191505060405180910390fd5b610d83838383610fed565b610dee8160405180606001604052806026815260200161110a602691396000808773ffffffffffffffffffffffffffffffffffffffff1673ffffffffffffffffffffffffffffffffffffffff16815260200190815260200160002054610f2d9092919063ffffffff16565b6000808573ffffffffffffffffffffffffffffffffffffffff1673ffffffffffffffffffffffffffffffffffffffff16815260200190815260200160002081905550610e81816000808573ffffffffffffffffffffffffffffffffffffffff1673ffffffffffffffffffffffffffffffffffffffff168152602001908152602001600020546109e090919063ffffffff16565b6000808473ffffffffffffffffffffffffffffffffffffffff1673ffffffffffffffffffffffffffffffffffffffff168152602001908152602001600020819055508173ffffffffffffffffffffffffffffffffffffffff168373ffffffffffffffffffffffffffffffffffffffff167fddf252ad1be2c89b69c2b068fc378daa952ba7f163c4a11628f55a4df523b3ef836040518082815260200191505060405180910390a3505050565b6000838311158290610fda576040517f08c379a00000000000000000000000000000000000000000000000000000000081526004018080602001828103825283818151815260200191508051906020019080838360005b83811015610f9f578082015181840152602081019050610f84565b50505050905090810190601f168015610fcc5780820380516001836020036101000a031916815260200191505b509250505060405180910390fd5b5060008385039050809150509392505050565b610ff8838383610a68565b600073ffffffffffffffffffffffffffffffffffffffff168373ffffffffffffffffffffffffffffffffffffffff1614156110bf5760065461104a8261103c6105cd565b6109e090919063ffffffff16565b11156110be576040517f08c379a00000000000000000000000000000000000000000000000000000000081526004018080602001828103825260198152602001807f45524332304361707065643a206361702065786365656465640000000000000081525060200191505060405180910390fd5b5b50505056fe45524332303a207472616e7366657220746f20746865207a65726f206164647265737345524332303a20617070726f766520746f20746865207a65726f206164647265737345524332303a207472616e7366657220616d6f756e7420657863656564732062616c616e636545524332303a207472616e7366657220616d6f756e74206578636565647320616c6c6f77616e636545524332303a207472616e736665722066726f6d20746865207a65726f206164647265737345524332303a20617070726f76652066726f6d20746865207a65726f206164647265737345524332303a2064656372656173656420616c6c6f77616e63652062656c6f77207a65726fa2646970667358221220db39b7bb15a930c1a62ab4e4aa828b5e270c0fe8b58844cce86f42e8d5479ff164736f6c634300060b0033",
  "immutableReferences": {},
  "source": "// SPDX-License-Identifier: MIT\n\npragma solidity ^0.6.0;\n\nimport './DispensedToken.sol';\n\n\ncontract Dispenser {\n    // deployment time, used for calculate current period and clims which limits to apply\n    uint public startTime;\n    // threshold after which there is no monetary policy and all founds are going to be released to beneficiary\n    uint public stopThresholdLimit;\n    // beneficiary addresss is the onlyone who can be receipt of transfers from this contract\n    address public beneficiary;\n    // DispensedToken is an ERC20Capped token, which total supply is managed by this contract\n    DispensedToken public dispensedToken;\n    // Bidimentional array to store raimaing allowed withdrawals per months\n    uint[29][12] public limits;\n\n    constructor() public{\n        beneficiary = msg.sender;\n        dispensedToken = new DispensedToken();\n        startTime = now;\n        stopThresholdLimit = 100;\n        populateLimits();\n    }\n\n    function populateLimits () private {\n        // months dinamic limits are just hardcoded, as it doesn't change in original problem domain.\n        populateSingleYear(1,1000);\n        populateSingleYear(2,2500);\n        populateSingleYear(3,5000);\n        populateSingleYear(4,10000);\n        // from year five we charge periods of 4 years dividin limits by 2on each period, like \"bitcoin monetary policy\"\n        populateBySatoshiMonetaryPolicy(5,5000);\n    }\n\n    function populateBySatoshiMonetaryPolicy(uint _startpoint, uint _initialamount) private {\n        uint allowed = _initialamount;\n        uint period = 0;\n        do {\n            for (uint i = 0; i < 4; i++) {\n                populateSingleYear((_startpoint-1)+period,allowed);\n            }\n            period ++;\n            allowed = allowed/2;\n        } while (allowed>stopThresholdLimit);\n    }\n\n    // here the convertion is just to fit number of decimals defined Dispensed token\n    // it could be an option\n    function populateSingleYear (uint _yearorder, uint _limit) private {\n        uint limit = _limit * ( 10 ** 18 );\n\n        for (uint i = 0; i < 12; i++) {\n                //index year in year-1 because the first year is represented in 0 index array\n                limits[(_yearorder-1)][i] = limit;\n            }\n    }\n\n    function getYearAndMonths (uint _time) private view returns (uint year,uint month){\n        // this is the number of years between two timestamps in seconds, assuming years have 160 days for simplification\n        uint yea = (((( _time - startTime ) / 60 ) / 60 ) / 24 ) / 360;\n        // this is how many months\n        uint mon = (((( _time - startTime ) / 60 ) / 60 ) / 24 ) / 30;\n        return (yea,mon);\n    }\n\n    //this function is being created just for cheking array state\n    function getCurrentMonthUnclaimedFund() public view returns (uint remainingAllowed){\n        (uint y, uint m) = getYearAndMonths(now);\n        return limits[y][m];\n    }\n\n    function getMonthUnclaimedFund(uint y, uint m) public view returns (uint remining_funds) {\n        require (m <= 12, 'month not allowed more than 12');\n        require (0 < m, 'month not allowed more less than zero');\n        require (y <= 28, 'year should not be more than 28');\n        require (0 < y, 'year should not be more than 28');\n        return (limits[y-1][m-1]);\n    }\n\n    function claimFunds (uint _amount) public {\n        require(msg.sender == beneficiary, 'Only Beneficiary addredss is allowed to claim founds');\n        uint time = now;\n\n        (uint y, uint m) = getYearAndMonths(time);\n    //    assert (y>28 && m >12) emitir evento de finalización y liberar todos los fondos\n        require(_amount <= limits[y][m], 'You are trying to withdraw more than allowed this month');\n\n        dispensedToken.transfer(beneficiary, _amount);\n        limits[y][m] = limits[y][m] - _amount;\n\n    }\n}",
  "sourcePath": "/home/rodrigo/dispenser/contracts/Dispenser.sol",
  "compiler": {
    "name": "solc",
    "version": "0.6.11+commit.5ef660b1.Emscripten.clang"
  },
  "schemaVersion": "3.2.2",
  "updatedAt": "2020-07-16T19:24:42.029Z",
  "devdoc": {
    "kind": "dev",
    "methods": {},
    "version": 1
  },
  "userdoc": {
    "kind": "user",
    "methods": {},
    "version": 1
  }
}